:020000040800F2
:10000000000008208D300008452E00084D2E000805
:10001000552E00085D2E0008652E00080000000027
:100020000000000000000000000000006D2E00082D
:100030007B2E000800000000892E0008972E000883
:10004000DD300008DD300008DD300008DD3000085C
:10005000DD300008DD300008DD300008DD3000084C
:10006000DD300008DD300008DD300008DD3000083C
:10007000DD300008DD300008DD300008DD3000082C
:10008000DD300008DD300008DD300008DD3000081C
:10009000DD300008DD300008DD300008DD3000080C
:1000A000DD300008C1AB0008DD300008DD3000089D
:1000B00011AC0008DD300008DD300008DD3000083C
:1000C000DD300008DD300008DD300008DD300008DC
:1000D000DD300008DD300008DD300008DD300008CC
:1000E000DD300008DD300008DD300008DD300008BC
:1000F000DD300008DD300008DD300008DD300008AC
:10010000DD300008DD300008DD300008DD3000089B
:10011000DD300008DD300008DD300008DD3000088B
:10012000AB2E0008B72E0008C52E000825B3000826
:10013000D12E0008DD300008DD300008DD30000879
:10014000DD300008DD300008DD300008DD3000085B
:10015000DD3000082DAE0008DD3000080D76000807
:10016000DD300008DD300008DD300008DD3000083B
:10017000DD300008DD300008DD3000080000000040
:10018000DD300008DD30000819460008DD300008C9
:10019000DD300008DD300008DD300008DD3000080B
:1001A0000000000000000000DD300008DD30000825
:1001B000DD300008DD300008DD300008DD300008EB
:1001C000DD300008DD30000800000000DD300008F0
:1001D000DD300008DD300008DD300008DD300008CB
:1001E000DD300008DD300008DD300008DD300008BB
:0801F00000000000DD300008F2
:1002000010B5054C237833B9044B13B10448AFF350
:1002100000800123237010BD104400200000000066
:100220002C66010808B5034B1BB103490348AFF323
:10023000008008BD00000000144400202C66010866
:1002400010F8012B11F8013B012A28BF9A42F7D080
:10025000D01A7047000000000000000000000000FD
:1002600001F0FF01102A2BDB10F0070F08D010F867
:10027000013B013A8B422DD010F0070F42B3F6D16B
:10028000F0B441EA012141EA014122F007047FF084
:1002900000070023F0E80256083C85EA010586EADB
:1002A000010685FA47F5A3FA87F586FA47F6A5FA17
:1002B00087F68EB9EED1F0BC01F0FF0102F0070223
:1002C00032B110F8013B013A83EA010313B1F8D1CE
:1002D0000020704701387047002D06BF35460338AF
:1002E000073815F0010F07D1013015F4807F02BFE8
:1002F000013015F4C03F0130F0BC0138704700BF39
:10030000034613F8012B002AFBD1181A0138704755
:100310007BB972B90029BEBF00204FF0004106E052
:1003200008BF00281CBF6FF000414FF0FF3000F005
:10033000D3B9ADF1080C6DE904CE002909DB002B1F
:100340001ADB00F04DF8DDF804E0DDE9022304B02B
:100350007047404261EB4101002B1BDB00F040F88D
:10036000DDF804E0DDE9022304B0404261EB410125
:10037000524263EB43037047524263EB430300F086
:100380002FF8DDF804E0DDE9022304B0404261EB20
:1003900041017047524263EB430300F021F8DDF85E
:1003A00004E0DDE9022304B0524263EB43037047EB
:1003B00053B94AB9002908BF00281CBF4FF0FF31CC
:1003C0004FF0FF3000F088B9ADF1080C6DE904CEB4
:1003D00000F006F8DDF804E0DDE9022304B0704720
:1003E0002DE9F047089D8E4604468846002B4AD1E9
:1003F0008A42174662D9B2FA82F64EB1C6F120039C
:1004000001FA06F820FA03F3B74043EA0808B440BB
:100410004FEA174E1FFA87FCB8FBFEF1230C0EFBC8
:10042000118843EA084301FB0CF29A4209D9FB18F0
:1004300001F1FF3080F0EA809A4240F2E780023911
:100440003B449A1AA3B2B2FBFEF00EFB102243EA21
:10045000024300FB0CFC9C4509D9FB1800F1FF325C
:1004600080F0D6809C4540F2D3803B44023840EA7D
:100470000140A3EB0C0300211DB1F3400022C5E9AC
:100480000032BDE8F0878B4205D90DB1C5E9000106
:1004900000210846F5E7B3FA83F1002946D17345F8
:1004A00002D3824200F20581841A6EEB030201201E
:1004B0009046002DE5D0C5E90048E2E7002A00F0AB
:1004C0009080B2FA82F6002E40F0A4808A1A030CC3
:1004D0004FEA174E80B2BCB20121B2FBFEFC0EFB0C
:1004E0001C2243EA024304FB0CF29A4207D9FB1890
:1004F0000CF1FF3802D29A4200F2E080C4469B1A07
:10050000B3FBFEF20EFB123340EA034302FB04F49A
:100510009C4207D9FB1802F1FF3002D29C4200F244
:10052000CA8002461B1B42EA0C40A5E7C1F1200627
:100530008B4022FA06F71F430EFA01F420FA06F365
:100540002EFA06FE4FEA1749234300FA01F81FFA74
:1005500087FCBEFBF9F01C0C09FB10EE44EA0E44CC
:1005600000FB0CFEA64502FA01F209D93C1900F184
:10057000FF3A80F09C80A64540F2998002383C44C6
:10058000A4EB0E041FFA83FEB4FBF9F309FB13443A
:100590004EEA044403FB0CFCA44508D93C1903F1C2
:1005A000FF3E80F08280A4457FD9023B3C4443EA71
:1005B0000040A4EB0C04A0FB02EC64457346E1464A
:1005C00062D35FD05DB1B8EB030264EB090404FAB7
:1005D00006F622FA01F31E43CC40C5E9006400216F
:1005E0004FE7B1FBF2FC010C41EA0E4180B240EA58
:1005F00001423B4638463C46B846BE462026B1FB43
:10060000F7F1A2EB080241EA0C4166E7014618E760
:1006100010462CE7C6F120022EFA02F3B740B14093
:1006200020FA02F24FEA174E0A43B3FBFEF8BCB2BF
:100630000EFB1833110C41EA034108FB04F9B040EA
:1006400089454FEA104380B23ED9791808F1FF3C42
:1006500001D289451FD8A1EB0901B1FBFEF909FBC5
:1006600004F80EFB191192B242EA0142424529D226
:10067000BA1809F1FF31C4D24245C2D2A9F1020130
:100680003A44BEE7F0459DD2BEEB02036CEB070C8B
:100690000138E14696E7A7EB09094944A8F1020CA5
:1006A000B1FBFEF909FB04F8DBE773467FE7504630
:1006B00066E70846FDE63B44023A33E7ACF1020C3C
:1006C0003B441CE749469CE7A1EB0901C446B1FB4A
:1006D000FEF909FB04F8C4E7704700BF80B400AF1F
:1006E000044BDB681B0A03F007031846BD465DF8A0
:1006F000047B704700ED00E080B483B000AF034698
:10070000FB7197F90730002B0BDBFB7903F01F021D
:10071000074997F907305B09012000FA02F241F816
:10072000232000BF0C37BD465DF8047B704700BF37
:1007300000E100E080B483B000AF03463960FB7194
:1007400097F90730002B0ADB3B68DAB20C4997F9BE
:1007500007301201D2B20B4483F800230AE03B6851
:10076000DAB20849FB7903F00F03043B1201D2B25D
:100770000B441A7600BF0C37BD465DF8047B70470A
:1007800000E100E000ED00E080B489B000AFF86067
:10079000B9607A60FB6803F00703FB61FB69C3F192
:1007A0000703042B28BF0423BB61FB690433062B1A
:1007B00002D9FB69033B00E000237B614FF0FF326D
:1007C000BB6902FA03F3DA43BB681A407B699A40BB
:1007D0004FF0FF317B6901FA03F3D9437B680B408B
:1007E000134318462437BD465DF8047B704780B438
:1007F00089B000AFF860B9607A60FB682C331946A5
:10080000BB6803F440734FF44072BA61BA6992FA5C
:10081000A2F27A617A69B2FA82F2D2B2D3409B0034
:100820000B44FB61FB691A68BB6803F01F031F21BF
:1008300001FA03F3DB431A407B6803F01F01BB6836
:1008400003F01F0301FA03F31A43FB691A6000BFA8
:100850002437BD465DF8047B704780B483B000AF99
:10086000786039607B689B6823F480623B681A4338
:100870007B689A6000BF0C37BD465DF8047B70470B
:1008800080B48DB000AFF860B9607A60FB680C335B
:100890001946BB6803F000734FF00072BA61BA6981
:1008A00092FAA2F27A617A69B2FA82F2D2B2D340B3
:1008B0009B000B44FB62FB6A1A68BB6803F0F87389
:1008C0004FF0F8713962396A91FAA1F1F961F96969
:1008D000B1FA81F1C9B2CB40072101FA03F3DB433E
:1008E0001A40BB6803F0F8734FF0F871B962B96A47
:1008F00091FAA1F17962796AB1FA81F1C9B2CB407A
:10090000796801FA03F31A43FB6A1A6000BF3437AF
:10091000BD465DF8047B704780B485B000AFF860D9
:10092000B9607A600D4ABB6813441B781A46FB68AD
:1009300013441B6823F0C0020849BB680B441B78B2
:100940001946FB680B4419467B6813430B6000BFD4
:100950001437BD465DF8047B704700BF788B0108F3
:1009600080B485B000AFF860B9607A600D4ABB68AA
:1009700013441B781A46FB6813441B6823F49072D7
:100980000849BB680B441B781946FB680B441946A1
:100990007B6813430B6000BF1437BD465DF8047BD2
:1009A000704700BF788B010880B485B000AFF86055
:1009B000B9607A600D4ABB6813441B781A46FB681D
:1009C00013441B6823F400720849BB680B441B786E
:1009D0001946FB680B4419467B6813430B6000BF44
:1009E0001437BD465DF8047B704700BF788B010863
:1009F00080B485B000AFF860B9607A600D4ABB681A
:100A000013441B781A46FB6813441B6823F4806266
:100A10000849BB680B441B781946FB680B44194610
:100A20007B6813430B6000BF1437BD465DF8047B41
:100A3000704700BF788B010880B485B000AFF860C4
:100A4000B9607A600D4ABB6813441B781A46FB688C
:100A500013441B6823F4C0520849BB680B441B783D
:100A60001946FB680B4419467B6813430B6000BFB3
:100A70001437BD465DF8047B704700BF788B0108D2
:100A800080B485B000AFF860B9607A600D4ABB6889
:100A900013441B781A46FB6813441B6823F4C042B6
:100AA0000849BB680B441B781946FB680B44194680
:100AB0007B6813430B6000BF1437BD465DF8047BB1
:100AC000704700BF788B010880B485B000AFF86034
:100AD000B9607A600D4ABB6813441B781A46FB68FC
:100AE00013441B6823F440320849BB680B441B784D
:100AF0001946FB680B4419467B6813430B6000BF23
:100B00001437BD465DF8047B704700BF788B010841
:100B100080B485B000AFF860B9607A600D4ABB68F8
:100B200013441B781A46FB6813441B6823F0F052E9
:100B30000849BB680B441B781946FB680B441946EF
:100B40007B6813430B6000BF1437BD465DF8047B20
:100B5000704700BF788B010880B483B000AF786025
:100B600039600C4A3B6813441B781A467B6813446F
:100B70005B6908493A680A44127811467A680A445F
:100B800023F00403536100BF0C37BD465DF8047BBE
:100B9000704700BF788B010880B483B000AF7860E5
:100BA0007B681B6843F001027B681A6000BF0C374A
:100BB000BD465DF8047B704780B483B000AF7860B9
:100BC0007B681B6823F400327B681A6000BF0C3717
:100BD000BD465DF8047B704780B483B000AF786099
:100BE0007B681B6823F400227B681A6000BF0C3707
:100BF000BD465DF8047B704780B485B000AFF860F7
:100C0000B9607A60FB68DA68064B1340B9687A68A5
:100C10000A431A43FB68DA6000BF1437BD465DF82B
:100C2000047B704701F8FFFF80B483B000AF7860A9
:100C30007B68DB6823F400427B68DA6000BF0C3716
:100C4000BD465DF8047B704780B483B000AF786028
:100C50007B685B6843F000727B685A6000BF0C37AA
:100C6000BD465DF8047B704780B483B000AF786008
:100C70007B684CF6CC421A6000BF0C37BD465DF86D
:100C8000047B704780B483B000AF78607B6845F226
:100C900055521A6000BF0C37BD465DF8047B7047A3
:100CA00080B483B000AF786039603B6803F007021E
:100CB0007B685A6000BF0C37BD465DF8047B704707
:100CC00080B483B000AF786039603B68C3F30B0237
:100CD0007B689A6000BF0C37BD465DF8047B7047A7
:100CE00080B483B000AF786039603B68C3F30B0217
:100CF0007B681A6100BF0C37BD465DF8047B704706
:100D000080B483B000AF78607B68DB6803F00703D2
:100D1000002B01D1012300E0002318460C37BD460B
:100D20005DF8047B704780B483B000AF78607B6867
:100D30001B6843F040027B681A6000BF0C37BD4659
:100D40005DF8047B704780B483B000AF7860396091
:100D50007B685B6823F010023B681A437B685A602B
:100D600000BF0C37BD465DF8047B704780B483B08C
:100D700000AF78607B685B6843F008027B685A606C
:100D800000BF0C37BD465DF8047B704780B483B06C
:100D900000AF78607B685B6823F008027B685A606C
:100DA00000BF0C37BD465DF8047B704780B483B04C
:100DB00000AF78607B681B6843F080027B681A6034
:100DC00000BF0C37BD465DF8047B704780B483B02C
:100DD00000AF78607B681B6823F080027B681A6034
:100DE00000BF0C37BD465DF8047B704780B485B00A
:100DF00000AF786039603B68012B28D03B68042B3A
:100E000023D03B68102B1ED03B68402B19D03B6889
:100E1000B3F5807F13D03B68B3F5806F0DD03B688E
:100E2000B3F5805F07D03B68B3F5803F01D107235E
:100E30000EE008230CE006230AE0052308E0042363
:100E400006E0032304E0022302E0012300E0002384
:100E5000FB737B6818331946FB7B0B4AD35C0B444E
:100E6000BB60BB681A68FB7B0849CB5C194604234E
:100E70008B40DB431A40BB681A6000BF1437BD4685
:100E80005DF8047B704700BF808B01088C8B0108E4
:100E900080B485B000AF786039603B68012B28D002
:100EA0003B68042B23D03B68102B1ED03B68402BA3
:100EB00019D03B68B3F5807F13D03B68B3F5806FE2
:100EC0000DD03B68B3F5805F07D03B68B3F5803F3A
:100ED00001D107230EE008230CE006230AE00523D6
:100EE00008E0042306E0032304E0022302E00123D8
:100EF00000E00023FB737B6818331946FB7B0A4A2A
:100F0000D35C0B44BB60BB681A68FB7B0749CB5CB6
:100F1000194608238B401A43BB681A6000BF143778
:100F2000BD465DF8047B7047808B01088C8B0108FF
:100F300080B483B000AF786039607B689A68064BF4
:100F400013403A681A437B689A6000BF0C37BD466D
:100F50005DF8047B704700BFF8BFFEFF80B483B02C
:100F600000AF786039607B685B6823F070023B6893
:100F70001A437B685A6000BF0C37BD465DF8047B9E
:100F8000704780B483B000AF786039607B685B687D
:100F900023F470023B681A437B685A6000BF0C3729
:100FA000BD465DF8047B704780B483B000AF7860C5
:100FB0007B689B6823F080027B689A6000BF0C37D7
:100FC000BD465DF8047B704780B483B000AF7860A5
:100FD0007B681B6843F001027B681A6000BF0C3716
:100FE000BD465DF8047B704780B483B000AF786085
:100FF00039607B681B6823F4F8123B681B041A43B2
:101000007B681A6000BF0C37BD465DF8047B7047F3
:1010100080B483B000AF786039607B681B6823F0D0
:1010200078723B685B051A437B681A6000BF0C3717
:10103000BD465DF8047B704780B483B000AF786034
:101040007B689B6843F480427B689A6000BF0C37E2
:10105000BD465DF8047B704780B483B000AF786014
:1010600039607B689B6823F400423B681A437B68C5
:101070009A6000BF0C37BD465DF8047B704780B4B2
:1010800083B000AF78607B685B6823F490427B6834
:101090005A607B689B6823F02A027B689A6000BFD5
:1010A0000C37BD465DF8047B704780B483B000AF59
:1010B000786039607B683A689A6100BF0C37BD463A
:1010C0005DF8047B704780B483B000AF786039600E
:1010D0003B681A047B689A6100BF0C37BD465DF817
:1010E000047B704780B485B000AF7860084B1A6B02
:1010F00007497B6813430B63054B1A6B7B681340EE
:10110000FB60FB6800BF1437BD465DF8047B704789
:101110000038024080B485B000AF7860084B1A6C8C
:1011200007497B6813430B64054B1A6C7B681340BB
:10113000FB60FB6800BF1437BD465DF8047B704759
:101140000038024080B485B000AF7860084B5A6C1C
:1011500007497B6813434B64054B5A6C7B6813400B
:10116000FB60FB6800BF1437BD465DF8047B704729
:101170000038024080B500AF00F01EFC00BF80BD0B
:1011800080B500AF0FF06CFB00F02EF801F028FBEB
:1011900001F0AEFA00F054FB00F00EFC00F0D2FCBF
:1011A00000F04EFD00F090F800F0C8FD00F0DCFF0C
:1011B00001F0B4F800F074FE01F04CF901F0FEF912
:1011C00000F0D6F900F084FA00F046FF00F08AFF44
:1011D00000F0D0FB00F012FB02F0B6F802F0C8F805
:1011E00002F0E2F800BFFDE780B594B000AF07F170
:1011F0001C0334220021184613F05EFA07F108039D
:1012000000221A605A609A60DA601A612C4B1B6CDB
:101210002B4A43F080531364294B1B6C03F080531B
:101220007B607B68274B1B68264A43F4404313606E
:10123000244B1B6803F440433B603B680923FB617C
:101240004FF480333B6201233B6302237B634FF403
:101250008003BB630C23FB63C0233B6402237B64DA
:101260000223BB640223FB6407F11C0318460FF042
:1012700029FE0346002B01D001F09AFD0FF0D2FDAC
:101280000346002B01D001F093FD0F23BB60022326
:10129000FB6000233B614FF4A0537B614FF480530C
:1012A000BB6107F108030621184610F0B9F80346A0
:1012B000002B01D001F07CFD00BF5037BD4680BD42
:1012C000003802400070004080B592B000AF07F1D6
:1012D0003C0300221A605A609A6007F1280300223A
:1012E0001A605A609A60DA601A6107F118030022E6
:1012F0001A605A609A60DA603B4600221A605A60AF
:101300009A60DA601A615A614FF48070FFF71AFF31
:101310000420FFF7E7FE0220FFF7E4FE01233B6015
:1013200003237B6000233B613B461946844811F050
:1013300000F802233B6003237B6000233B613B46B4
:1013400019467F4810F0F5FF04233B6003237B60C0
:1013500000233B613B461946794810F0EAFF082319
:101360003B6003237B6000233B613B461946744886
:1013700010F0DFFF10233B6003237B6000233B6101
:101380003B4619466E4810F0D4FF20233B600323F0
:101390007B6000233B613B461946694810F0C9FF5A
:1013A00001233B6003237B6000233B613B461946DE
:1013B000644810F0BEFF02233B6003237B600023E0
:1013C0003B613B4619465F4810F0B3FF0022042101
:1013D0005D48FFF79DFB002204215B48FFF79CFA64
:1013E000002204215848FFF76FFB4FF4807204215C
:1013F0005548FFF7B5FA002204215348FFF7D4FA05
:101400004FF4806204215048FFF7F2FA4FF4006273
:1014100004214D48FFF710FB4FF4005204214A48C5
:10142000FFF72EFB04214848FFF796FB0023FB63E0
:1014300000233B644FF480737B6407F13C0319463F
:10144000424810F0FDFD0023BB624FF4E003FB6255
:1014500000233B6300237B634FF44073BB6307F1BE
:1014600028031946394810F017FE00213748FFF7C6
:10147000F4F94FF48033BB610023FB6107F11803DB
:101480001946334810F094FD0A224FF400712F489A
:10149000FFF7ADF901220A212C48FFF7F1F92D4A97
:1014A00040F205212948FFF7A2F9012229492748DE
:1014B000FFF7E6F9284A40F20A212448FFF797F996
:1014C000012225492148FFF7DBF9244A40F20F2188
:1014D0001E48FFF78CF9012220491C48FFF7D0F97C
:1014E0001F4A4FF405711948FFF781F901221C4981
:1014F0001648FFF7C5F91B4A40F219211348FFF7B8
:1015000076F9012217491148FFF7BAF9164A4FF444
:1015100080710E48FFF76BF9012213490B48FFF762
:10152000AFF9124A40F205110848FFF760F90122AD
:101530000E490648FFF7A4F900BF4837BD4680BDF5
:101540000008024000040240006402400020014004
:10155000002301400B0030000C0060000D009000E3
:101560000E00C0000F00F000080080030900B00367
:1015700080B58EB000AF07F12C0300221A605A60CC
:101580009A6007F1180300221A605A609A60DA60C4
:101590001A613B4600221A605A609A60DA601A614A
:1015A0005A614FF40070FFF7CDFD0120FFF79AFD5F
:1015B00004233B6003237B6000233B613B461946C9
:1015C0003E4810F0B6FE08233B6003237B600023F7
:1015D0003B613B461946394810F0ABFE4FF00072B4
:1015E00002213748FFF794FA002202213448FFF71E
:1015F00093F9002202213248FFF766FA4FF4807215
:1016000002212F48FFF7ACF9002202212C48FFF7F6
:10161000CBF94FF4806202212948FFF7E9F94FF432
:10162000006202212648FFF707FA4FF40052022118
:101630002348FFF725FA02212148FFF78DFA0023FE
:10164000FB6200233B634FF480737B6307F12C0341
:1016500019461C4810F0F4FC0023BB614FF48013C2
:10166000FB6100233B6200237B624FF44073BB624B
:1016700007F118031946134810F00EFD4FF480616E
:101680001048FFF7EAF8104A4FF400710D48FFF7D1
:10169000AEF801220C490B48FFF7F2F80B4A40F272
:1016A00005210848FFF7A3F8002208490548FFF77D
:1016B000E7F800BF3837BD4680BD00BF00000240DC
:1016C0000064024000210140030090020200600219
:1016D00080B58EB000AF07F12C0300221A605A606B
:1016E0009A6007F1180300221A605A609A60DA6063
:1016F0001A613B4600221A605A609A60DA601A61E9
:101700005A614FF48060FFF71DFD0120FFF7EAFCEE
:1017100002233B6003237B6000233B613B46194669
:10172000324810F006FE4FF0806201213048FFF78A
:10173000EFF9002201212E48FFF7EEF800220121E7
:101740002B48FFF7C1F94FF4807201212848FFF7B9
:1017500007F9002201212648FFF726F94FF480629D
:1017600001212348FFF744F94FF40062012120488A
:10177000FFF762F94FF4005201211D48FFF780F98D
:1017800001211B48FFF7E8F90023FB6200233B63BC
:1017900000237B6307F12C031946164810F050FC18
:1017A0000023BB610023FB6100233B6200237B62BB
:1017B0004FF44073BB6207F1180319460D4810F04F
:1017C0006BFC4FF480610B48FFF747F80A4A4FF46F
:1017D00000710848FFF70BF8012207490548FFF799
:1017E0004FF800BF3837BD4680BD00BF0000024043
:1017F00000640240002201400100300280B500AFC9
:101800000D4B0E4A1A600C4B00221A710A4B002233
:101810005A71094B00225A61074B00229A61064B0C
:1018200001221A6204480FF093F90346002B01D0FD
:1018300001F0BEFA00BF80BD2C4400200030024001
:1018400080B5B2B000AF07F1AC0300221A605A6055
:101850009A60DA601A615A619A6107F19403002272
:101860001A605A609A60DA601A615A613B1D9022D0
:101870000021184612F020FF4FF480437B600023C4
:10188000BB663B1D18460FF07DFF0346002B01D0C1
:1018900001F08EFA0220FFF725FC4023C7F89430B0
:1018A0000223C7F898300323C7F89C300123C7F8F8
:1018B000A0300023C7F8A4300423C7F8A83007F1EC
:1018C00094031946284810F034FD8023C7F894305B
:1018D0000223C7F898300323C7F89C300123C7F8C8
:1018E000A0300023C7F8A4300423C7F8A83007F1BC
:1018F000940319461C4810F01CFD4FF40010FFF72C
:1019000009FC1A48FFF7A0F9002200211748FFF749
:1019100073F91648FFF788F91448FFF75DF9134883
:10192000FFF74AF90023C7F8AC30114BC7F8B030C5
:101930000023C7F8B4300023C7F8B8300023C7F835
:10194000BC300023C7F8C0300023C7F8C43007F10B
:10195000AC031946054810F003FE0448FFF71CF9D4
:1019600000BFC837BD4680BD00040240005400409F
:10197000FF63106080B500AF0E48FFF775F90D48A2
:10198000FFF780F905210B48FFF78AF94FF47A61D8
:101990000848FFF795F900BF0648FFF7B1F903467D
:1019A000012BF9D14FF47A610248FFF799F900BF92
:1019B00080BD00BF0030004080B590B000AF07F19F
:1019C000180328220021184612F076FE3B4600221A
:1019D0001A605A609A60DA601A615A614FF4805056
:1019E000FFF7B0FB0120FFF77DFB10233B600223D4
:1019F0007B600323BB600023FB6000233B61052366
:101A00007B613B4619464C4810F093FC20233B6019
:101A100002237B600323BB600023FB6000233B6148
:101A200005237B613B461946434810F082FC402366
:101A30003B6002237B600323BB600023FB60002329
:101A40003B6105237B613B4619463B4810F071FC26
:101A500080233B6002237B600323BB600023FB6089
:101A600000233B6105237B613B461946324810F059
:101A700060FC4FF0C06203213048FFF749F8402274
:101A800003212E48FEF748FF4FF4003203212B4874
:101A9000FFF71AF8002203212848FEF761FF002211
:101AA00003212648FEF780FF4FF48062032123487C
:101AB000FEF79EFF002203212048FEF7BDFF002213
:101AC00003211E48FEF7DCFF03211C48FFF744F802
:101AD000FEF704FE0346002200211846FEF754FEDE
:101AE000034619462320FEF725FE2320FEF704FEB9
:101AF0000023BB610023FB614FF4E0633B620223E0
:101B00007B620023BB620023FB6200237B63002314
:101B1000BB630723FB6307F118031946084811F05C
:101B2000F7F800210648FFF70EF90548FFF72EF9F0
:101B300000BF4037BD4680BD000002400064024047
:101B40000030014080B590B000AF07F118032822A3
:101B50000021184612F0B0FD3B4600221A605A6080
:101B60009A60DA601A615A614FF48040FFF7D2FA46
:101B70000220FFF7B7FA4FF400533B6002237B606B
:101B80000323BB600023FB6000233B6105237B61D3
:101B90003B461946284810F0CCFB4FF480433B608D
:101BA00002237B600323BB600023FB6000233B61B7
:101BB00005237B613B4619461F4810F0BAFB4FF4E2
:101BC00000433B6002237B600323BB600023FB6078
:101BD00000233B6105237B613B461946164810F004
:101BE000A8FB0023BB614FF48273FB614FF4E063F9
:101BF0003B6200237B620123BB624FF40073FB62F4
:101C000018233B6300237B630023BB630723FB6331
:101C100007F118031946094811F07AF8002107481E
:101C2000FFF791F80548FFF7B1F80448FFF77BF894
:101C300000BF4037BD4680BD000402400038004070
:101C400080B590B000AF07F1180328220021184694
:101C500012F032FD3B4600221A605A609A60DA6048
:101C60001A615A614FF40040FFF754FA0420FFF75D
:101C700039FA4FF480633B6002237B600323BB602F
:101C80000023FB6000233B6106237B613B46194632
:101C9000284810F04EFB4FF400633B6002237B604A
:101CA0000323BB600023FB6000233B6106237B61B1
:101CB0003B4619461F4810F03CFB4FF480533B60F5
:101CC00002237B600323BB600023FB6000233B6196
:101CD00006237B613B461946164810F02AFB002379
:101CE000BB614FF48273FB614FF4E0633B620023FE
:101CF0007B620023BB624FF40073FB6200233B63F3
:101D000000237B630023BB630723FB6307F11803F6
:101D10001946094810F0FCFF00210748FFF713F8A7
:101D20000548FFF723F80448FEF7FDFF00BF4037E2
:101D3000BD4680BD00080240003C004080B590B028
:101D400000AF07F1180328220021184612F0B4FC56
:101D50003B4600221A605A609A60DA601A615A6142
:101D60004FF40050FFF7EEF91020FFF7BBF94FF4E6
:101D700080533B6002237B600323BB600023FB6036
:101D800000233B6105237B613B461946414810F027
:101D9000D0FA4FF400533B6002237B600323BB6007
:101DA0000023FB6000233B6105237B613B46194612
:101DB000384810F0BEFA4FF480433B6002237B604A
:101DC0000323BB600023FB6000233B6105237B6191
:101DD0003B4619462F4810F0ACFA4FF00062002144
:101DE0002D48FEF795FE002200212B48FEF794FDBA
:101DF0004FF4403200212848FEF766FE4FF480720F
:101E000000212548FEF7ACFD002200212248FEF704
:101E1000CBFD4FF4806200211F48FEF7E9FD4FF42F
:101E2000006200211C48FEF707FE4FF4005200211B
:101E30001948FEF725FE00211748FEF78DFE002306
:101E4000BB614FF48273FB614FF470633B6200230C
:101E50007B620023BB624FF40073FB6200233B6391
:101E600000237B630023BB630723FB6307F1180395
:101E700019460A4810F04CFF00210848FEF763FF9E
:101E80000648FEF773FF0548FEF74DFF00BF4037D9
:101E9000BD4680BD00100240006402400034014095
:101EA00080B590B000AF07F1180328220021184632
:101EB00012F002FC3B4600221A605A609A60DA6017
:101EC0001A615A614FF40010FFF73CF90220FFF746
:101ED00009F908233B6002237B600323BB600023D6
:101EE000FB6000233B6108237B613B461946574852
:101EF00010F01FFA10233B6002237B600323BB60BA
:101F00000023FB6000233B6108237B613B461946AD
:101F10004E4810F00EFA20233B6002237B6003231F
:101F2000BB600023FB6000233B6108237B613B46D1
:101F30001946464810F0FDF94FF00072052144485B
:101F4000FEF7E6FD402205214148FEF7E5FC4FF48F
:101F5000403205213E48FEF7B7FD002205213C48EE
:101F6000FEF7FEFC002205213948FEF71DFD4FF467
:101F7000806205213648FEF73BFD002205213448EA
:101F8000FEF75AFD002205213148FEF779FD0521B3
:101F90002F48FEF7E1FD4FF0007206212C48FEF7B6
:101FA000B7FD002206212A48FEF7B6FC4FF4403266
:101FB00006212748FEF788FD002206212448FEF767
:101FC000CFFC002206212248FEF7EEFC4FF480628F
:101FD00006211F48FEF70CFD002206211C48FEF7D3
:101FE0002BFD002206211A48FEF74AFD062118485B
:101FF000FEF7B2FD0023BB614FF48273FB614FF427
:10200000E0633B6200237B620023BB624FF40073FA
:10201000FB6200233B6300237B630023BB63072336
:10202000FB6307F1180319460A4810F071FE0021FE
:102030000848FEF788FE0748FEF798FE0548FEF7B9
:1020400072FE00BF4037BD4680BD00BF00040240A5
:10205000006402400054014080B586B000AF3B1DD3
:1020600000221A605A609A60DA601A610120FFF754
:1020700069F8FEF733FB0346002200211846FEF7FD
:1020800083FB034619461920FEF754FB1920FEF77F
:1020900033FB0023BB800023BB604FF6FF73FB6064
:1020A00000233B6100237B613B1D19460C4810F067
:1020B00023FF0B48FEF78AFE00210948FEF738FF90
:1020C00000210748FEF74AFF00210548FEF759FFA7
:1020D0000348FEF769FF00BF1837BD4680BD00BF4B
:1020E0000000014080B586B000AF3B1D00221A60A1
:1020F0005A609A60DA601A610120FFF70BF8FEF768
:10210000EDFA0346002202211846FEF73DFB034686
:1021100019461C20FEF70EFB1C20FEF7EDFA0023EB
:10212000BB800023BB604FF0FF33FB6000233B61AB
:102130003B1D19464FF0804010F0DEFE4FF080400E
:10214000FEF734FE00214FF08040FEF7F1FE002143
:102150004FF08040FEF702FF4FF08040FEF724FF73
:1021600000BF1837BD4680BD80B594B000AF07F101
:102170003C0300221A605A609A60DA601A6107F123
:102180001C0320220021184612F096FA3B1D002263
:102190001A605A609A60DA601A615A610420FEF788
:1021A000B9FF0A23BB8700233B644CF250337B64A6
:1021B0004FF40073BB6407F13C031946554810F017
:1021C0009BFE5448FEF702FE00215248FEF7B0FE87
:1021D00001215048FEF75CFE6023FB6100233B6257
:1021E00000237B620023BB620023FB6207F11C0318
:1021F0001A460121474810F019FF01214548FEF712
:10220000F5FD10214348FEF743FE07F11C031A4673
:102210001021404810F00AFF10213E48FEF7E6FD6D
:102220004FF480713B48FEF733FE07F11C031A465A
:102230004FF48071374810F0F9FE4FF48071354843
:10224000FEF7D4FD4FF480513248FEF721FE07F12E
:102250001C031A464FF480512E4810F0E7FE4FF44D
:1022600080512C48FEF7C2FD00212A48FEF776FE79
:102270002848FEF799FE0820FEF734FF4FF48053FC
:102280007B600223BB600023FB6000233B610023D3
:102290007B610223BB613B1D19461F4810F049F8C2
:1022A0004FF400537B600223BB600023FB600023DC
:1022B0003B6100237B610223BB613B1D194616482D
:1022C00010F037F84FF480437B600223BB6000239B
:1022D000FB6000233B6100237B610223BB613B1D4C
:1022E00019460D4810F025F84FF400437B60022397
:1022F000BB600023FB6000233B6100237B61022362
:10230000BB613B1D1946044810F013F800BF50375D
:10231000BD4680BD00080040000C024080B5B2B050
:1023200000AF07F1AC0300221A605A609A60DA60CD
:102330001A615A619A6107F1940300221A605A6087
:102340009A60DA601A615A613B1D9022002118469A
:1023500012F0B2F94FF480537B6000233B663B1DC3
:1023600018460FF00FFA0346002B01D000F020FDB5
:102370004FF08040FEF7CEFE1020FEF7B3FE802324
:10238000C7F894300223C7F898300323C7F89C306D
:102390000023C7F8A0300123C7F8A4300823C7F8EA
:1023A000A83007F19403194628480FF0C2FF4FF4F4
:1023B0008073C7F894300223C7F898300323C7F816
:1023C0009C300023C7F8A0300023C7F8A4300823AE
:1023D000C7F8A83007F1940319461C480FF0A9FF6D
:1023E000FEF77CF9034600220B211846FEF7CCF9D4
:1023F000034619465220FEF79DF95220FEF77CF95C
:102400004FF4E133C7F8AC300023C7F8B0300023F5
:10241000C7F8B4300023C7F8B8300C23C7F8BC3075
:102420000023C7F8C0300023C7F8C43007F1AC035D
:102430001946074811F01AF90548FEF720FE04482E
:10244000FEF7C2FD00BFC837BD4680BD0010024088
:102450000078004080B5B2B000AF07F1AC030022B5
:102460001A605A609A60DA601A615A619A6107F1DB
:10247000940300221A605A609A60DA601A615A6105
:102480003B1D90220021184612F016F940237B6074
:102490000023BB643B1D18460FF074F90346002B64
:1024A00001D000F085FC1020FEF74CFE0120FEF765
:1024B00019FE4FF40073C7F894300223C7F8983020
:1024C0000323C7F89C300023C7F8A0300023C7F8C7
:1024D000A4300723C7F8A83007F1940319463548FC
:1024E0000FF027FF4FF48063C7F894300223C7F83A
:1024F00098300323C7F89C300023C7F8A03000238E
:10250000C7F8A4300723C7F8A83007F19403194689
:1025100028480FF00EFF4FF48053C7F89430022381
:10252000C7F898300323C7F89C300023C7F8A030C1
:102530000023C7F8A4300723C7F8A83007F1940395
:1025400019461C480FF0F5FE4FF4E133C7F8AC30E4
:102550000023C7F8B0300023C7F8B4300023C7F811
:10256000B8300C23C7F8BC300023C7F8C0300023B4
:10257000C7F8C43007F1AC0319460F4811F076F8DC
:102580000D48FEF759FD00210B48FEF765FD0021BF
:102590000948FEF73DFD00210748FEF725FD0648E6
:1025A000FEF76DFD0448FEF70FFD00BFC837BD46BE
:1025B00080BD00BF000002400010014080B5B2B0F5
:1025C00000AF07F1AC0300221A605A609A60DA602B
:1025D0001A615A619A6107F1940300221A605A60E5
:1025E0009A60DA601A615A613B1D902200211846F8
:1025F00012F062F84FF400637B600023FB653B1D23
:1026000018460FF0BFF80346002B01D000F0D0FBB6
:102610002020FEF797FD0420FEF764FD4023C7F855
:1026200094300223C7F898300323C7F89C30002366
:10263000C7F8A0300023C7F8A4300823C7F8A83093
:1026400007F19403194628480FF073FE8023C7F85A
:1026500094300223C7F898300323C7F89C30002336
:10266000C7F8A0300023C7F8A4300823C7F8A83063
:1026700007F1940319461C480FF05BFEFEF72EF895
:10268000034600220B211846FEF77EF80346194642
:102690004720FEF74FF84720FEF72EF84FF4E133BE
:1026A000C7F8AC300023C7F8B0300023C7F8B43007
:1026B0000023C7F8B8300C23C7F8BC300023C7F894
:1026C000C0300023C7F8C43007F1AC0319460748EF
:1026D00010F0CCFF0548FEF7D2FC0448FEF774FC6E
:1026E00000BFC837BD4680BD00080240001401404D
:1026F00080B500AF4FF48000FEF7F4FCFDF7EEFF6D
:102700000346002200211846FEF73EF8034619460C
:102710003820FEF70FF83820FDF7EEFFFDF7DEFF5B
:102720000346002200211846FEF72EF803461946FC
:102730003920FDF7FFFF3920FDF7DEFFFDF7CEFF63
:10274000034600220A211846FEF71EF803461946E2
:102750003A20FDF7EFFF3A20FDF7CEFFFDF7BEFF71
:102760000346002200211846FEF70EF803461946DC
:102770003B20FDF7DFFF3B20FDF7BEFFFDF7AEFF7F
:10278000034600220A211846FDF7FEFF03461946BC
:102790003C20FDF7CFFF3C20FDF7AEFFFDF79EFF8D
:1027A0000346002209211846FDF7EEFF03461946AD
:1027B0004420FDF7BFFF4420FDF79EFFFDF78EFF8D
:1027C0000346002201211846FDF7DEFF03461946A5
:1027D0004520FDF7AFFF4520FDF78EFF00BF80BD10
:1027E00080B586B000AF3B4600221A605A609A60FE
:1027F000DA601A615A611020FEF774FC0420FEF7BB
:1028000071FC8020FEF76EFC0120FEF76BFC0220BD
:10281000FEF768FC0820FEF765FC0421C048FEF7BF
:1028200052FC0821BE48FEF74EFC1021BC48FEF7C2
:102830004AFC2021BA48FEF746FC4021B848FEF782
:1028400042FC4FF40051B748FEF73DFC4FF4804185
:10285000B448FEF738FC4FF40041B248FEF733FCB1
:102860004FF40061B048FEF72EFC4FF40061AF4812
:10287000FEF729FC4FF40041AC48FEF724FC01218F
:10288000AB48FEF720FC0221A948FEF71CFC1021F2
:10289000A748FEF718FC2021A548FEF714FC4021AC
:1028A000A348FEF710FC04219F48FEF7FEFB4FF4FF
:1028B00080619B48FEF7F9FB4FF400619848FEF7F2
:1028C000F4FB4FF400419648FEF7EFFB4FF48061B4
:1028D0009548FEF7EAFB4FF480519348FEF7E5FB7D
:1028E0004FF480719248FEF7E0FB4FF4007190487E
:1028F000FEF7DBFB4FF480718A48FEF7D6FB4FF4FE
:1029000080718A48FEF7D1FB04218948FEF7CDFB90
:1029100080218748FEF7C9FB4FF480718248FEF79B
:10292000C4FB4FF400718048FEF7BFFB01217C48D7
:10293000FEF7BBFB02217A48FEF7B7FB04233B609E
:1029400001237B600023BB600023FB6000233B610D
:102950003B46194672480FF0ECFC08233B6001230C
:102960007B600023BB600023FB6000233B613B4690
:1029700019466B480FF0DDFC10233B6001237B60A0
:102980000023BB600023FB6000233B613B461946EC
:1029900063480FF0CEFC20233B6001237B600023C3
:1029A000BB600023FB6000233B613B4619465C484B
:1029B0000FF0BFFC40233B6001237B600023BB6022
:1029C0000023FB6000233B613B46194654480FF04F
:1029D000B0FC4FF400533B6001237B600023BB60DD
:1029E0000023FB6000233B613B4619464D480FF036
:1029F000A0FC4FF480433B6001237B600023BB605D
:102A00000023FB6000233B613B46194645480FF01D
:102A100090FC4FF400433B6001237B600023BB60CC
:102A20000023FB6000233B613B4619463D480FF005
:102A300080FC04233B6001237B600023BB600023F8
:102A4000FB6000233B613B46194637480FF071FCA1
:102A50004FF480633B6001237B600023BB60002355
:102A6000FB6000233B613B4619462D480FF061FC9B
:102A70004FF400633B6001237B600323BB600023B2
:102A8000FB6000233B613B46194625480FF051FC93
:102A90004FF400433B6001237B600023BB600023B5
:102AA000FB6000233B613B4619461D480FF041FC8B
:102AB0004FF480633B6001237B600023BB600023F5
:102AC000FB6001233B613B46194617480FF031FC80
:102AD0004FF400633B6001237B600023BB60002355
:102AE000FB6002233B613B4619460F480FF021FC77
:102AF0004FF480533B6001237B600023BB600023C5
:102B0000FB6000233B613B46194607480FF011FC70
:102B10004FF480733B6001237B6003230AE000BF16
:102B20000010024000080240000402400000024081
:102B3000000C0240BB600023FB6000233B613B466E
:102B4000194696480FF0F5FB4FF400733B600123E4
:102B50007B600323BB600023FB6000233B613B469B
:102B600019468E480FF0E5FB4FF480633B6000236D
:102B70007B6000233B613B46194688480FF0D9FB38
:102B80004FF400633B6000237B6000233B613B46C6
:102B9000194682480FF0CDFB4FF480733B60012350
:102BA0007B600023BB600023FB6001233B613B464D
:102BB00019467B480FF0BDFB4FF400733B600023C8
:102BC0007B6000233B613B46194675480FF0B1FB23
:102BD0004FF480733B6001237B600323BB600023C1
:102BE000FB6000233B613B4619466E480FF0A1FB9A
:102BF0004FF400633B6001237B600023BB60002334
:102C0000FB6000233B613B46194666480FF091FB91
:102C10004FF400433B6001237B600023BB60002333
:102C2000FB6000233B613B4619465E480FF081FB89
:102C300001233B6001237B600023BB600023FB601A
:102C400000233B613B46194654480FF072FB0223B8
:102C50003B6001237B600023BB600023FB600023FB
:102C60003B613B4619464D480FF063FB04233B6034
:102C700001237B600023BB600023FB6000233B61DA
:102C80003B46194645480FF054FB08233B600023A0
:102C90007B6000233B613B46194640480FF049FBEF
:102CA00010233B6001237B600023BB600023FB609B
:102CB00000233B613B46194638480FF03AFB20237E
:102CC0003B6001237B600023BB600023FB6000238B
:102CD0003B613B46194631480FF02BFB40233B60DC
:102CE00001237B600023BB600023FB6000233B616A
:102CF0003B46194629480FF01CFB80233B6001230B
:102D00007B600023BB600023FB6000233B613B46EC
:102D1000194622480FF00DFB4FF480733B600123EE
:102D20007B600023BB600023FB6000233B613B46CC
:102D300019461D480FF0FDFA4FF400733B60012364
:102D40007B600023BB600023FB6000233B613B46AC
:102D5000194615480FF0EDFA01233B6001237B6013
:102D60000023BB600023FB6000233B613B46194608
:102D70000E480FF0DEFA02233B6001237B60002344
:102D8000BB600023FB6000233B613B4619460748BC
:102D90000FF0CFFA00BF1837BD4680BD000C0240CF
:102DA00000080240000002400004024000100240FF
:102DB00080B400AF72B600BF00BFFDE780B483B03F
:102DC00000AF0F4B1B6C0E4A43F0805313640C4B47
:102DD0001B6C03F080537B607B68094B5B6C084A7B
:102DE00043F480435364064B5B6C03F480433B60C5
:102DF0003B6800BF0C37BD465DF8047B704700BFE1
:102E00000038024080B485B000AF78607B681B68F2
:102E10000A4A93420BD10A4B1B6B094A43F4805375
:102E20001363074B1B6B03F48053FB60FB6800BF0D
:102E30001437BD465DF8047B704700BF0030024088
:102E40000038024080B400AF00BFFDE780B400AF9F
:102E500000BFFDE780B400AF00BFFDE780B400AF66
:102E600000BFFDE780B400AF00BFFDE780B400AF56
:102E700000BFBD465DF8047B704780B400AF00BF63
:102E8000BD465DF8047B704780B400AF00BFBD460F
:102E90005DF8047B704780B500AF0DF087FC0DF046
:102EA00051FD08F023FB00BF80BD80B500AF07F0E7
:102EB000DDFD00BF80BD80B400AF00BFBD465DF842
:102EC000047B704780B500AF07F03AF800BF80BDC3
:102ED00080B500AF07F0C2F800BF80BD80B400AF7E
:102EE00001231846BD465DF8047B704780B582B06B
:102EF00000AF7860396011F03FFC034616221A607B
:102F00004FF0FF3318460837BD4680BD80B582B00C
:102F100000AF78604FF0FF317868FFF7E7FF00BF40
:102F2000FDE780B586B000AFF860B9607A60002335
:102F30007B610AE0AFF300800146BB685A1CBA60AF
:102F4000CAB21A707B6901337B617A697B689A42E5
:102F5000F0DB7B6818461837BD4680BD80B586B06B
:102F600000AFF860B9607A6000237B6109E0BB685C
:102F70005A1CBA601B781846AFF300807B69013396
:102F80007B617A697B689A42F1DB7B681846183767
:102F9000BD4680BD80B483B000AF78604FF0FF3392
:102FA00018460C37BD465DF8047B704780B483B08B
:102FB00000AF786039603B684FF400525A600023DC
:102FC00018460C37BD465DF8047B704780B483B06B
:102FD00000AF7860012318460C37BD465DF8047BCE
:102FE000704780B485B000AFF860B9607A600023A4
:102FF00018461437BD465DF8047B704780B586B02F
:1030000000AF7860144A154BD31A7B617B693B6132
:10301000134B1B68002B02D1114B124A1A60104B44
:103020001A687B6813443A699A4207D211F0A4FBEC
:1030300003460C221A604FF0FF3309E0084B1B686F
:10304000FB60074B1A687B681344054A1360FB68F2
:1030500018461837BD4680BD000008200004000057
:1030600050440020E0FA022080B400AF064BD3F8B1
:103070008830054A43F47003C2F8883000BFBD466B
:103080005DF8047B704700BF00ED00E0DFF834D04E
:10309000FFF7EAFF0C480D490D4A002302E0D4581F
:1030A000C4500433C4188C42F9D30A4A0A4C002392
:1030B00001E013600432A242FBD311F063FBFEF780
:1030C0005FF8704700000820000000201044002036
:1030D0004896010810440020E0FA0220FEE780B57F
:1030E00082B000AF7860396006F092FF06F0CEFE45
:1030F0007B6814330A220A2118460DF013FB00BF27
:103100000837BD4680BD000080B584B002AF78604E
:1031100039607B68002B03D10021124806F0EAFADF
:1031200078683B685A683B689B68009313460E4A70
:103130000E490DF069FA7B6814337A681A21184633
:103140000DF0CEFA3B681A687B685A627B680022F1
:103150001A877B68143318460DF004FB00BF08374C
:10316000BD4680BDB08B0108D5310008DF300008B6
:1031700080B586B002AF02230093042308220949D8
:1031800009480CF087FF094A3B1D07CA83E807007E
:103190003B1D19460648FFF7B7FF00BF1037BD4675
:1031A00080BD00BFB0440020904400204866010864
:1031B0005444002080B582B000AF0346FB71FB7918
:1031C000194603480DF03AFA00BF0837BD4680BDE6
:1031D0005444002090B589B004AF78603960012074
:1031E00006F0ACF83B681B881A2B06D01A2B40DC83
:1031F000182B08D0192B1DD03BE006F017FF06F066
:1032000095FE012336E00023FB730EE0FB7BFC7B85
:10321000184606F011FF034619467B6804F11402B4
:1032200023F81210FB7B0133FB73FB7B072BEDD9DB
:1032300001231FE006F012FE03461AB27B681A87CC
:1032400006F000FE03461AB27B685A870B4BBB6040
:103250007B68B3F938301A467B68B3F93A30029389
:10326000019261230093064BBA68064906480CF0A8
:103270007AFE022318461437BD4690BD54660108F5
:103280005C66010884660108904D012080B483B01B
:1032900000AF7860054A7B681C3332F9133018465A
:1032A0000C37BD465DF8047B704700BF54440020D6
:1032B00080B487B000AFF860B96011461A460B467B
:1032C000FB801346BB80164AFB68143332F9133077
:1032D000BB82134ABB68143332F91330FB82B7F94F
:1032E0001430B7F904209A4210DCB7F91430B7F95A
:1032F00006209A420ADBB7F914301A46B7F916309D
:10330000D31A002BB8BF5B42322B01DD012300E052
:10331000002318461C37BD465DF8047B704700BF8C
:103320005444002080B483B000AF7860054A7B68C5
:10333000143332F9133018460C37BD465DF8047B60
:10334000704700BF5444002080B500AF00F0B0F8D3
:1033500004F042F804F048FEFFF70AFF02F038FBE1
:1033600000F08AFF04F07EFC06F044F900BF80BD47
:1033700080B500AF012000F0BDF8042004F05EF835
:10338000022004F057FE0320FFF714FF052002F08F
:1033900041FB072000F096FF082004F0A3FC0A2060
:1033A00006F070F900BF80BD80B500AF0DF0DEF80B
:1033B00000BF80BD80B582B000AF7860396006F094
:1033C00083FC07F0B5FC07F039F97B68012283F82C
:1033D0005D207B68002283F8622000BF0837BD466D
:1033E00080BD000080B584B000AF786039607B6834
:1033F0005B69FB607B685B6939687868984703465E
:10340000FB72FB7A002B08D1FB6806497868984765
:103410007B685B6904497868984700BF1037BD46F0
:1034200080BD00BFE08B0108CC8B010880B584B063
:1034300002AF786039607B68002B03D10021194806
:1034400006F058F978683B685A683B689B680093B7
:103450001346154A15490DF0D7F83B681A687B6882
:103460005A617B6818337A681B2118460DF038F9C9
:103470007B6828337A68252118460DF031F97B687E
:10348000283318460DF06EF97B68183318460DF096
:1034900069F93B681A7B7B6883F8582000BF0837BE
:1034A000BD4680BDBC8B0108E5330008B53300087C
:1034B00090B587B002AF122300930A23B4220949C2
:1034C00009480CF0E7FD094B3C460FCB84E80F00A0
:1034D0003B4619460648FFF7A9FF00BF1437BD4613
:1034E00090BD00BF54450020244500209866010887
:1034F000B844002080B582B000AF0346FB71FB7971
:10350000194603480DF09AF800BF0837BD4680BD44
:10351000B844002080B582B000AF786039603B6865
:103520001B88013B1D2B55D801A252F823F000BF88
:10353000A9350008D5350008D5350008D53500086F
:10354000D5350008D5350008D5350008D535000833
:10355000D5350008D5350008D5350008D535000823
:10356000D5350008D5350008D5350008D535000813
:10357000D5350008D5350008D5350008D535000803
:10358000D5350008D5350008D5350008D5350008F3
:10359000D5350008D5350008D5350008B735000801
:1035A000C1350008CB3500087B68183318460DF08C
:1035B000D9F801230FE07B68094A5A6100230AE029
:1035C0007B68084A5A61002305E07B68064A5A6115
:1035D000002300E0022318460837BD4680BD00BF27
:1035E000ED350008AD380008C939000890B591B034
:1035F00002AF786039603B681B88013B242B00F2E6
:10360000358101A252F823F09D3600086D3800087C
:10361000333700086D3800086D3800086D38000831
:103620006D3800086D3800086D3800086D380008E6
:103630006D3800086D3800086D3800086D380008D6
:103640006D3800086D3800086D3800086D380008C6
:103650006D3800086D3800086D3800086D380008B6
:103660006D3800086D3800086D3800086D380008A6
:103670001F3800086D3800086D3800086D380008E4
:103680005F37000893370008C73700086D38000817
:103690006D3800086D38000831380008764B3B6201
:1036A000AA230093754B3A6A754976480CF05BFC87
:1036B0007B681833002244F6206118460DF032F87A
:1036C0007B6893F83C301946786800F0D7FA786840
:1036D00000F0EDFA7B68DB8FFB607B68B3F840306D
:1036E0003B617B68B3F842307B617B689B6BBB615D
:1036F0007B6893F83C30FB617B6893F83D3018465B
:1037000006F04CFB07F10C03184606F05DFF7B68E2
:1037100028330122012118460DF004F85A4B0022EB
:103720001A8007F057F97B68002283F8582001239C
:103730009DE0514B7B62C3230093504B7A6A5349FF
:1037400050480CF010FC7B68183318460DF00AF84E
:103750007B68283318460DF005F8012387E0464BB7
:10376000BB62D9230093454BBA6A494945480CF0DE
:10377000FAFB7B6893F85830002B04D17B68012258
:1037800083F8582003E07B68032283F85820012344
:103790006DE0394BFB62E4230093384BFA6A3D49F4
:1037A00038480CF0E0FB7B6893F85830012B04D1CB
:1037B0007B68022283F8582003E07B68032283F8A9
:1037C0005820012353E02C4B7B63EE2300932B4BBB
:1037D0007A6B31492B480CF0C6FB7B6893F8583064
:1037E000022B04D17B68052283F8582003E07B6814
:1037F000032283F85820204B3B63F42300931F4B94
:103800003A6B26491F480CF0AEFB254B1B68184647
:1038100000F03AFE7B68234A5A61002327E07B6868
:10382000042283F858207B681E4A5A6100231EE058
:10383000154B1B88B3F5804F0ED2134B1B885A1CB7
:1038400091B2114A11801C4606F014FB03461A4639
:10385000154B23F8142007E00B4B00221A807B68DD
:10386000283318460CF07EFF012300E0022318469F
:103870003C37BD4690BD00BFA8660108B066010890
:10388000D8660108904D012018460120F86601080D
:10389000346701086067010888670108B467010898
:1038A000080000201535000818C6002080B582B039
:1038B00000AF786039603B681B88242B1ED0242B16
:1038C00073DC232B3ED0232B6FDC012B02D0222B69
:1038D0002BD06AE07B68183318460CF043FF7B68F6
:1038E0001B6D344A53607B68DB6C324A1360324B89
:1038F0001B68184604F038F9012357E02D4B5B682C
:10390000B3F5804F28BF4FF480439AB22B4B1A80F7
:10391000284B1B685B00294A128852001146284A2E
:10392000184607F05BFA012340E0234B1868234B4D
:103930001B881A467B6893F85530214904F0F0F84B
:10394000012333E01B4B5B681C4A12889B1A194AFF
:103950005360184B1B68194A12881344154A1360A8
:10396000144B5B68002B16D0124B5B68B3F5804F8D
:1039700028BF4FF480439AB2104B1A800D4B1B683E
:103980005B000E4A1288520011460D4A184607F095
:1039900025FA01230AE0084B1B68184604F0F4F8E6
:1039A0007B68084A5A61002300E002231846083762
:1039B000BD4680BD084600200400002014C600203B
:1039C000144600201535000880B586B002AF786037
:1039D00039603B681B88012B02D0222B1BD032E0C0
:1039E0001B4BBB6040F2511300931A4BBA681A4943
:1039F0001A480CF0B8FA7B68183318460CF0B2FE7F
:103A00007B68DB6C5B00164A4FF40041184607F0F8
:103A1000E5F9012318E00E4BFB6040F259130093C7
:103A20000C4BFA680F490D480CF09DFA0C4807F052
:103A3000FBFB0D4B1B68184604F0CCF97B680B4A66
:103A40005A61002300E0022318461037BD4680BDAE
:103A5000A8660108B0660108D0670108904D0120F2
:103A600014460020EC6701080C0000201535000802
:103A700080B584B000AFF860B9607A60FB70FB6815
:103A8000BA68DA64FB687A681A65FB68FA7883F8C2
:103A90005520084B1B684FF6FF72A3F84220FB68C5
:103AA000054918460CF0F4FD002318461037BD46B2
:103AB00080BD00BF04000020088C010880B582B0E2
:103AC00000AF78607B680022DA647B684FF4804244
:103AD0001A657B68012283F85520084B1B684FF656
:103AE000FF72A3F842207B68054918460CF0D0FD10
:103AF000002318460837BD4680BD00BF04000020E3
:103B0000088C010880B582B000AF78607B680449FA
:103B100018460CF0BDFD002318460837BD4680BD91
:103B2000308C010880B582B000AF78607B680449B2
:103B300018460CF0ADFD002318460837BD4680BD81
:103B4000448C010880B582B000AF78607B6804497E
:103B500018460CF09DFD002318460837BD4680BD71
:103B6000588C010880B584B000AFF860B9607A6005
:103B7000BB68012B02D87B68642B01D9062318E0AF
:103B8000FB6893F85D30002B06D0002006F058F853
:103B9000FB68002283F85D207968B86806F03EF97A
:103BA0007B68D9B2FA68BB68134459330A461A7065
:103BB000002318461037BD4680BD80B582B000AFE7
:103BC000786039603B68242B01D9062314E07B68B8
:103BD00093F85D30012B06D0012006F031F87B68A8
:103BE000012283F85D20386806F0A4F83B68DAB259
:103BF0007B6883F85B20002318460837BD4680BDEC
:103C000080B582B000AF786039603B68082B01D97D
:103C1000062314E07B6893F85D30012B06D0012069
:103C200006F00EF87B68012283F85D20386806F004
:103C30009BF83B68DAB27B6883F85C200023184667
:103C40000837BD4680BD80B582B000AF78607B6824
:103C500093F85D30012B06D0012005F0F1FF7B6861
:103C6000012283F85D2006F08FF87B68FF2283F83D
:103C70005C20002318460837BD4680BD80B582B061
:103C800000AF786039603B68242B01D906230AE035
:103C900006F064FD386806F089FD3B68DAB27B689F
:103CA00083F85E20002318460837BD4680BD80B5E6
:103CB00082B000AF786006F065FD00231846083733
:103CC000BD4680BD80B483B000AF786039603B688A
:103CD0001B68002B04D03B681B68164A934201D92D
:103CE000062321E03B68DB68B3F5006F01D90623AA
:103CF0001AE03B681A687B689A633B68DA887B68DD
:103D0000DA873B681A897B68A3F840203B685A89A8
:103D10007B68A3F842203B68DA687B685A643B689A
:103D20001A697B689A64002318460C37BD465DF813
:103D3000047B704700350C0080B483B000AF78601E
:103D400039603B685B79642B01D9062305E03B6849
:103D50005A797B6883F83D20002318460C37BD460E
:103D60005DF8047B704780B483B000AF7860396041
:103D70003B681B79002B03D03B681B79242B01D9AE
:103D8000062305E03B681A797B6883F83C20002312
:103D900018460C37BD465DF8047B7047B0B483B05D
:103DA00000AF786039603B681B68002B04D03B682B
:103DB0001B68184A934201D9062326E03B681B7909
:103DC000002B03D03B681B79242B01D906231CE070
:103DD0003B685B79642B01D9062316E03B68DB68FE
:103DE000B3F5006F01D906230FE03B681B69002B78
:103DF00001D1062309E07B683A6803F138041546CF
:103E00000FCD0FC42B682360002318460C37BD4626
:103E1000B0BC704700350C00B0B483B000AF786020
:103E200039603A687B68154603F138040FCC0FC53A
:103E300023682B6000BF0C37BD46B0BC7047000044
:103E400080B584B000AF78607B683833FB60FB6876
:103E50001B68002B04D0FB681B68134A934201D9EE
:103E600006231CE0FB681B79002B03D0FB681B7941
:103E7000242B01D9062312E0FB685B79642B01D95E
:103E800006230CE0FB68DB68B3F5006F01D906235D
:103E900005E07B68054918460CF0FAFB002318463C
:103EA0001037BD4680BD00BF00350C00F48B010803
:103EB00080B582B000AF78600B467B807B889B0327
:103EC0001A467B68DA647B684FF480421A657B6827
:103ED000012283F854207B68044918460CF0D8FB73
:103EE000002318460837BD4680BD00BF1C8C010862
:103EF00080B582B000AF7860064807F095F9064BB0
:103F00001B68184603F066FF002318460837BD46B5
:103F100080BD00BF18C600200C00002080B483B014
:103F200000AF786039607B683A689A6100BF0C37EF
:103F3000BD465DF8047B704780B483B000AF786005
:103F400039603B681A047B689A6100BF0C37BD4634
:103F50005DF8047B7047000080B582B000AF7860E8
:103F60000B46FB707B68FA78114618460BF0F4FD9F
:103F700000F0DEFA02467B68C3F804227B68002268
:103F800083F80C227B68012283F80D22FB78032B37
:103F900004D8FB7806497A6841F823207B68012120
:103FA00018460BF07BFA00BF0837BD4680BD00BF46
:103FB0002049012080B582B000AF78607A687B68C4
:103FC00093F80032194610460BF0C6FD7B680121BC
:103FD00018460BF063FA00F0ABFA02467B68C3F8B0
:103FE00004227B68002283F80C2200BF0837BD46FC
:103FF00080BD80B483B000AF786039607B683A6878
:10400000C3F8082200BF0C37BD465DF8047B70473B
:1040100080B586B000AFF860B9607A60FB687A68F6
:10402000B96818460BF0F2FC00F082FA7861FB6880
:1040300093F8E230002B35D0FB6893F8E4301A4651
:1040400013465B0013449B00FA6813443B613B69D1
:104050001B687A69D31A40F6B83293421ED9FB68BE
:1040600093F80C3283F00103DBB2002B1AD0FB680B
:10407000D3F80832002B04D0FB68D3F80832F86874
:104080009847FB68012283F80C22FB6893F80D32F5
:10409000002B07D0F868FFF78DFF03E0FB680022D4
:1040A00083F80C22FB687A69C3F8042200BF183732
:1040B000BD4680BD80B483B000AF786000BF0C37D0
:1040C000BD465DF8047B704780B500AF4FF4807249
:1040D000084909480CF004F94FF480720749084870
:1040E0000CF0FEF8064B044A064907480BF03AFE6E
:1040F00000BF80BD584A0120304A0120584B0120A2
:10410000444A012000780040584C012080B582B01C
:1041100000AF786039607B68002B03D101210F4824
:1041200005F0E8FA7B680E4A9A610E490C48FFF7E1
:1041300060FF7B6824330A220A2118460CF0F2FA49
:1041400009480BF02BFE7B689B6900211846FFF79E
:1041500003FF00BF0837BD4680BD00BF6C8C01085F
:1041600010470120B5400008584C012080B584B0AC
:1041700000AF786039607B68002B03D104211248BE
:1041800005F0B8FA3B68002B03D105210E4805F075
:10419000B1FA7B685B69FB607B685B69396878684A
:1041A00098470346FB72FB7A002B08D1FB6807494E
:1041B000786898477B685B6905497868984700BFCD
:1041C0001037BD4680BD00BF6C8C0108848C01088F
:1041D000788C010880B584B002AF786039607B6864
:1041E000002B03D10221214805F084FA78683B684E
:1041F000DA683B681B69009313461D4A1D490CF0A1
:1042000003FA7B6824337A680D2118460CF068FAAB
:104210007B6834337A68102118460CF061FA7B68A9
:1042200044337A68112118460CF05AFA3B681A6830
:104230007B685A613B685A687B689A613B689A68F8
:104240007B68DA617B68243318460CF08BFA7B6854
:10425000343318460CF086FA7B68443318460CF069
:1042600081FA00BF0837BD4680BD00BF6C8C0108D5
:104270006D4100080D410008B0B588B002AFFFF7EE
:1042800023FF0C2300930A2378220A490A480BF0E3
:1042900001FF0A4B3C1D1D460FCD0FC42B68236048
:1042A0003B1D19460648FFF795FF00BF1837BD466E
:1042B000B0BD00BF98460120704601200C6801087F
:1042C0001C46012080B582B000AF0346FB71FB792C
:1042D000194603480CF0B2F900BF0837BD4680BD4F
:1042E0001C46012080B586B002AF786039607B68DB
:1042F000002B03D103214F4805F0FCF93B681B88D4
:10430000013B102B00F2918001A252F823F000BF74
:10431000554300082B4400082B4400082B44000898
:104320002B4400082B4400082B4400082B440008B1
:104330002B4400082B4400082B4400082B440008A1
:1043400067430008AD430008E9430008E94300085B
:10435000234400087B6824330A220A2118460CF003
:10436000E1F9012362E0032004F0E8FF324B4FF44F
:1043700080721A607B68DB692F4A304918460BF05F
:104380002DFD0346002B08D07B689B692A4A1268E2
:104390002A491846FFF73CFE06E07B689B6900222D
:1043A00000211846FFF734FE01233FE07B682433E9
:1043B00018460CF0D7F94FF400612148FFF7AEFD25
:1043C000204BBB60C92300931F4BBA681F4920488C
:1043D0000BF0C9FD7B683433002244F62061184697
:1043E0000CF0A0F9012321E07B68343318460CF06F
:1043F000B9F94FF400611248FFF79EFD114BFB60C5
:10440000D1230093104BFA68124911480BF0ABFD11
:104410007B6824330A220A2118460CF083F9012311
:1044200004E005F0A7F8012300E002231846103746
:10443000BD4680BD6C8C0108100000203049012071
:104440000004024020680108286801084C6801083F
:10445000904D01208068010880B586B000AF78607B
:1044600007F10C0300221A605A609A600E23BB8188
:104470007B6807F10C02114618460CF009F900237D
:1044800018461837BD4680BD80B586B000AF78604D
:1044900007F10C0300221A605A609A600F23BB8157
:1044A0007B6807F10C02114618460CF0F1F8002366
:1044B00018461837BD4680BD80B582B000AF786021
:1044C0007B68443300224FF47A7118460CF02AF9C5
:1044D000002318460837BD4680BD000080B582B075
:1044E00000AF0346FB71064BDB699B6818460BF077
:1044F000FFFF03469BB218460837BD4680BD00BF8C
:104500001C46012080B582B000AF03460A46FB710D
:104510001346BB71054BDB69BA79114618460BF09F
:10452000DCFC00BF0837BD4680BD00BF1C46012033
:1045300080B500AF0CF088F90346184680BD000036
:1045400080B586B000AF396011461A460346FB714C
:104550000B46BB7113467B717B79032B34D87B7977
:104560001C4A52F823303B613B69002B2ED01A4B7A
:104570001B68002B05D0184B1B68BA79F87939688D
:10458000984701F0ABF9F86001F0B2F9B860002388
:104590007B6114E07B69DB00FA6813441B78FA79CD
:1045A0009A4209D17B69DB00FA6813445B68BA79E7
:1045B0003968386998470AE07B6901337B617A6919
:1045C000BB689A42E6DB02E000BF00E000BF18379C
:1045D000BD4680BD20490120684C012080B584B0D3
:1045E00000AFF8607A601A460B46FB721346BB7246
:1045F000FB68BA7A114618460AF0ACFF0346002B56
:1046000005D0F868BB7AF97A7A680AF05BFF00BFD8
:104610001037BD4680BD000080B500AF074BDB6999
:1046200018460BF0D5FC054BDB6918460BF0FFFC78
:10463000034B4FF0FF321A6200BF80BD1C460120C1
:104640000078004080B588B002AFF860B9601346CA
:10465000FB71002300220121F868FFF7BFFF0A4B1E
:104660007B61FB79019349230093084B7A690849E0
:1046700008480BF078FC084B1B681846FFF71CFF36
:1046800000BF1837BD4680BDB4680108BC6801088A
:10469000E8680108904D01201400002080B58AB020
:1046A00004AFF860B9601346FB71BB681B781A064B
:1046B000BB6801331B781B041A43BB6802331B78A9
:1046C0001B021343BA680332127813437B61FB79F0
:1046D000BA680321F868FFF781FF094B3B61FB795A
:1046E0007A690292019355230093064B3A69064971
:1046F00006480BF038FC00BF1837BD4680BD00BF30
:10470000B4680108BC68010804690108904D0120E3
:1047100080B58CB006AFF860B9601346FB71BB681A
:104720001B78FB75BB6801331B78BB75BB68023314
:104730001B787B75BB6803331B783B75FB79BA68C4
:104740000521F868FFF74AFF3B7D7A7DB97DF87D4A
:1047500006F0A4FE0A4B3B61FB7DBA7D797D387D76
:10476000049003910292019363230093054B3A69ED
:10477000054906480BF0F7FB00BF1837BD4680BD62
:10478000B4680108BC6801083C690108904D01202B
:1047900080B58AB002AFF860B9601346FB71FF23A1
:1047A0003B75BB681B78FB770E4B1B68FA7F114685
:1047B000184603F03DFB07F1140201230921F868B4
:1047C000FFF70CFF084BBB61FB7F01936C23009349
:1047D000064BBA69064907480BF0C5FB00BF2037F6
:1047E000BD4680BD20000020B4680108BC680108F7
:1047F00064690108904D012090B5A3B008AFF8603E
:10480000B9601346FB714FF63F73BB820023A7F8D4
:104810006630BB681B781BB21B021AB2BB6801333F
:104820001B781BB21343A7F86430BB6802331B78B4
:104830001BB21B021AB2BB6803331B781BB21343B3
:10484000A7F86230BB6804331B781BB21B021AB294
:10485000BB6805331B781BB21343A7F86030BB68F5
:1048600006331B7887F85F30BB6807331B7887F8FF
:104870005E30BB6808331B7887F85D30BB6809334E
:104880001B7887F85C30BB680A331B7887F85B308D
:10489000BB680B331B781BB21B021AB2BB680C330C
:1048A0001B781BB213431BB2A7F85830BB680D33FB
:1048B0001B7887F8573097F85F30072B0ED9B7F879
:1048C00066300133A7F86630844B3B658123009343
:1048D000834B3A6D834984480BF045FB97F85E3073
:1048E000072B0ED9B7F866300133A7F866307B4B3B
:1048F000FB64862300937A4BFA6C7C497A480BF070
:1049000032FB97F85C300F2B0ED9B7F866300133C5
:10491000A7F86630714BBB648B230093704BBA6C65
:10492000734971480BF01FFB97F85B300F2B0ED9C2
:10493000B7F866300133A7F86630684B7B64902384
:104940000093674B7A6C6B4967480BF00CFBB7F828
:104950006630002B40F0A880674B1868B7F86410E9
:10496000B7F86220B7F8604097F857300693B7F869
:104970005830059397F85B30049397F85C300393B5
:1049800097F85D30029397F85E30019397F85F30A7
:104990000093234604F0D4FB504B3B64B7F96430DA
:1049A0000193962300934E4B3A6C54494E480BF0BA
:1049B000DAFA4A4BFB63B7F962300193972300930D
:1049C000474BFA6B4E4948480BF0CDFA434BBB635B
:1049D000B7F96030019398230093414BBA6B494972
:1049E00041480BF0C0FA3D4B7B6397F85F30019371
:1049F000992300933A4B7A6B43493B480BF0B3FA47
:104A0000364B3B6397F85E3001939A230093344B07
:104A10003A6B3E4934480BF0A6FA304BFB6297F8EC
:104A20005D30002B01D13A4B00E03A4B01939B23C0
:104A300000932B4BFA6A38492B480BF094FA274B1A
:104A4000BB6297F85C3001939C230093244BBA6AB5
:104A5000324925480BF087FA204B7B6297F85B3090
:104A600001939D2300931E4B7A6A2D491E480BF03B
:104A70007AFA1A4B3B62B7F8583001939E230093A1
:104A8000174B3A6A274918480BF06DFA134BFB6134
:104A900097F8573001939F230093114BFA692249ED
:104AA00011480BF060FA03E03E233B753E237B7513
:104AB00007F1140202230B21F868FFF78FFD074B63
:104AC000BB61A7230093064BBA69184906480BF04F
:104AD0004AFA00BF6C37BD4690BD00BFB4680108FC
:104AE000BC68010888690108904D0120B46901087B
:104AF000E06901080C6A010818000020386A010802
:104B0000546A0108706A01088C6A0108A86A0108E1
:104B1000C46A0108C86A0108CC6A0108EC6A010885
:104B2000106B0108346B0108506B01086C6B0108B5
:104B300080B588B002AFF860B9601346FB71FF23FF
:104B4000FB740D4B7B61AD2300930C4B7A690C49D0
:104B50000C480BF008FA0C4B1B68184603F038FEA3
:104B600007F1130201230D21F868FFF737FD00BF9D
:104B70001837BD4680BD00BFB4680108BC68010895
:104B8000906B0108904D01201800002080B588B07E
:104B900002AFF860B9601346FB71FF23FB740D4B45
:104BA0007B61B52300930C4B7A690C490C480BF0E0
:104BB000DAF90C4B1B68184603F0EEFD07F11302FF
:104BC00001230F21F868FFF709FD00BF1837BD4624
:104BD00080BD00BFB4680108BC680108BC6B010857
:104BE000904D01201800002080B592B002AFF8600F
:104BF000B9601346FB714FF63F73BB82002387F801
:104C00003F30BB681B781B02BA680132127813432D
:104C10009BB21A465201D21A92001344DB00BB87A2
:104C2000BB6802331B7887F83B30BB6803331B78C3
:104C30001BB21B021AB2BB6804331B781BB21343AE
:104C40001BB23B87BB8F4EF6602293420ED997F87A
:104C50003F30013387F83F30584B7B63C5230093C7
:104C6000574B7A6B574958480BF07DF997F83B3012
:104C7000042B0FD997F83F30013387F83F304F4B63
:104C80003B62CB2300934E4B3A6A50494E480BF09F
:104C90006AF949E097F83B30042B21D107F114025F
:104CA00002231121F868FFF799FC494B1B68042186
:104CB000184604F05FF8414BBB62D1230093404B90
:104CC000BA6A444940480BF04EF93C4B7B62D22310
:104CD00000933B4B7A6A40493B480BF044F96AE049
:104CE0003B4B1B68184603F090FE034687F83330B1
:104CF00097F8332097F83B3042FA03F303F00103AF
:104D0000002B11D097F83F30013387F83F302B4B01
:104D1000FB6297F83B300193DB230093284BFA6A40
:104D20002E4929480BF01FF93B8FB3F5FA7F04D3C6
:104D30003B8F40F6B832934210D997F83F30013399
:104D400087F83F301D4BFB613B8F0193E2230093BB
:104D50001B4BFA6922491C480BF005F997F83F30C4
:104D6000002B13D1BB8F184600F0EEFE184B1B68CA
:104D700097F83B201146184603F0FCFF144B1B68C4
:104D80003A8F1146184604F00EF803E03E233B75B7
:104D90003E237B7507F1140202231121F868FFF707
:104DA0001DFC064BBB61F2230093054BBA690A490F
:104DB00005480BF0D8F84037BD4680BDB4680108FF
:104DC000BC680108E86B0108904D0120206C0108C7
:104DD000180000204C6C01087C6C0108A86C0108CC
:104DE000D06C010880B588B002AFF860B960134696
:104DF000FB71FF23FB7407F1130201231321F868F1
:104E0000FFF7ECFB074B7B61F9230093064B7A69B4
:104E1000064907480BF0A7F800F05AFE00BF183704
:104E2000BD4680BDB4680108BC680108046D010876
:104E3000904D012080B588B002AFF860B96013468C
:104E4000FB71FF23FB7407F1130201231521F8689E
:104E5000FFF7C4FB084B7B6140F201130093074B43
:104E60007A69074907480BF07EF800F055FE00BF4D
:104E70001837BD4680BD00BFB4680108BC68010892
:104E8000286D0108904D012080B59AB002AFF860FE
:104E9000B9601346FB71864BBB6540F20713009364
:104EA000844BBA6D844985480BF05DF84FF63F732B
:104EB0003B850023A7F85E30BB681B781A06BB68E9
:104EC00001331B781B041A43BB6802331B781B0297
:104ED0001343BA680332127813437B65BB6804330B
:104EE0001B781B029BB2BA68053212781343A7F8ED
:104EF0005230BB6806331B781B029BB2BA6807327C
:104F000012781343A7F85030BB6808331B781B0294
:104F10009BB2BA68093212781343A7F84E307B6D02
:104F2000B3F57A7F03D37B6D654A93420FD9B7F807
:104F30005E300133A7F85E305D4BBB6440F2131363
:104F400000935C4BBA6C5F495C480BF00CF8B7F807
:104F50005230002B0FD1B7F85E300133A7F85E3026
:104F6000534B7B6440F219130093524B7A6C5649B1
:104F700052480AF0F8FFB7F85030002B0FD1B7F8BD
:104F80005E300133A7F85E30494B3B6440F21F139B
:104F90000093484B3A6C4D4948480AF0E4FFB7F893
:104FA0004E30002B0FD1B7F85E300133A7F85E30DA
:104FB0003F4BFB6340F2251300933E4BFA6B444991
:104FC0003E480AF0D0FFB7F85220B7F850301A44E4
:104FD000B7F84E3013441A467B6D02FB03F33D4A8B
:104FE000A2FB03239B0CBB63BB6BB3F5006F0FD914
:104FF000B7F85E300133A7F85E302D4B7B634FF47A
:10500000967300932B4B7A6B33492C480AF0ABFF15
:10501000B7F85E30002B3AD17B6D7B61B7F8523028
:105020007B83B7F85030BB83B7F84E30FB83BB6B44
:105030003B622A4A7B6DB2FBF3F37B62284B1B6811
:1050400007F1140211461846FEF73CFE0346002BFA
:105050000BD1174BFB624FF49D730093154BFA6A0B
:10506000204916480AF07FFF17E03E2387F82830D2
:105070003E2387F829300E4B3B634FF4A073009317
:105080000C4B3A6B18490D480AF06DFF05E03E23C2
:1050900087F828303E2387F8293007F128020223B9
:1050A0001721F868FFF79AFA00BF6037BD4680BD48
:1050B000B4680108BC6801084C6D0108904D0120DE
:1050C00000350C006C6D0108A06D0108D06D010861
:1050D000006E010883DE1B43306E010840420F0062
:1050E0001C000020646E0108846E010880B590B039
:1050F00002AFF860B9601346FB714FF63F73BB8493
:10510000BB681B7887F8373097F83730642B11D994
:105110003E2387F824303E2387F82530244BBB629A
:105120004FF4AA730093234BBA6A234923480AF029
:105130001AFF39E0224B1B6807F11002114618468E
:10514000FEF76AFE97F837307B751D4B1B6807F139
:10515000100211461846FEF7EFFD0346002B0BD157
:10516000134BFB6240F25F130093124BFA6A15492E
:1051700012480AF0F8FE10E03E2387F824303E2360
:1051800087F825300A4B3B6340F265130093094BC7
:105190003A6B0D4909480AF0E6FE07F124020223A2
:1051A0001921F868FFF71AFA3837BD4680BD00BFED
:1051B000B4680108BC680108A46E0108904D012084
:1051C0001C000020D06E0108FC6E010880B590B074
:1051D00002AFF860B9601346FB714FF63F73BB84B2
:1051E000BB681B7887F8373097F83730242B03D803
:1051F00097F83730002B11D13E2387F824303E2317
:1052000087F82530244BBB6240F273130093234B85
:10521000BA6A234923480AF0A6FE32E0224B1B68F3
:1052200007F1100211461846FEF7F6FD97F83730E1
:105230003B751D4B1B6807F1100211461846FEF71F
:1052400092FD0346002B0BD1134BFB6240F27D1302
:105250000093124BFA6A154912480AF084FE10E0D6
:105260003E2387F824303E2387F825300A4B3B63E2
:1052700040F283130093094B3A6B0D4909480AF039
:1052800072FE07F1240202231B21F868FFF7A6F93A
:1052900000BF3837BD4680BDB4680108BC6801084E
:1052A000286F0108904D01201C000020546F010858
:1052B000786F010880B58AB002AFF860B960134614
:1052C000FB713F233B75184B1B681846FEF7B8FD72
:1052D0000346002B0DD03E233B75144BBB6140F2BF
:1052E0008F130093124BBA69124913480AF03BFE20
:1052F0000FE0124B1B681846FFF7AEF80B4BFB6133
:105300004FF4CA7300930A4BFA690D490A480AF030
:105310002AFE07F1140201231D21F868FFF75EF948
:1053200000BF2037BD4680BD1C000020B4680108C6
:10533000BC6801089C6F0108904D012014000020FA
:10534000C46F010880B590B002AFF860B960134631
:10535000FB71254B1B6807F1140211461846FEF736
:105360005BFD3B6A002B11D1002387F82830002316
:1053700087F829301D4BFB6240F2A31300931C4BAE
:10538000FA6A1C491C480AF0EEFD21E03B6A1B0941
:10539000FB863B6A03F00F03002B02D0FB8E013328
:1053A000FB86124B3B63FB8E01934FF4D573009346
:1053B0000F4B3A6B114910480AF0D5FDFB8E1B0AC2
:1053C0009BB2DBB287F82830FB8EDBB287F829303E
:1053D00007F1280202231F21F868FFF7FFF800BF3A
:1053E0003837BD4680BD00BF1C000020B4680108EE
:1053F000BC680108EC6F0108904D01200C70010899
:1054000080B590B002AFF860B9601346FB714FF6FB
:105410003F73BB84BB681B7887F83530304B1B6803
:1054200007F1100211461846FEF7F6FCFB691B094E
:10543000FB86FB6903F00F03002B02D0FB8E0133C8
:10544000FB86FB8E002B11D13E2387F824303E23B0
:1054500087F82530234BBB624FF4DF730093224B58
:10546000BA6A224922480AF07EFD2EE097F83530CC
:105470009BB2FA8E9A4211D83E2387F824303E23FD
:1054800087F82530174BFB624FF4E2730093164BFD
:10549000FA6A184916480AF066FD16E0104B1B68B8
:1054A00097F8352092B211461846FEF701FD0D4BD4
:1054B0003B6397F83530019340F2C91300930A4BD0
:1054C0003A6B0D490A480AF04EFD07F12402022307
:1054D0002121F868FFF782F800BF3837BD4680BD4C
:1054E0001C000020B4680108BC6801083070010885
:1054F000904D01204C7001087470010880B58CB08B
:1055000004AFF860B9601346FB7105F0FFFEF86167
:10551000FB691B0EDBB23B75FB691B0CDBB27B75B9
:10552000FB691B0ADBB2BB75FB69DBB2FB7507F1DC
:10553000140204232321F868FFF750F80A4BBB61DB
:10554000BB681B781A46FB69029301924FF4EC7317
:105550000093064BBA69064906480AF004FD00BFED
:105560002037BD4680BD00BFB4680108BC68010893
:10557000A0700108904D012080B588B002AFF8609E
:10558000B9601346FB714FF63F733B820D4B1B68AE
:105590001846FEF7ADFC0C4B7B6140F2DF13009325
:1055A0000A4B7A690A490B480AF0DDFC07F1100240
:1055B00002232521F868FFF711F800BF1837BD4610
:1055C00080BD00BF1C000020B4680108BC68010851
:1055D000CC700108904D012080B58CB004AFF8600C
:1055E000B9601346FB7105F091FEF861FB691B0E73
:1055F000DBB23B75FB691B0CDBB27B75FB691B0ADD
:10560000DBB2BB75FB69DBB2FB7507F11402042347
:105610002721F868FEF7E2FF0A4BBB61BB681B78E5
:105620001A46FB690293019240F2ED130093064B78
:10563000BA69064906480AF096FC00BF2037BD4605
:1056400080BD00BFB4680108BC680108F87001089B
:10565000904D012080B58AB002AFF860B960134662
:10566000FB714FF63F733B82BB681B78FB83B7F936
:105670001E30642B0FDD3E233B743E237B74164BA0
:105680007B614FF4FC730093144B7A6914491548FD
:105690000AF069FC15E0144B1B68B7F91E200121C4
:1056A0001846FEF75FFA0C4BBB61B7F91E30019349
:1056B00040F2FD130093094BBA690C4909480AF0FE
:1056C00052FC07F1100202232921F868FEF786FF39
:1056D00000BF2037BD4680BDB4680108BC68010822
:1056E00020710108904D01201C0000204C71010820
:1056F00080B58AB002AFF860B9601346FB714FF60F
:105700003F733B82BB681B78FB77FB7F082B02D87B
:10571000FB7F002B0FD13E233B743E237B74144B45
:105720007B6140F20B230093124B7A6912491348B4
:105730000AF019FC11E0124B1B68FA7F114618465B
:10574000FEF75EFA0A4BBB614FF404730093094BFA
:10575000BA690C4909480AF006FC07F11002022355
:105760002B21F868FEF73AFF00BF2037BD4680BD09
:10577000B4680108BC68010878710108904D0120E7
:105780001C000020A471010880B588B002AFF86049
:10579000B9601346FB71FF233B7407F1100201232C
:1057A0002D21F868FEF71AFF094B1B681846FEF713
:1057B0004AFA084B7B6140F21A230093064B7A6940
:1057C000064907480AF0CFFB00BF1837BD4680BD29
:1057D0001C000020B4680108BC680108C8710108F9
:1057E000904D012080B58CB002AFF860B9601346CF
:1057F000FB710020FDF74AFD0346FB840120FDF705
:1058000045FD0346BB843F233B75FB8C1B0A9BB2C3
:10581000DBB27B75FB8CDBB2BB75BB8C1B0A9BB20E
:10582000DBB2FB75BB8CDBB23B7607F114020523C0
:105830003321F868FEF7D2FE0E4B3B62FB8C0193DE
:105840004FF4097300930C4B3A6A0C490C480AF068
:105850008AFB084BFB61BB8C019340F2252300932C
:10586000054BFA69074906480AF07DFB00BF283757
:10587000BD4680BDB4680108BC680108EC71010830
:10588000904D01201472010880B588B002AFF86015
:10589000B9601346FB71FF233B740AF055FE0B4BB6
:1058A0007B6140F22D230093094B7A6909490A482C
:1058B0000AF059FB07F1100201233521F868FEF7C1
:1058C0008DFE00BF1837BD4680BD00BFB46801081B
:1058D000BC6801083C720108904D012080B400AF03
:1058E000024B1846BD465DF8047B7047908C01085A
:1058F00080B400AF18231846BD465DF8047B70479E
:1059000080B582B000AF786039607B681833184684
:105910000AF028FF00BF0837BD4680BD80B584B0BF
:1059200000AF786039607B685B69FB607B685B69AE
:105930003968786898470346FB72FB7A002B08D1D8
:10594000FB680649786898477B685B690449786812
:10595000984700BF1037BD4680BD00BF748D010859
:10596000608D010880B584B002AF786039607B68D3
:10597000002B03D10021134803F0BCFE78683B687C
:105980005A683B689B68009313460F4A0F490AF018
:105990003BFE7B6818337A68172118460AF0A0FE90
:1059A0003B681A687B685A617B68002283F828206C
:1059B0007B68183318460AF0D5FE00BF0837BD468D
:1059C00080BD00BF508D01081D5900080159000815
:1059D00080B586B002AF1223009302232422094926
:1059E00009480AF057FB094A3B1D07CA83E807002C
:1059F0003B1D19460648FFF7B5FF00BF1037BD46EF
:105A000080BD00BFAC4C0120D04C01206472010865
:105A10006C4C012080B582B000AF0346FB71FB796E
:105A2000194603480AF00AFE00BF0837BD4680BD8C
:105A30006C4C012080B586B002AF786039603B685D
:105A40001B88012B02D0172B02D02FE001232EE060
:105A50007B6893F82830002B13D1174BBB605F2372
:105A60000093164BBA68164916480AF07CFA164B92
:105A70001B68184603F0B3F97B68012283F82820DD
:105A800012E00D4BFB60652300930C4BFA680F4945
:105A90000C480AF068FA0C4B1B68184603F02EFA03
:105AA0007B68002283F82820012300E002231846A7
:105AB0001037BD4680BD00BF7072010878720108C2
:105AC000A8720108904D012024000020C072010836
:105AD00080B500AF0C4B1B68184603F080F90346F5
