:020000040802F0
:10000000000008202D2F0208E92C0208F12C02081C
:10001000F92C0208012D0208092D02080000000039
:10002000000000000000000000000000112D020888
:100030001F2D0208000000002D2D02083B2D020894
:100040007D2F02087D2F02087D2F02087D2F0208D8
:100050007D2F02087D2F02087D2F02087D2F0208C8
:100060007D2F02087D2F02087D2F02087D2F0208B8
:100070007D2F02087D2F02087D2F02087D2F0208A8
:100080007D2F02087D2F02087D2F02087D2F020898
:100090007D2F02087D2F02087D2F02087D2F020888
:1000A0007D2F0208A9A702087D2F02087D2F0208D4
:1000B00009A802087D2F02087D2F02087D2F020863
:1000C0007D2F02087D2F02087D2F02087D2F020858
:1000D0007D2F02087D2F02087D2F02087D2F020848
:1000E0007D2F02087D2F02087D2F02087D2F020838
:1000F0007D2F02087D2F02087D2F02087D2F020828
:100100007D2F02087D2F02087D2F02087D2F020817
:100110007D2F02087D2F02087D2F02087D2F020807
:10012000572D02087D2F0208632D0208BDAE02087C
:100130006F2D02087D2F02087D2F02087D2F0208F7
:100140007D2F02087D2F02087D2F02087D2F0208D7
:100150007D2F020819AA02087D2F0208BD6B020834
:100160007D2F02087D2F02087D2F02087D2F0208B7
:100170007D2F02087D2F02087D2F0208000000005D
:100180007D2F02087D2F02087D4202087D2F020884
:100190007D2F02087D2F02087D2F02087D2F020887
:1001A00000000000000000007D2F02087D2F0208E3
:1001B0007D2F02087D2F02087D2F02087D2F020867
:1001C0007D2F02087D2F0208000000007D2F02080D
:1001D0007D2F02087D2F02087D2F02087D2F020847
:1001E0007D2F02087D2F02087D2F02087D2F020837
:0801F000000000007D2F020851
:1002000010B5054C237833B9044B13B10448AFF350
:1002100000800123237010BD104400200000000066
:10022000D463030808B5034B1BB103490348AFF37C
:10023000008008BD0000000014440020D4630308BF
:1002400010F8012B11F8013B012A28BF9A42F7D080
:10025000D01A7047000000000000000000000000FD
:1002600001F0FF01102A2BDB10F0070F08D010F867
:10027000013B013A8B422DD010F0070F42B3F6D16B
:10028000F0B441EA012141EA014122F007047FF084
:1002900000070023F0E80256083C85EA010586EADB
:1002A000010685FA47F5A3FA87F586FA47F6A5FA17
:1002B00087F68EB9EED1F0BC01F0FF0102F0070223
:1002C00032B110F8013B013A83EA010313B1F8D1CE
:1002D0000020704701387047002D06BF35460338AF
:1002E000073815F0010F07D1013015F4807F02BFE8
:1002F000013015F4C03F0130F0BC0138704700BF39
:10030000034613F8012B002AFBD1181A0138704755
:100310007BB972B90029BEBF00204FF0004106E052
:1003200008BF00281CBF6FF000414FF0FF3000F005
:10033000D3B9ADF1080C6DE904CE002909DB002B1F
:100340001ADB00F04DF8DDF804E0DDE9022304B02B
:100350007047404261EB4101002B1BDB00F040F88D
:10036000DDF804E0DDE9022304B0404261EB410125
:10037000524263EB43037047524263EB430300F086
:100380002FF8DDF804E0DDE9022304B0404261EB20
:1003900041017047524263EB430300F021F8DDF85E
:1003A00004E0DDE9022304B0524263EB43037047EB
:1003B00053B94AB9002908BF00281CBF4FF0FF31CC
:1003C0004FF0FF3000F088B9ADF1080C6DE904CEB4
:1003D00000F006F8DDF804E0DDE9022304B0704720
:1003E0002DE9F047089D8E4604468846002B4AD1E9
:1003F0008A42174662D9B2FA82F64EB1C6F120039C
:1004000001FA06F820FA03F3B74043EA0808B440BB
:100410004FEA174E1FFA87FCB8FBFEF1230C0EFBC8
:10042000118843EA084301FB0CF29A4209D9FB18F0
:1004300001F1FF3080F0EA809A4240F2E780023911
:100440003B449A1AA3B2B2FBFEF00EFB102243EA21
:10045000024300FB0CFC9C4509D9FB1800F1FF325C
:1004600080F0D6809C4540F2D3803B44023840EA7D
:100470000140A3EB0C0300211DB1F3400022C5E9AC
:100480000032BDE8F0878B4205D90DB1C5E9000106
:1004900000210846F5E7B3FA83F1002946D17345F8
:1004A00002D3824200F20581841A6EEB030201201E
:1004B0009046002DE5D0C5E90048E2E7002A00F0AB
:1004C0009080B2FA82F6002E40F0A4808A1A030CC3
:1004D0004FEA174E80B2BCB20121B2FBFEFC0EFB0C
:1004E0001C2243EA024304FB0CF29A4207D9FB1890
:1004F0000CF1FF3802D29A4200F2E080C4469B1A07
:10050000B3FBFEF20EFB123340EA034302FB04F49A
:100510009C4207D9FB1802F1FF3002D29C4200F244
:10052000CA8002461B1B42EA0C40A5E7C1F1200627
:100530008B4022FA06F71F430EFA01F420FA06F365
:100540002EFA06FE4FEA1749234300FA01F81FFA74
:1005500087FCBEFBF9F01C0C09FB10EE44EA0E44CC
:1005600000FB0CFEA64502FA01F209D93C1900F184
:10057000FF3A80F09C80A64540F2998002383C44C6
:10058000A4EB0E041FFA83FEB4FBF9F309FB13443A
:100590004EEA044403FB0CFCA44508D93C1903F1C2
:1005A000FF3E80F08280A4457FD9023B3C4443EA71
:1005B0000040A4EB0C04A0FB02EC64457346E1464A
:1005C00062D35FD05DB1B8EB030264EB090404FAB7
:1005D00006F622FA01F31E43CC40C5E9006400216F
:1005E0004FE7B1FBF2FC010C41EA0E4180B240EA58
:1005F00001423B4638463C46B846BE462026B1FB43
:10060000F7F1A2EB080241EA0C4166E7014618E760
:1006100010462CE7C6F120022EFA02F3B740B14093
:1006200020FA02F24FEA174E0A43B3FBFEF8BCB2BF
:100630000EFB1833110C41EA034108FB04F9B040EA
:1006400089454FEA104380B23ED9791808F1FF3C42
:1006500001D289451FD8A1EB0901B1FBFEF909FBC5
:1006600004F80EFB191192B242EA0142424529D226
:10067000BA1809F1FF31C4D24245C2D2A9F1020130
:100680003A44BEE7F0459DD2BEEB02036CEB070C8B
:100690000138E14696E7A7EB09094944A8F1020CA5
:1006A000B1FBFEF909FB04F8DBE773467FE7504630
:1006B00066E70846FDE63B44023A33E7ACF1020C3C
:1006C0003B441CE749469CE7A1EB0901C446B1FB4A
:1006D000FEF909FB04F8C4E7704700BF80B400AF1F
:1006E000044BDB681B0A03F007031846BD465DF8A0
:1006F000047B704700ED00E080B483B000AF034698
:10070000FB7197F90730002B0BDBFB7903F01F021D
:10071000074997F907305B09012000FA02F241F816
:10072000232000BF0C37BD465DF8047B704700BF37
:1007300000E100E080B483B000AF03463960FB7194
:1007400097F90730002B0ADB3B68DAB20C4997F9BE
:1007500007301201D2B20B4483F800230AE03B6851
:10076000DAB20849FB7903F00F03043B1201D2B25D
:100770000B441A7600BF0C37BD465DF8047B70470A
:1007800000E100E000ED00E080B489B000AFF86067
:10079000B9607A60FB6803F00703FB61FB69C3F192
:1007A0000703042B28BF0423BB61FB690433062B1A
:1007B00002D9FB69033B00E000237B614FF0FF326D
:1007C000BB6902FA03F3DA43BB681A407B699A40BB
:1007D0004FF0FF317B6901FA03F3D9437B680B408B
:1007E000134318462437BD465DF8047B704780B438
:1007F00089B000AFF860B9607A60FB682C331946A5
:10080000BB6803F440734FF44072BA61BA6992FA5C
:10081000A2F27A617A69B2FA82F2D2B2D3409B0034
:100820000B44FB61FB691A68BB6803F01F031F21BF
:1008300001FA03F3DB431A407B6803F01F01BB6836
:1008400003F01F0301FA03F31A43FB691A6000BFA8
:100850002437BD465DF8047B704780B483B000AF99
:10086000786039607B689B6823F480623B681A4338
:100870007B689A6000BF0C37BD465DF8047B70470B
:1008800080B48DB000AFF860B9607A60FB680C335B
:100890001946BB6803F000734FF00072BA61BA6981
:1008A00092FAA2F27A617A69B2FA82F2D2B2D340B3
:1008B0009B000B44FB62FB6A1A68BB6803F0F87389
:1008C0004FF0F8713962396A91FAA1F1F961F96969
:1008D000B1FA81F1C9B2CB40072101FA03F3DB433E
:1008E0001A40BB6803F0F8734FF0F871B962B96A47
:1008F00091FAA1F17962796AB1FA81F1C9B2CB407A
:10090000796801FA03F31A43FB6A1A6000BF3437AF
:10091000BD465DF8047B704780B485B000AFF860D9
:10092000B9607A600D4ABB6813441B781A46FB68AD
:1009300013441B6823F0C0020849BB680B441B78B2
:100940001946FB680B4419467B6813430B6000BFD4
:100950001437BD465DF8047B704700BF4489030827
:1009600080B485B000AFF860B9607A600D4ABB68AA
:1009700013441B781A46FB6813441B6823F49072D7
:100980000849BB680B441B781946FB680B441946A1
:100990007B6813430B6000BF1437BD465DF8047BD2
:1009A000704700BF4489030880B485B000AFF86089
:1009B000B9607A600D4ABB6813441B781A46FB681D
:1009C00013441B6823F400720849BB680B441B786E
:1009D0001946FB680B4419467B6813430B6000BF44
:1009E0001437BD465DF8047B704700BF4489030897
:1009F00080B485B000AFF860B9607A600D4ABB681A
:100A000013441B781A46FB6813441B6823F4806266
:100A10000849BB680B441B781946FB680B44194610
:100A20007B6813430B6000BF1437BD465DF8047B41
:100A3000704700BF4489030880B485B000AFF860F8
:100A4000B9607A600D4ABB6813441B781A46FB688C
:100A500013441B6823F4C0520849BB680B441B783D
:100A60001946FB680B4419467B6813430B6000BFB3
:100A70001437BD465DF8047B704700BF4489030806
:100A800080B485B000AFF860B9607A600D4ABB6889
:100A900013441B781A46FB6813441B6823F4C042B6
:100AA0000849BB680B441B781946FB680B44194680
:100AB0007B6813430B6000BF1437BD465DF8047BB1
:100AC000704700BF4489030880B485B000AFF86068
:100AD000B9607A600D4ABB6813441B781A46FB68FC
:100AE00013441B6823F440320849BB680B441B784D
:100AF0001946FB680B4419467B6813430B6000BF23
:100B00001437BD465DF8047B704700BF4489030875
:100B100080B485B000AFF860B9607A600D4ABB68F8
:100B200013441B781A46FB6813441B6823F0F052E9
:100B30000849BB680B441B781946FB680B441946EF
:100B40007B6813430B6000BF1437BD465DF8047B20
:100B5000704700BF4489030880B483B000AF786059
:100B600039600C4A3B6813441B781A467B6813446F
:100B70005B6908493A680A44127811467A680A445F
:100B800023F00403536100BF0C37BD465DF8047BBE
:100B9000704700BF4489030880B483B000AF786019
:100BA0007B681B6843F001027B681A6000BF0C374A
:100BB000BD465DF8047B704780B483B000AF7860B9
:100BC0007B681B6823F400327B681A6000BF0C3717
:100BD000BD465DF8047B704780B483B000AF786099
:100BE0007B681B6823F400227B681A6000BF0C3707
:100BF000BD465DF8047B704780B485B000AFF860F7
:100C0000B9607A60FB68DA68064B1340B9687A68A5
:100C10000A431A43FB68DA6000BF1437BD465DF82B
:100C2000047B704701F8FFFF80B483B000AF7860A9
:100C30007B68DB6823F400427B68DA6000BF0C3716
:100C4000BD465DF8047B704780B483B000AF786028
:100C50007B685B6843F000727B685A6000BF0C37AA
:100C6000BD465DF8047B704780B483B000AF786008
:100C70007B684CF6CC421A6000BF0C37BD465DF86D
:100C8000047B704780B483B000AF78607B6845F226
:100C900055521A6000BF0C37BD465DF8047B7047A3
:100CA00080B483B000AF786039603B6803F007021E
:100CB0007B685A6000BF0C37BD465DF8047B704707
:100CC00080B483B000AF786039603B68C3F30B0237
:100CD0007B689A6000BF0C37BD465DF8047B7047A7
:100CE00080B483B000AF786039603B68C3F30B0217
:100CF0007B681A6100BF0C37BD465DF8047B704706
:100D000080B483B000AF78607B68DB6803F00703D2
:100D1000002B01D1012300E0002318460C37BD460B
:100D20005DF8047B704780B483B000AF78607B6867
:100D30001B6843F040027B681A6000BF0C37BD4659
:100D40005DF8047B704780B483B000AF7860396091
:100D50007B685B6823F010023B681A437B685A602B
:100D600000BF0C37BD465DF8047B704780B483B08C
:100D700000AF78607B685B6843F008027B685A606C
:100D800000BF0C37BD465DF8047B704780B483B06C
:100D900000AF78607B685B6823F008027B685A606C
:100DA00000BF0C37BD465DF8047B704780B483B04C
:100DB00000AF78607B681B6843F080027B681A6034
:100DC00000BF0C37BD465DF8047B704780B483B02C
:100DD00000AF78607B681B6823F080027B681A6034
:100DE00000BF0C37BD465DF8047B704780B485B00A
:100DF00000AF786039603B68012B28D03B68042B3A
:100E000023D03B68102B1ED03B68402B19D03B6889
:100E1000B3F5807F13D03B68B3F5806F0DD03B688E
:100E2000B3F5805F07D03B68B3F5803F01D107235E
:100E30000EE008230CE006230AE0052308E0042363
:100E400006E0032304E0022302E0012300E0002384
:100E5000FB737B6818331946FB7B0B4AD35C0B444E
:100E6000BB60BB681A68FB7B0849CB5C194604234E
:100E70008B40DB431A40BB681A6000BF1437BD4685
:100E80005DF8047B704700BF4C890308588903084C
:100E900080B485B000AF786039603B68012B28D002
:100EA0003B68042B23D03B68102B1ED03B68402BA3
:100EB00019D03B68B3F5807F13D03B68B3F5806FE2
:100EC0000DD03B68B3F5805F07D03B68B3F5803F3A
:100ED00001D107230EE008230CE006230AE00523D6
:100EE00008E0042306E0032304E0022302E00123D8
:100EF00000E00023FB737B6818331946FB7B0A4A2A
:100F0000D35C0B44BB60BB681A68FB7B0749CB5CB6
:100F1000194608238B401A43BB681A6000BF143778
:100F2000BD465DF8047B70474C8903085889030867
:100F300080B483B000AF786039607B689A68064BF4
:100F400013403A681A437B689A6000BF0C37BD466D
:100F50005DF8047B704700BFF8BFFEFF80B483B02C
:100F600000AF786039607B685B6823F070023B6893
:100F70001A437B685A6000BF0C37BD465DF8047B9E
:100F8000704780B483B000AF786039607B685B687D
:100F900023F470023B681A437B685A6000BF0C3729
:100FA000BD465DF8047B704780B483B000AF7860C5
:100FB0007B689B6823F080027B689A6000BF0C37D7
:100FC000BD465DF8047B704780B483B000AF7860A5
:100FD0007B681B6843F001027B681A6000BF0C3716
:100FE000BD465DF8047B704780B483B000AF786085
:100FF00039607B681B6823F4F8123B681B041A43B2
:101000007B681A6000BF0C37BD465DF8047B7047F3
:1010100080B483B000AF786039607B681B6823F0D0
:1010200078723B685B051A437B681A6000BF0C3717
:10103000BD465DF8047B704780B483B000AF786034
:101040007B689B6843F480427B689A6000BF0C37E2
:10105000BD465DF8047B704780B483B000AF786014
:1010600039607B689B6823F400423B681A437B68C5
:101070009A6000BF0C37BD465DF8047B704780B4B2
:1010800083B000AF78607B685B6823F490427B6834
:101090005A607B689B6823F02A027B689A6000BFD5
:1010A0000C37BD465DF8047B704780B483B000AF59
:1010B000786039607B683A689A6100BF0C37BD463A
:1010C0005DF8047B704780B483B000AF786039600E
:1010D0003B681A047B689A6100BF0C37BD465DF817
:1010E000047B704780B485B000AF7860084B1A6B02
:1010F00007497B6813430B63054B1A6B7B681340EE
:10110000FB60FB6800BF1437BD465DF8047B704789
:101110000038024080B485B000AF7860084B1A6C8C
:1011200007497B6813430B64054B1A6C7B681340BB
:10113000FB60FB6800BF1437BD465DF8047B704759
:101140000038024080B485B000AF7860084B5A6C1C
:1011500007497B6813434B64054B5A6C7B6813400B
:10116000FB60FB6800BF1437BD465DF8047B704729
:101170000038024080B500AF00F086FB00BF80BDA4
:1011800080B500AF0FF040FA00F02CF801F070FAD3
:1011900001F006FA00F0BCFA00F076FB00F02AFC41
:1011A00000F0A6FC00F08EF800F020FD00F034FF07
:1011B00001F00CF800F0CCFD01F0A4F801F056F9B4
:1011C00000F0D4F900F0A0FE00F0E4FE00F03AFBDD
:1011D00000F07CFA01F0D3FE01F0E5FE01F0FFFE25
:1011E00000BFFDE780B594B000AF07F11C033422C7
:1011F0000021184613F034F907F1080300221A60A1
:101200005A609A60DA601A612C4B1B6C2B4A43F0CF
:1012100080531364294B1B6C03F080537B607B6805
:10122000274B1B68264A43F440431360244B1B683A
:1012300003F440433B603B680923FB614FF4803378
:101240003B6201233B6302237B634FF48003BB6358
:101250000C23FB63C0233B6402237B640223BB6437
:101260000223FB6407F11C0318460FF0FFFC034642
:10127000002B01D001F0EEFC0FF0A8FC0346002B80
:1012800001D001F0E7FC0F23BB600223FB600023C9
:101290003B614FF4A0537B614FF48053BB6107F176
:1012A0000803062118460FF08FFF0346002B01D0DC
:1012B00001F0D0FC00BF5037BD4680BD0038024071
:1012C0000070004080B592B000AF07F13C030022EF
:1012D0001A605A609A6007F1280300221A605A6067
:1012E0009A60DA601A6107F1180300221A605A60E6
:1012F0009A60DA603B4600221A605A609A60DA60AF
:101300001A615A614FF48070FFF71CFF0420FFF749
:10131000E9FE0220FFF7E6FE01233B6003237B602A
:1013200000233B613B461946844810F0D6FE022359
:101330003B6003237B6000233B613B4619467F48AB
:1013400010F0CBFE04233B6003237B6000233B6152
:101350003B461946794810F0C0FE08233B60032342
:101360007B6000233B613B461946744810F0B5FE94
:1013700010233B6003237B6000233B613B461946FF
:101380006E4810F0AAFE20233B6003237B600023FD
:101390003B613B461946694810F09FFE01233B60C4
:1013A00003237B6000233B613B461946644810F0F1
:1013B00094FE02233B6003237B6000233B613B469A
:1013C00019465F4810F089FE002204215D48FFF7AE
:1013D0009FFB002204215B48FFF79EFA00220421B4
:1013E0005848FFF771FB4FF4807204215548FFF70E
:1013F000B7FA002204215348FFF7D6FA4FF480626F
:1014000004215048FFF7F4FA4FF4006204214D48DC
:10141000FFF712FB4FF4005204214A48FFF730FB5C
:1014200004214848FFF798FB0023FB6300233B643B
:101430004FF480737B6407F13C031946424810F077
:10144000D3FC0023BB624FF4E003FB6200233B6349
:1014500000237B634FF44073BB6307F128031946F5
:10146000394810F0EDFC00213748FFF7F6F94FF44A
:101470008033BB610023FB6107F118031946334831
:1014800010F06AFC0A224FF400712F48FFF7AFF901
:1014900001220A212C48FFF7F3F92D4A40F20521D9
:1014A0002948FFF7A4F9012229492748FFF7E8F95D
:1014B000284A40F20A212448FFF799F901222549D8
:1014C0002148FFF7DDF9244A40F20F211E48FFF7BB
:1014D0008EF9012220491C48FFF7D2F91F4A4FF428
:1014E00005711948FFF783F901221C491648FFF7D7
:1014F000C7F91B4A40F219211348FFF778F9012276
:1015000017491148FFF7BCF9164A4FF480710E488D
:10151000FFF76DF9012213490B48FFF7B1F9124AA1
:1015200040F205110848FFF762F901220E4906480A
:10153000FFF7A6F900BF4837BD4680BD000802404E
:1015400000040240006402400020014000230140EA
:101550000B0030000C0060000D0090000E00C00079
:101560000F00F000080080030900B00380B58EB0C2
:1015700000AF07F12C0300221A605A609A6007F14D
:10158000180300221A605A609A60DA601A613B46BA
:1015900000221A605A609A60DA601A615A614FF448
:1015A0000070FFF7CFFD0120FFF79CFD04233B6097
:1015B00003237B6000233B613B4619463E4810F005
:1015C0008CFD08233B6003237B6000233B613B468B
:1015D0001946394810F081FD4FF00072022137485A
:1015E000FFF796FA002202213448FFF795F900220E
:1015F00002213248FFF768FA4FF4807202212F4827
:10160000FFF7AEF9002202212C48FFF7CDF94FF485
:10161000806202212948FFF7EBF94FF400620221B2
:101620002648FFF709FA4FF4005202212348FFF73A
:1016300027FA02212148FFF78FFA0023FB620023DB
:101640003B634FF480737B6307F12C0319461C48FE
:1016500010F0CAFB0023BB614FF48013FB61002331
:101660003B6200237B624FF44073BB6207F11803B7
:101670001946134810F0E4FB4FF480611048FFF75F
:10168000ECF8104A4FF400710D48FFF7B0F8012252
:101690000C490B48FFF7F4F80B4A40F205210848C3
:1016A000FFF7A5F8002208490548FFF7E9F800BF51
:1016B0003837BD4680BD00BF0000024000640240D4
:1016C00000210140030090020200600280B500AFDB
:1016D0000D4B0E4A1A600C4B00221A710A4B002265
:1016E0005A71094B00225A61074B00229A61064B3E
:1016F00001221A6204480FF0FFF80346002B01D0C4
:1017000001F0A8FA00BF80BD2C4400200030024048
:1017100080B5B2B000AF07F1AC0300221A605A6086
:101720009A60DA601A615A619A6107F194030022A3
:101730001A605A609A60DA601A615A613B1D902201
:101740000021184612F08CFE4FF480437B6000238A
:10175000BB663B1D18460FF0E9FE0346002B01D087
:1017600001F078FA0220FFF7BDFC4023C7F894305F
:101770000223C7F898300323C7F89C300123C7F829
:10178000A0300023C7F8A4300423C7F8A83007F11D
:1017900094031946284810F0A0FC8023C7F8943021
:1017A0000223C7F898300323C7F89C300123C7F8F9
:1017B000A0300023C7F8A4300423C7F8A83007F1ED
:1017C000940319461C4810F088FC4FF40010FFF7F2
:1017D000A1FC1A48FFF738FA002200211748FFF74A
:1017E0000BFA1648FFF720FA1448FFF7F5F91348EB
:1017F000FFF7E2F90023C7F8AC30114BC7F8B0305F
:101800000023C7F8B4300023C7F8B8300023C7F866
:10181000BC300023C7F8C0300023C7F8C43007F13C
:10182000AC031946054810F06FFD0448FFF7B4F902
:1018300000BFC837BD4680BD0004024000540040D0
:10184000FF63106080B500AF0E48FFF70DFA0D483A
:10185000FFF718FA05210B48FFF722FA4FF47A61D7
:101860000848FFF72DFA00BF0648FFF749FA03467C
:10187000012BF9D14FF47A610248FFF731FA00BF2A
:1018800080BD00BF0030004080B590B000AF07F1D0
:10189000180328220021184612F0E2FD3B460022E0
:1018A0001A605A609A60DA601A615A614FF4805087
:1018B000FFF748FC0120FFF715FC10233B600223D3
:1018C0007B600323BB600023FB6000233B61052397
:1018D0007B613B461946444810F0FFFB20233B60E8
:1018E00002237B600323BB600023FB6000233B617A
:1018F00005237B613B4619463B4810F0EEFB402335
:101900003B6002237B600323BB600023FB6000235A
:101910003B6105237B613B461946334810F0DDFBF4
:1019200080233B6002237B600323BB600023FB60BA
:1019300000233B6105237B613B4619462A4810F092
:10194000CCFB4FF0C06203212848FFF7E1F84022AA
:1019500003212648FEF7E0FF4FF40032032123481D
:10196000FFF7B2F8002203212048FEF7F9FF00221A
:1019700003211E48FFF718F84FF4806203211B482B
:10198000FFF736F8002203211848FFF755F8002228
:1019900003211648FFF774F803211448FFF7DCF819
:1019A0000023BB610023FB614FF4E0633B62022331
:1019B0007B620023BB620023FB6200237B63002366
:1019C000BB630723FB6307F118031946084811F0AE
:1019D00073F800210648FFF7B6F90548FFF7D6F976
:1019E00000BF4037BD4680BD000002400064024099
:1019F0000030014080B590B000AF07F118032822F5
:101A00000021184612F02CFD3B4600221A605A6055
:101A10009A60DA601A615A614FF48040FFF77AFBEE
:101A20000220FFF75FFB4FF400533B6002237B6013
:101A30000323BB600023FB6000233B6105237B6124
:101A40003B461946284810F048FB4FF480433B6062
:101A500002237B600323BB600023FB6000233B6108
:101A600005237B613B4619461F4810F036FB4FF4B7
:101A700000433B6002237B600323BB600023FB60C9
:101A800000233B6105237B613B461946164810F055
:101A900024FB0023BB614FF48273FB614FF4E063CE
:101AA0003B6200237B620123BB624FF40073FB6245
:101AB00018233B6300237B630023BB630723FB6383
:101AC00007F118031946094810F0F6FF00210748EE
:101AD000FFF739F90548FFF759F90448FFF723F9EB
:101AE00000BF4037BD4680BD0004024000380040C2
:101AF00080B590B000AF07F11803282200211846E6
:101B000012F0AEFC3B4600221A605A609A60DA601E
:101B10001A615A614FF40040FFF7FCFA0420FFF706
:101B2000E1FA4FF480633B6002237B600323BB60D8
:101B30000023FB6000233B6106237B613B46194683
:101B4000284810F0CAFA4FF400633B6002237B6020
:101B50000323BB600023FB6000233B6106237B6102
:101B60003B4619461F4810F0B8FA4FF480533B60CB
:101B700002237B600323BB600023FB6000233B61E7
:101B800006237B613B461946164810F0A6FA00234F
:101B9000BB614FF48273FB614FF4E0633B6200234F
:101BA0007B620023BB624FF40073FB6200233B6344
:101BB00000237B630023BB630723FB6307F1180348
:101BC0001946094810F078FF00210748FFF7BBF8D5
:101BD0000548FFF7CBF80448FFF7A5F800BF4037EA
:101BE000BD4680BD00080240003C004080B590B07A
:101BF00000AF07F1180328220021184612F030FC2C
:101C00003B4600221A605A609A60DA601A615A6193
:101C10004FF40050FFF796FA1020FFF763FA4FF4E5
:101C200080533B6002237B600323BB600023FB6087
:101C300000233B6105237B613B461946414810F078
:101C40004CFA4FF400533B6002237B600323BB60DC
:101C50000023FB6000233B6105237B613B46194663
:101C6000384810F03AFA4FF480433B6002237B601F
:101C70000323BB600023FB6000233B6105237B61E2
:101C80003B4619462F4810F028FA4FF00062002119
:101C90002D48FEF73DFF002200212B48FEF73CFEB9
:101CA0004FF4403200212848FEF70EFF4FF48072B7
:101CB00000212548FEF754FE002200212248FEF7AD
:101CC00073FE4FF4806200211F48FEF791FE4FF42F
:101CD000006200211C48FEF7AFFE4FF400520021C5
:101CE0001948FEF7CDFE00211748FEF735FF002307
:101CF000BB614FF48273FB614FF470633B6200235E
:101D00007B620023BB624FF40073FB6208233B63DA
:101D100000237B630023BB630723FB6307F11803E6
:101D200019460A4810F0C8FE00210848FFF70BF8D2
:101D30000648FFF71BF80548FEF7F5FF00BF4037E0
:101D4000BD4680BD001002400064024000340140E6
:101D500080B590B000AF07F1180328220021184683
:101D600012F07EFB3B4600221A605A609A60DA60ED
:101D70001A615A614FF40010FFF7E4F90220FFF7EF
:101D8000B1F908233B6002237B600323BB6000237F
:101D9000FB6000233B6108237B613B4619465748A3
:101DA00010F09BF910233B6002237B600323BB6090
:101DB0000023FB6000233B6108237B613B461946FF
:101DC0004E4810F08AF920233B6002237B600323F6
:101DD000BB600023FB6000233B6108237B613B4623
:101DE0001946464810F079F94FF000720521444831
:101DF000FEF78EFE402205214148FEF78DFD4FF48F
:101E0000403205213E48FEF75FFE002205213C4896
:101E1000FEF7A6FD002205213948FEF7C5FD4FF467
:101E2000806205213648FEF7E3FD00220521344893
:101E3000FEF702FE002205213148FEF721FE0521B2
:101E40002F48FEF789FE4FF0007206212C48FEF75E
:101E50005FFE002206212A48FEF75EFD4FF4403265
:101E600006212748FEF730FE002206212448FEF70F
:101E700077FD002206212248FEF796FD4FF480628E
:101E800006211F48FEF7B4FD002206211C48FEF77C
:101E9000D3FD002206211A48FEF7F2FD062118485C
:101EA000FEF75AFE0023BB614FF48273FB614FF4CF
:101EB000E0633B6200237B620023BB624FF400734C
:101EC000FB6200233B6300237B630023BB63072388
:101ED000FB6307F1180319460A4810F0EDFD0021D5
:101EE0000848FEF730FF0748FEF740FF0548FEF7B9
:101EF0001AFF00BF4037BD4680BD00BF000402404E
:101F0000006402400054014080B586B000AF3B1D24
:101F100000221A605A609A60DA601A610120FFF7A5
:101F200011F9FEF7DBFB0346002200211846FEF7FD
:101F30002BFC034619461920FEF7FCFB1920FEF77F
:101F4000DBFB0023BB800023BB604FF6FF73FB600D
:101F500000233B6100237B613B1D19460C4810F0B8
:101F60009FFE0B48FEF732FF00210948FEF7E0FF15
:101F700000210748FEF7F2FF00210548FFF701F8AE
:101F80000348FFF711F800BF1837BD4680BD00BFFA
:101F90000000014080B586B000AF3B1D00221A60F2
:101FA0005A609A60DA601A610120FFF7B3F8FEF711
:101FB00095FB0346002202211846FEF7E5FB034687
:101FC00019461C20FEF7B6FB1C20FEF795FB0023EC
:101FD000BB800023BB604FF0FF33FB6000233B61FD
:101FE0003B1D19464FF0804010F05AFE4FF08040E4
:101FF000FEF7DCFE00214FF08040FEF799FF002144
:102000004FF08040FEF7AAFF4FF08040FEF7CCFF74
:1020100000BF1837BD4680BD80B594B000AF07F152
:102020003C0300221A605A609A60DA601A6107F174
:102030001C0320220021184612F012FA3B1D002238
:102040001A605A609A60DA601A615A610420FFF7D8
:1020500061F80A23BB8700233B644CF250337B6456
:102060004FF40073BB6407F13C031946554810F068
:1020700017FE5448FEF7AAFE00215248FEF758FF0B
:1020800001215048FEF704FF6023FB6100233B62FF
:1020900000237B620023BB620023FB6207F11C0369
:1020A0001A460121474810F095FE01214548FEF7E8
:1020B0009DFE10214348FEF7EBFE07F11C031A4674
:1020C0001021404810F086FE10213E48FEF78EFE9B
:1020D0004FF480713B48FEF7DBFE07F11C031A4604
:1020E0004FF48071374810F075FE4FF48071354819
:1020F000FEF77CFE4FF480513248FEF7C9FE07F12F
:102100001C031A464FF480512E4810F063FE4FF422
:1021100080512C48FEF76AFE00212A48FEF71EFF78
:102120002848FEF741FF0820FEF7DCFF4FF48053FC
:102130007B600223BB600023FB6000233B61002324
:102140007B610223BB613B1D19461F480FF0C5FF91
:102150004FF400537B600223BB600023FB6000232D
:102160003B6100237B610223BB613B1D194616487E
:102170000FF0B3FF4FF480437B600223BB6000236A
:10218000FB6000233B6100237B610223BB613B1D9D
:1021900019460D480FF0A1FF4FF400437B60022366
:1021A000BB600023FB6000233B6100237B610223B3
:1021B000BB613B1D194604480FF08FFF00BF50372D
:1021C000BD4680BD00080040000C024080B5B2B0A2
:1021D00000AF07F1AC0300221A605A609A60DA601F
:1021E0001A615A619A6107F1940300221A605A60D9
:1021F0009A60DA601A615A613B1D902200211846EC
:1022000012F02EF94FF480537B6000233B663B1D98
:1022100018460FF08BF90346002B01D000F01AFD91
:102220004FF08040FEF776FF1020FEF75BFF802323
:10223000C7F894300223C7F898300323C7F89C30BE
:102240000023C7F8A0300123C7F8A4300823C7F83B
:10225000A83007F19403194628480FF03EFF4FF4C9
:102260008073C7F894300223C7F898300323C7F867
:102270009C300023C7F8A0300023C7F8A4300823FF
:10228000C7F8A83007F1940319461C480FF025FF42
:10229000FEF724FA034600220B211846FEF774FAD3
:1022A000034619465220FEF745FA5220FEF724FA5B
:1022B0004FF4E133C7F8AC300023C7F8B030002347
:1022C000C7F8B4300023C7F8B8300C23C7F8BC30C7
:1022D0000023C7F8C0300023C7F8C43007F1AC03AF
:1022E0001946074811F096F80548FEF7C8FE04485D
:1022F000FEF76AFE00BFC837BD4680BD0010024031
:102300000078004080B5B2B000AF07F1AC03002206
:102310001A605A609A60DA601A615A619A6107F12C
:10232000940300221A605A609A60DA601A615A6156
:102330003B1D90220021184612F092F840237B604A
:102340000023BB643B1D18460FF0F0F80346002B3A
:1023500001D000F07FFC1020FEF7F4FE0120FEF714
:10236000C1FE4FF40073C7F894300223C7F89830C9
:102370000323C7F89C300023C7F8A0300023C7F818
:10238000A4300723C7F8A83007F19403194635484D
:102390000FF0A3FE4FF48063C7F894300223C7F810
:1023A00098300323C7F89C300023C7F8A0300023DF
:1023B000C7F8A4300723C7F8A83007F194031946DB
:1023C00028480FF08AFE4FF48053C7F89430022358
:1023D000C7F898300323C7F89C300023C7F8A03013
:1023E0000023C7F8A4300723C7F8A83007F19403E7
:1023F00019461C480FF071FE4FF4E133C7F8AC30BA
:102400000023C7F8B0300023C7F8B4300023C7F862
:10241000B8300C23C7F8BC300023C7F8C030002305
:10242000C7F8C43007F1AC0319460F4810F0F2FFAB
:102430000D48FEF701FE00210B48FEF70DFE0021BE
:102440000948FEF7E5FD00210748FEF7CDFD0648E7
:10245000FEF715FE0448FEF7B7FD00BFC837BD46BE
:1024600080BD00BF000002400010014080B5B2B046
:1024700000AF07F1AC0300221A605A609A60DA607C
:102480001A615A619A6107F1940300221A605A6036
:102490009A60DA601A615A613B1D90220021184649
:1024A00011F0DEFF4FF400637B600023FB653B1DF2
:1024B00018460FF03BF80346002B01D000F0CAFB92
:1024C0002020FEF73FFE0420FEF70CFE4023C7F855
:1024D00094300223C7F898300323C7F89C300023B8
:1024E000C7F8A0300023C7F8A4300823C7F8A830E5
:1024F00007F19403194628480FF0EFFD8023C7F831
:1025000094300223C7F898300323C7F89C30002387
:10251000C7F8A0300023C7F8A4300823C7F8A830B4
:1025200007F1940319461C480FF0D7FDFEF7D6F8C3
:10253000034600220B211846FEF726F903461946EA
:102540004720FEF7F7F84720FEF7D6F84FF4E133BF
:10255000C7F8AC300023C7F8B0300023C7F8B43058
:102560000023C7F8B8300C23C7F8BC300023C7F8E5
:10257000C0300023C7F8C43007F1AC031946074840
:1025800010F048FF0548FEF77AFD0448FEF71CFDF1
:1025900000BFC837BD4680BD00080240001401409E
:1025A00080B500AF4FF48000FEF79CFDFEF796F873
:1025B0000346002200211846FEF7E6F803461946B6
:1025C0003820FEF7B7F83820FEF796F8FEF786F8C1
:1025D000034600220A211846FEF7D6F8034619469C
:1025E0003A20FEF7A7F83A20FEF786F8FEF776F8CD
:1025F0000346002200211846FEF7C6F80346194696
:102600003B20FEF797F83B20FEF776F8FEF766F8DA
:10261000034600220A211846FEF7B6F8034619467B
:102620003C20FEF787F83C20FEF766F8FEF756F8E8
:102630000346002209211846FEF7A6F8034619466C
:102640004420FEF777F84420FEF756F8FEF746F8E8
:102650000346002209211846FEF796F8034619465C
:102660004520FEF767F84520FEF746F800BF80BD1D
:1026700080B586B000AF3B4600221A605A609A606F
:10268000DA601A615A611020FEF72CFD0420FEF773
:1026900029FD8020FEF726FD0120FEF723FD022004
:1026A000FEF720FD0820FEF71DFD0421BF48FEF7C0
:1026B0000AFD0821BD48FEF706FD1021BB48FEF7C4
:1026C00002FD2021B948FEF7FEFC4021B748FEF785
:1026D000FAFC4FF40051B648FEF7F5FC4FF4804188
:1026E000B348FEF7F0FC4FF40041B148FEF7EBFCB5
:1026F0004FF40061AF48FEF7E6FC4FF40061AE48CE
:10270000FEF7E1FC4FF40041AB48FEF7DCFC012191
:10271000AA48FEF7D8FC0221A848FEF7D4FC1021F5
:10272000A648FEF7D0FC2021A448FEF7CCFC4021AF
:10273000A248FEF7C8FC04219E48FEF7B6FC4FF401
:1027400080619A48FEF7B1FC4FF400619748FEF7AC
:10275000ACFC4FF400419548FEF7A7FC4FF48061B4
:102760009448FEF7A2FC4FF480519248FEF79DFC7E
:102770004FF480719148FEF798FC4FF400718F4838
:10278000FEF793FC4FF480718948FEF78EFC4FF4FE
:1027900080718948FEF789FC04218848FEF785FC92
:1027A00080218648FEF781FC4FF480718148FEF756
:1027B0007CFC4FF400717F48FEF777FC01217B48D9
:1027C000FEF773FC02217948FEF76FFC04233B609F
:1027D00001237B600023BB600023FB6000233B617F
:1027E0003B46194671480FF078FC08233B600123F3
:1027F0007B600023BB600023FB6000233B613B4602
:1028000019466A480FF069FC10233B6001237B6086
:102810000023BB600023FB6000233B613B4619465D
:1028200062480FF05AFC20233B6001237B600023A9
:10283000BB600023FB6000233B613B4619465B48BD
:102840000FF04BFC40233B6001237B600023BB6007
:102850000023FB6000233B613B46194653480FF0C1
:102860003CFC4FF400533B6001237B600023BB60C2
:102870000023FB6000233B613B4619464C480FF0A8
:102880002CFC4FF480433B6001237B600023BB6042
:102890000023FB6000233B613B46194644480FF090
:1028A0001CFC4FF400433B6001237B600023BB60B2
:1028B0000023FB6000233B613B4619463C480FF078
:1028C0000CFC02233B6003237B6000233B613B46FF
:1028D000194639480FF001FC04233B6001237B605B
:1028E0000023BB600023FB6000233B613B4619468D
:1028F00030480FF0F2FB4FF480633B6001237B60B4
:102900000023BB600023FB6000233B613B4619466C
:1029100026480FF0E2FB4FF400633B6001237B602D
:102920000023BB600023FB6000233B613B4619464C
:102930001E480FF0D2FB4FF400433B6001237B6045
:102940000023BB600023FB6000233B613B4619462C
:1029500016480FF0C2FB4FF480633B6001237B609D
:102960000023BB600023FB6001233B613B4619460B
:1029700010480FF0B2FB4FF400633B6001237B6013
:102980000023BB600023FB6002233B613B461946EA
:1029900008480FF0A2FB4FF480533B6001237B609B
:1029A0000023BB600023FB60002309E0001002400D
:1029B000000802400004024000000240000C0240F7
:1029C0003B613B4619469E480FF087FB4FF48073EE
:1029D0003B6001237B600323BB600023FB6000237B
:1029E0003B613B46194697480FF077FB4FF4007365
:1029F0003B6001237B600323BB600023FB6000235B
:102A00003B613B4619468F480FF067FB4FF48063EC
:102A10003B6000237B6000233B613B4619468948AD
:102A20000FF05BFB4FF400633B6000237B600023EF
:102A30003B613B46194683480FF04FFB4FF48073D0
:102A40003B6001237B600023BB600023FB6001230C
:102A50003B613B4619467C480FF03FFB4FF4007347
:102A60003B6000237B6000233B613B461946764870
:102A70000FF033FB4FF480733B6001237B60032333
:102A8000BB600023FB6000233B613B4619466F4857
:102A90000FF023FB4FF400633B6001237B600023B6
:102AA000BB600023FB6000233B613B46194667483F
:102AB0000FF013FB4FF400433B6001237B600023C6
:102AC000BB600023FB6000233B613B4619465F4827
:102AD0000FF003FB01233B6001237B600023BB60FD
:102AE0000023FB6000233B613B46194655480FF02D
:102AF000F4FA02233B6001237B600023BB600023C8
:102B0000FB6000233B613B4619464E480FF0E5FA57
:102B100004233B6001237B600023BB600023FB6038
:102B200000233B613B46194646480FF0D6FA08237E
:102B30003B6000237B6000233B613B4619464148D4
:102B40000FF0CBFA10233B6001237B600023BB60B6
:102B50000023FB6000233B613B46194639480FF0D8
:102B6000BCFA20233B6001237B600023BB60002371
:102B7000FB6000233B613B46194632480FF0ADFA3B
:102B800040233B6001237B600023BB600023FB608C
:102B900000233B613B4619462A480FF09EFA8023EA
:102BA0003B6001237B600023BB600023FB600023AC
:102BB0003B613B46194623480FF08FFA4FF4807370
:102BC0003B6001237B600023BB600023FB6000238C
:102BD0003B613B4619461A480FF07FFA4FF40073E9
:102BE0003B6001237B600023BB600023FB6000236C
:102BF0003B613B46194612480FF06FFA01233B60D8
:102C000001237B600023BB600023FB6000233B614A
:102C10003B4619460E480FF060FA02233B60012341
:102C20007B600023BB600023FB6000233B613B46CD
:102C3000194607480FF051FA00BF1837BD4680BD4E
:102C400000040240000C0240000802400000024064
:102C50000010024080B400AF72B600BF00BFFDE7B5
:102C600080B483B000AF0F4B1B6C0E4A43F080530F
:102C700013640C4B1B6C03F080537B607B68094B27
:102C80005B6C084A43F480435364064B5B6C03F46B
:102C900080433B603B6800BF0C37BD465DF8047B5A
:102CA000704700BF0038024080B485B000AF786044
:102CB0007B681B680A4A93420BD10A4B1B6B094A7B
:102CC00043F480531363074B1B6B03F48053FB6087
:102CD000FB6800BF1437BD465DF8047B704700BF3A
:102CE000003002400038024080B400AF00BFFDE772
:102CF00080B400AF00BFFDE780B400AF00BFFDE7C8
:102D000080B400AF00BFFDE780B400AF00BFFDE7B7
:102D100080B400AF00BFBD465DF8047B704780B44F
:102D200000AF00BFBD465DF8047B704780B400AFC4
:102D300000BFBD465DF8047B704780B500AF06F06C
:102D400009FF06F031FE0DF005FC0DF0CFFC08F098
:102D500099F900BF80BD80B500AF07F08BFC00BFC4
:102D600080BD80B500AF06F04FFE00BF80BD80B5CE
:102D700000AF06F063FF00BF80BD80B400AF012349
:102D80001846BD465DF8047B704780B582B000AF41
:102D90007860396011F0C4FB034616221A604FF0C8
:102DA000FF3318460837BD4680BD80B582B000AFFE
:102DB00078604FF0FF317868FFF7E7FF00BFFDE76D
:102DC00080B586B000AFF860B9607A6000237B619F
:102DD0000AE0AFF300800146BB685A1CBA60CAB271
:102DE0001A707B6901337B617A697B689A42F0DBF8
:102DF0007B6818461837BD4680BD80B586B000AFE9
:102E0000F860B9607A6000237B6109E0BB685A1CF6
:102E1000BA601B781846AFF300807B6901337B6191
:102E20007A697B689A42F1DB7B6818461837BD46A1
:102E300080BD80B483B000AF78604FF0FF33184698
:102E40000C37BD465DF8047B704780B483B000AF9B
:102E5000786039603B684FF400525A60002318468E
:102E60000C37BD465DF8047B704780B483B000AF7B
:102E70007860012318460C37BD465DF8047B704727
:102E800080B485B000AFF860B9607A60002318465E
:102E90001437BD465DF8047B7047000080B586B0EE
:102EA00000AF7860144A154BD31A7B617B693B6194
:102EB000134B1B68002B02D1114B124A1A60104BA6
:102EC0001A687B6813443A699A4207D211F028FBCA
:102ED00003460C221A604FF0FF3309E0084B1B68D1
:102EE000FB60074B1A687B681344054A1360FB6854
:102EF00018461837BD4680BD0000082000040000B9
:102F000050440020586B032080B400AF064BD3F828
:102F10008830054A43F47003C2F8883000BFBD46CC
:102F20005DF8047B704700BF00ED00E0DFF834D0AF
:102F3000FFF7EAFF0C480D490D4A002302E0D45880
:102F4000C4500433C4188C42F9D30A4A0A4C0023F3
:102F500001E013600432A242FBD311F0E7FAFEF75E
:102F60000FF97047000008200000002010440020E6
:102F70000097030810440020546B0320FEE780B53F
:102F800000AF00F0EFF803F0DDFC04F0E3FB01F02C
:102F9000F3FF00F099FF04F023FA04F03BF905F089
:102FA00069FF00BF80BD80B500AF012000F0FCF8D4
:102FB000042003F0F9FC022004F0F2FB052001F0EC
:102FC000FDFF062004F046FA072000F0A3FF0820CA
:102FD00004F060F90A2005F085FF00BF80BD80B5D0
:102FE00000AF0DF09FF900BF80BD000080B582B03A
:102FF00000AF7860396006F0FDFA07F08FFC07F04B
:103000001BF906F099FD06F07FFC7B68012283F82E
:103010004D207B68002283F8522000F08FFD03468C
:10302000002B2AD005F0AAFF1E4B5A687B689A62D3
:103030001C4B1A897B68DA851A4B5A897B681A8679
:10304000184B9A897B685A8605F0BCFF7B689A6AA0
:103050007B68DB8D19467B681B8E0B447968498E33
:103060000B44114981FB03018911DB17CB1A02FBC9
:1030700003F39A0A7B685A6310E07B680B4A9A62F2
:103080007B686422DA857B6840F6D8621A867B68A2
:1030900064225A867B6840F2A2725A6300BF0837E6
:1030A000BD4680BD00400240D34D621020A1070004
:1030B00080B584B000AF786039607B685B69FB6085
:1030C0007B685B693968786898470346FB72FB7ACE
:1030D000002B08D1FB680649786898477B685B69D4
:1030E00004497868984700BF1037BD4680BD00BFCF
:1030F000A08903088C89030880B584B002AF78608A
:1031000039607B68002B03D10021134805F02AFFAA
:1031100078683B685A683B689B68009313460F4A7F
:103120000F490DF051F93B681A687B685A617B685A
:1031300018337A681B2118460DF0A6F97B681833FE
:1031400018460DF0E3F93B681A7B7B6883F848204A
:1031500000BF0837BD4680BD7C890308B130020836
:10316000ED2F020890B587B002AF122300930A2317
:10317000B422094909480CF0F9FC094B3C460FCB35
:1031800084E80F003B4619460648FFF7B5FF00BF2D
:103190001437BD4690BD00BFE0440020B04400207D
:1031A000F06303085444002080B582B000AF0346AA
:1031B000FB71FB79194603480DF020F900BF083771
:1031C000BD4680BD5444002080B582B000AF786019
:1031D00039603B681B88013B1D2B58D801A252F86F
:1031E00023F000BF5D3202088F3202088F320208DE
:1031F0008F3202088F3202088F3202088F320208A3
:103200008F3202088F3202088F3202088F32020892
:103210008F3202088F3202088F3202088F32020882
:103220008F3202088F3202088F3202088F32020872
:103230008F3202088F3202088F3202088F32020862
:103240008F3202088F3202088F3202088F32020852
:103250006B3202087B320208853202087B68183321
:1032600018460DF053F9012312E021200CF012FF53
:103270007B68094A5A6100230AE07B68074A5A6161
:10328000002305E07B68064A5A61002300E0022320
:1032900018460837BD4680BDA5320208B134020881
:1032A000CD35020880B588B000AF786039603B68E2
:1032B0001B88013B202B00F2E58001A252F823F08D
:1032C0004533020885340208BF33020885340208FA
:1032D00085340208853402088534020885340208E2
:1032E00085340208853402088534020885340208D2
:1032F00085340208853402088534020885340208C2
:1033000085340208853402088534020885340208B1
:1033100085340208853402088534020885340208A1
:1033200085340208853402087334020885340208A3
:103330008534020885340208CD330208F9330208C7
:1033400025340208524B1B68524918460BF0BEFB4D
:103350007B681833002244F6206118460DF0B6F859
:103360007B6893F82C301946786800F084FA786806
:1033700000F09AFA7B68DB8DFB607B681B8E3B61FB
:103380007B685B8E7B617B689B6ABB617B6893F823
:103390002C30FB617B6893F82D30184606F012FA4A
:1033A00007F10C03184606F00DFF06F007FB07F0C7
:1033B00015F97B68002283F84820012363E07B68CD
:1033C000183318460DF0A2F801235CE0304B1B685F
:1033D000314918460BF07AFB7B6893F84830002B94
:1033E00004D17B68012283F8482003E07B68032234
:1033F00083F84820012346E0254B1B6827491846DF
:103400000BF064FB7B6893F84830012B04D17B6898
:10341000022283F8482003E07B68032283F84820D7
:10342000012330E022200CF035FE194B1B681C49AB
:1034300018460BF04BFB7B6893F84830022B04D105
:103440007B68052283F8482003E07B68032283F829
:1034500048200F4B1B68134918460BF037FB124BE3
:103460001B68184600F042FE7B68104A5A61002330
:1034700009E07B68042283F848207B680B4A5A6184
:10348000002300E0022318462037BD4680BD00BF60
:1034900054E100200064030814640308386403083E
:1034A000586403087C64030808000020C93102083E
:1034B00080B582B000AF786039603B681B88242BF0
:1034C0001ED0242B73DC232B3ED0232B6FDC012B4F
:1034D00002D0222B2BD06AE07B68183318460DF0FF
:1034E00015F87B681B6C344A53607B68DB6B324A8F
:1034F0001360324B1B68184603F00EFE012357E0A1
:103500002D4B5B68B3F5804F28BF4FF480439AB2D0
:103510002B4B1A80284B1B685B00294A12885200EB
:103520001146284A184607F04FFA012340E0234B82
:103530001868234B1B881A467B6893F8453021494D
:1035400003F0C6FD012333E01B4B5B681C4A128865
:103550009B1A194A5360184B1B68194A1288134466
:10356000154A1360144B5B68002B16D0124B5B6836
:10357000B3F5804F28BF4FF480439AB2104B1A80A6
:103580000D4B1B685B000E4A1288520011460D4A13
:10359000184607F019FA01230AE0084B1B68184681
:1035A00003F0CAFD7B68084A5A61002300E0022349
:1035B00018460837BD4680BD944500200400002011
:1035C000A0C50020A0450020C931020880B582B006
:1035D00000AF786039603B681B88012B02D0222B3A
:1035E00010D01CE07B68183318460CF08FFF7B6806
:1035F000DB6B5B000C4A4FF40041184607F0E4F91E
:1036000001230DE0084807F0DBFB084B1B68184658
:1036100003F09AFE7B68064A5A61002300E0022309
:1036200018460837BD4680BDA04500200C0000208C
:10363000C931020880B584B000AFF860B9607A6023
:10364000FB70FB68BA68DA63FB687A681A64FB6827
:10365000FA7883F84520084B1B684FF6FF72A3F8F1
:103660004220FB68054918460CF0F2FE002318467C
:103670001037BD4680BD00BF04000020C889030884
:1036800080B582B000AF78607B680022DA637B6827
:103690004FF480421A647B68012283F84520084B6E
:1036A0001B684FF6FF72A3F842207B680549184655
:1036B0000CF0CEFE002318460837BD4680BD00BF83
:1036C00004000020C889030880B582B000AF78608C
:1036D0007B68044918460CF0BBFE002318460837E7
:1036E000BD4680BDF089030880B582B000AF786028
:1036F0007B68044918460CF0ABFE002318460837D7
:10370000BD4680BD048A030880B582B000AF7860F2
:103710007B68044918460CF09BFE002318460837C6
:10372000BD4680BD188A030880B584B000AFF8603C
:10373000B9607A60BB68012B02D87B68642B01D921
:10374000062318E0FB6893F84D30002B06D00020CC
:1037500005F00CFFFB68002283F84D207968B868FB
:1037600006F06CF87B68D9B2FA68BB681344493339
:103770000A461A70002318461037BD4680BD80B532
:1037800082B000AF786039603B68242B01D90623F2
:1037900014E07B6893F84D30012B06D0012005F032
:1037A000E5FE7B68012283F84D20386805F05AFF5A
:1037B0003B68DAB27B6883F84B2000231846083751
:1037C000BD4680BD80B582B000AF78607B6893F85D
:1037D0004D30012B06D0012005F0C8FE7B68012288
:1037E00083F84D2005F060FF7B68FF2283F84B20B3
:1037F000002318460837BD4680BD80B582B000AFB3
:10380000786039603B68082B01D9062314E07B6897
:1038100093F84D30012B06D0012005F0A7FE7B6800
:10382000012283F84D20386805F054FF3B68DAB276
:103830007B6883F84C20002318460837BD4680BDBE
:1038400080B582B000AF78607B6893F84D30012B73
:1038500006D0012005F08AFE7B68012283F84D2006
:1038600005F092FF7B68FF2283F84C200023184666
:103870000837BD4680BD80B582B000AF7860396042
:103880003B68242B01D906230AE006F065FD386861
:1038900006F08AFD3B68DAB27B6883F84E2000238D
:1038A00018460837BD4680BD80B582B000AF78604D
:1038B00006F066FD002318460837BD4680BD0000AF
:1038C00080B582B000AF786039603B681B68002B20
:1038D00004D03B681B68154A934201D9062321E0B6
:1038E0003B68DB68B3F5006F01D906231AE03B683B
:1038F0001A687B689A623B68DA887B68DA853B687D
:103900001A897B681A863B685A897B685A863B68A5
:10391000DA687B685A633B681A697B689A6300F0CF
:10392000E5F8002318460837BD4680BD50F80C0066
:1039300080B483B000AF786039603B685B79642BFA
:1039400001D9062305E03B685A797B6883F82D206E
:10395000002318460C37BD465DF8047B704780B4E1
:1039600083B000AF786039603B681B79002B03D0CF
:103970003B681B79242B01D9062305E03B681A79A3
:103980007B6883F82C20002318460C37BD465DF871
:10399000047B7047B0B582B000AF786039603B6897
:1039A0001B68002B04D03B681B68194A934201D95D
:1039B000062328E03B681B79002B03D03B681B796A
:1039C000242B01D906231EE03B685B79642B01D9C7
:1039D000062318E03B68DB68B3F5006F01D90623C6
:1039E00011E03B681B69002B01D106230BE07B68CB
:1039F0003A6803F1280415460FCD0FC42B682360E5
:103A000000F074F8002318460837BD46B0BD00BF6B
:103A100050F80C00B0B483B000AF786039603A68F9
:103A20007B68154603F128040FCC0FC523682B6073
:103A300000BF0C37BD46B0BC7047000080B584B0F5
:103A400000AF78607B682833FB60FB681B68002B45
:103A500004D0FB681B68134A934201D906231CE07B
:103A6000FB681B79002B03D0FB681B79242B01D941
:103A7000062312E0FB685B79642B01D906230CE076
:103A8000FB68DB68B3F5006F01D9062305E07B68AE
:103A9000054918460CF0DCFC002318461037BD46DB
:103AA00080BD00BF50F80C00B489030880B582B017
:103AB00000AF78600B467B807B889B031A467B684F
:103AC000DA637B684FF480421A647B68012283F8D2
:103AD00044207B68044918460CF0BAFC00231846C1
:103AE0000837BD4680BD00BFDC89030880B582B0C1
:103AF00000AF05F043FA0F4B4FF0BC321A600E4B8B
:103B00009B6A0C4A53600C4BDA8D0A4B1A810A4BA4
:103B10001A8E084B5A81084B5A8E064B9A81002305
:103B20007B60044A7B68136105F04CFA00BF0837DC
:103B3000BD4680BD004002405444002080B500AF27
:103B400005F01CFA084B1B68B3F1BC3F06D01422E9
:103B50000021054810F084FC002302E005F032FA51
:103B60000123184680BD00BF0040024080B483B0EE
:103B700000AF786039607B683A689A6100BF0C37A3
:103B8000BD465DF8047B704780B483B000AF7860B9
:103B900039603B681A047B689A6100BF0C37BD46E8
:103BA0005DF8047B7047000080B582B000AF78609C
:103BB0000B46FB707B68FA78114618460BF0B4FD93
:103BC00000F0E8FA02467B68C3F804227B68002212
:103BD00083F80C227B68012283F80D22FB78032BEB
:103BE00004D8FB7806497A6841F823207B680121D4
:103BF00018460BF03BFA00BF0837BD4680BD00BF3A
:103C0000A8C8002080B582B000AF78607A687B6871
:103C100093F80032194610460BF086FD7B680121AF
:103C200018460BF023FA00F0B5FA02467B68C3F899
:103C300004227B68002283F80C2200BF0837BD46AF
:103C400080BD80B483B000AF786039607B683A682B
:103C5000C3F8082200BF0C37BD465DF8047B7047EF
:103C600080B586B000AFF860B9607A60FB687A68AA
:103C7000B96818460BF0B2FC00F08CFA7861FB686A
:103C800093F8E230002B35D0FB6893F8E4301A4605
:103C900013465B0013449B00FA6813443B613B6985
:103CA0001B687A69D31A40F6B83293421ED9FB6872
:103CB00093F80C3283F00103DBB2002B1AD0FB68BF
:103CC000D3F80832002B04D0FB68D3F80832F86828
:103CD0009847FB68012283F80C22FB6893F80D32A9
:103CE000002B07D0F868FFF78DFF03E0FB68002288
:103CF00083F80C22FB687A69C3F8042200BF1837E6
:103D0000BD4680BD80B483B000AF786000BF0C3783
:103D1000BD465DF8047B704780B500AF4FF48072FC
:103D2000084909480CF048F84FF4807207490848E0
:103D30000CF042F8064B044A064907480BF0FAFD1E
:103D400000BF80BDE0C90020B8C90020E0CA002043
:103D5000CCC9002000780040E0CB002080B582B0C4
:103D600000AF786039607B68002B03D101210F48D8
:103D700005F0F8F87B680E4A9A610E490C48FFF787
:103D800060FF7B6824330A220A2118460CF09EFB50
:103D900009480BF0EBFD7B689B6900211846FFF793
:103DA00003FF00BF0837BD4680BD00BF2C8A030853
:103DB00098C60020053D0208E0CB002080B584B005
:103DC00000AF786039607B68002B03D10421124872
:103DD00005F0C8F83B68002B03D105210E4805F01B
:103DE000C1F87B685B69FB607B685B6939687868F0
:103DF00098470346FB72FB7A002B08D1FB68074902
:103E0000786898477B685B6905497868984700BF80
:103E10001037BD4680BD00BF2C8A0308448A0308C2
:103E2000388A030880B584B002AF786039607B6857
:103E3000002B03D10221214805F094F878683B68F3
:103E4000DA683B681B69009313461D4A1D490CF054
:103E5000BBFA7B6824337A680D2118460CF014FBFA
:103E60007B6834337A68102118460CF00DFB7B68B0
:103E700044337A68112118460CF006FB3B681A6837
:103E80007B685A613B685A687B689A613B689A68AC
:103E90007B68DA617B68243318460CF037FB7B685B
:103EA000343318460CF032FB7B68443318460CF070
:103EB0002DFB00BF0837BD4680BD00BF2C8A03081C
:103EC000BD3D02085D3D0208B0B588B002AFFFF706
:103ED00023FF0C2300930A2378220A490A480BF097
:103EE00045FE0A4B3C1D1D460FCD0FC42B682360B9
:103EF0003B1D19460648FFF795FF00BF1837BD4622
:103F0000B0BD00BF20C60020F8C5002090640308A3
:103F1000A4C5002080B582B000AF0346FB71FB79D9
:103F2000194603480CF06AFA00BF0837BD4680BD49
:103F3000A4C5002080B582B000AF786039607B688E
:103F4000002B03D10321594805F00CF83B681B886E
:103F5000013B102B00F2A58001A252F823F000BF14
:103F6000A53F0208A3400208A3400208A34002089C
:103F7000A3400208A3400208A3400208A34002088D
:103F8000A3400208A3400208A3400208A34002087D
:103F9000C13F020807400208354002086540020898
:103FA000954002084FF49671032004F003FE7B68ED
:103FB00024330A220A2118460CF088FA012371E002
:103FC000032004F02FFE3A4B4FF480721A607B6896
:103FD000DB69374A374918460BF0E8FC0346002BEB
:103FE00008D07B689B69324A126832491846FFF74D
:103FF00037FE06E07B689B69002200211846FFF728
:104000002FFE01234EE0032004F0F2FD7B682433F1
:1040100018460CF07BFA4FF400612748FFF7A6FD25
:104020007B683433002244F6206118460CF04EFAC7
:10403000012337E04FF49671032004F0BBFD7B6849
:10404000343318460CF062FA4FF400611A48FFF757
:104050009BFD7B6824330A220A2118460CF036FAAD
:1040600001231FE04FF49671032004F0A3FD7B6849
:10407000343318460CF04AFA4FF400610E48FFF74B
:1040800083FD7B6824330A220A2118460CF01EFAAD
:10409000012307E0032004F0ABFD04F0ABFE012395
:1040A00000E0022318460837BD4680BD2C8A03086D
:1040B00010000020B8C800200004024080B586B07F
:1040C00000AF786007F10C0300221A605A609A6012
:1040D0000E23BB817B6807F10C02114618460CF0D9
:1040E000B7F9002318461837BD4680BD80B586B0A5
:1040F00000AF786007F10C0300221A605A609A60E2
:104100000F23BB817B6807F10C02114618460CF0A7
:104110009FF9002318461837BD4680BD80B582B090
:1041200000AF78607B68443300224FF4FA61184690
:104130000CF0CCF9002318460837BD4680BD0000BE
:1041400080B582B000AF0346FB71064BDB699B680C
:1041500018460BF039FF03469BB218460837BD4698
:1041600080BD00BFA4C5002080B582B000AF03466B
:104170000A46FB711346BB71054BDB69BA791146E0
:1041800018460BF04BFC00BF0837BD4680BD00BF92
:10419000A4C5002080B500AF0CF02AFA03461846EB
:1041A00080BD000080B586B000AF396011461A4668
:1041B0000346FB710B46BB7113467B717B79032B66
:1041C00034D87B791C4A52F823303B613B69002B81
:1041D0002ED01A4B1B68002B05D0184B1B68BA79E0
:1041E000F8793968984700F04DFEF86000F054FE09
:1041F000B86000237B6114E07B69DB00FA6813443C
:104200001B78FA799A4209D17B69DB00FA6813447A
:104210005B68BA793968386998470AE07B69013385
:104220007B617A69BB689A42E6DB02E000BF00E08E
:1042300000BF1837BD4680BDA8C80020F0CB0020C5
:1042400080B584B000AFF8607A601A460B46FB7206
:104250001346BB72FB68BA7A114618460AF062FF31
:104260000346002B05D0F868BB7AF97A7A680AF021
:1042700011FF00BF1037BD4680BD000080B500AF04
:10428000074BDB6918460BF00FFC054BDB69184642
:104290000BF039FC034B4FF0FF321A6200BF80BDB8
:1042A000A4C500200078004080B584B000AFF8605D
:1042B000B9601346FB71002300220121F868FFF763
:1042C000BFFF044B1B681846FFF728FF00BF1037DD
:1042D000BD4680BD1400002080B586B000AFF860F8
:1042E000B9601346FB71BB681B781A06BB680133C3
:1042F0001B781B041A43BB6802331B781B02134351
:10430000BA680332127813437B61FB79BA680321E0
:10431000F868FFF795FF00BF1837BD4680BD80B530
:1043200088B002AFF860B9601346FB71BB681B78B8
:10433000FB75BB6801331B78BB75BB6802331B7808
:104340007B75BB6803331B783B75FB79BA68052125
:10435000F868FFF775FFF97DBA7D787D3B7D0093A6
:10436000034624200BF096FE3B7D7A7DB97DF87DD7
:1043700006F060FE00BF1837BD4680BD80B586B030
:1043800000AFF860B9601346FB71FF233B75BB6853
:104390001B78FB75084B1B68FA7D1146184603F025
:1043A000BFF807F1140201230921F868FFF748FF5D
:1043B00000BF1837BD4680BD200000202DE9F04326
:1043C0009BB00CAFF861B9611346FB754FF63F73B4
:1043D000BB840023FB86BB691B781BB21B021AB28D
:1043E000BB6901331B781BB21343BB86BB69023325
:1043F0001B781BB21B021AB2BB6903331B781BB2BA
:1044000013437B86BB6904331B781BB21B021AB2B1
:10441000BB6905331B781BB213433B86BB6906336C
:104420001B7887F82F30BB6907331B7887F82E304D
:10443000BB6908331B7887F82D30BB6909331B78BB
:1044400087F82C30BB690A331B7887F82B30BB699F
:104450000B331B781BB21B021AB2BB690C331B78DF
:104460001BB213431BB23B85BB690D331B7887F826
:10447000273097F82F30072B02D9FB8E0133FB86AC
:1044800097F82E30072B02D9FB8E0133FB8697F865
:104490002C300F2B02D9FB8E0133FB8697F82B3083
:1044A0000F2B02D9FB8E0133FB86FB8E002B57D1DD
:1044B000344B1868B98E7A8E3C8E97F82730069365
:1044C0003B8D059397F82B30049397F82C3003938A
:1044D00097F82D30029397F82E30019397F82F30EC
:1044E0000093234604F02EFAB7F934C0B7F93430FC
:1044F0004FEA132EB7F93280B7F932301A0AB7F9FA
:104500003010B7F93030180A97F82F4097F82E502E
:1045100097F82D6097F82C303B6197F82B30FB60B3
:10452000B7F828904B46BB603B8D1B0A9BB27B6063
:1045300097F827300A937B680993BB680893FB6858
:1045400007933B69069305960495039402900191A5
:10455000009243467246614603200BF09BFD05E046
:104560003E2387F824303E2387F8253007F12402C4
:1045700002230B21F869FFF763FE00BF3C37BD46FD
:10458000BDE8F0831800002080B586B000AFF86069
:10459000B9601346FB71FF23FB7505200BF07AFD14
:1045A000074B1B68184603F00DFD07F117020123A6
:1045B0000D21F868FFF744FE00BF1837BD4680BDE7
:1045C0001800002080B586B000AFF860B9601346CF
:1045D000FB71FF23FB7504200BF05CFD074B1B6890
:1045E000184603F0CBFC07F1170201230F21F868EE
:1045F000FFF726FE00BF1837BD4680BD180000201B
:1046000090B58BB002AFF860B9601346FB714FF6FE
:104610003F73BB820023FB77BB681B781B02BA6821
:104620000132127813439BB21A465201D21A9200F9
:104630001344DB00BB83BB6802331B78FB76BB688B
:1046400003331B781BB21B021AB2BB6804331B78FE
:104650001BB213431BB23B83BB8B4EF660229342CB
:1046600002D9FB7F0133FB77FB7E042B03D9FB7F51
:104670000133FB7722E0FB7E042B0DD107F11402FE
:1046800002231121F868FFF7DBFD2D4B1B68042185
:10469000184603F071FF4FE0294B1B68184603F0E2
:1046A000B6FD0346FB75FA7DFB7E42FA03F303F089
:1046B0000103002B02D0FB7F0133FB773B8BB3F56B
:1046C000FA7F04D33B8B40F6B832934202D9FB7F8A
:1046D0000133FB77FB7F002B23D1BB8B184600F007
:1046E000E9FC174B1B68FA7E1146184603F044FF9D
:1046F000134B1B683A8B1146184603F056FFB98BD3
:10470000BB8B1B0A9BB21C46F87E3B8B3A8B120A72
:1047100092B2019200930346224609200BF0BAFCA4
:1047200003E03E233B753E237B7507F11402022311
:104730001121F868FFF784FD2437BD4690BD00BF06
:104740001800002080B586B000AFF860B96013464D
:10475000FB71FF23FB7507F1170201231321F86892
:10476000FFF76EFD0A200BF095FC00F067FC00BF20
:104770001837BD4680BD80B586B000AFF860B9601F
:104780001346FB71FF23FB7507F117020123152167
:10479000F868FFF755FD0B200BF07CFC00F072FC75
:1047A00000BF1837BD4680BDF0B59BB008AF78613B
:1047B00039611346FB734FF63F733B860023A7F81E
:1047C00046303B691B781A063B6901331B781B0492
:1047D0001A433B6902331B781B0213433A690332C5
:1047E000127813433B643B6904331B781B029BB272
:1047F0003A69053212781343FB873B6906331B780D
:104800001B029BB23A69073212781343BB873B699C
:1048100008331B781B029BB23A69093212781343A2
:104820007B873B6CB3F57A7F03D33B6C484A93425A
:1048300004D9B7F846300133A7F84630FB8F002B78
:1048400004D1B7F846300133A7F84630BB8F002BB0
:1048500004D1B7F846300133A7F846307B8F002BE0
:1048600004D1B7F846300133A7F84630FA8FBB8F32
:104870001A447B8F13441A463B6C02FB03F3354A00
:10488000A2FB03231B0C7B637B6BB3F5006F04D986
:10489000B7F846300133A7F84630B7F84630002B5A
:1048A00044D13B6CFB61FB8F7B84BB8FBB847B8FD4
:1048B000FB847B6BBB62284A3B6CB2FBF3F3FB626D
:1048C000264B1B6807F11C0211461846FEF7F8FF3D
:1048D0000346002B23D13B6C1D0A3B6C1E0C3B6C2A
:1048E0001B0EFA8FF98F090A89B2B960B98FB88F98
:1048F000000A80B27860788F7C8F240AA4B2069474
:104900000590786804900391B96802910192009330
:1049100033462A46396C1E200BF0BCFB0CE03E23CC
:1049200087F830303E2387F8313005E03E2387F8A2
:1049300030303E2387F8313007F13002022317214F
:104940007869FFF77DFC00BF4C37BD46F0BD00BF66
:1049500050F80C00D34D621040420F001C000020A4
:1049600080B58AB000AFF860B9601346FB714FF6AE
:104970003F73BB84BB681B7887F8273097F82730D4
:10498000642B06D93E2387F824303E2387F8253050
:1049900029E0164B1B6807F1100211461846FFF775
:1049A00039F897F827307B75104B1B6807F1100218
:1049B00011461846FEF7BCFF0346002B06D197F8B8
:1049C000273019461F200BF065FB05E03E2387F8D2
:1049D00024303E2387F8253007F1240202231921D1
:1049E000F868FFF72DFC2837BD4680BD1C0000206D
:1049F00080B58AB000AFF860B9601346FB714FF61E
:104A00003F73BB84BB681B7887F8273097F8273043
:104A1000242B03D897F82730002B06D13E2387F8A4
:104A200024303E2387F8253022E0174B1B6807F11E
:104A3000100211461846FEF7EDFF97F827303B7538
:104A4000114B1B6807F1100211461846FEF787FF4D
:104A50000346002B06D197F82730194620200BF08B
:104A600019FB05E03E2387F824303E2387F82530E4
:104A700007F1240202231B21F868FFF7E1FB00BFC6
:104A80002837BD4680BD00BF1C00002080B586B021
:104A900000AFF860B9601346FB713F233B750D4BC7
:104AA0001B681846FEF7CAFF0346002B02D03E23C0
:104AB0003B7504E0084B1B681846FFF7FFFA07F147
:104AC000140201231D21F868FFF7BAFB00BF183755
:104AD000BD4680BD1C0000201400002080B58AB0B7
:104AE00000AFF860B9601346FB71194B1B6807F102
:104AF000100211461846FEF78DFFFB69002B06D108
:104B0000002387F82430002387F8253014E0FB6960
:104B10001B09FB84FB6903F00F03002B02D0FB8C05
:104B20000133FB84FB8C1B0A9BB2DBB287F8243079
:104B3000FB8CDBB287F8253007F1240202231F210A
:104B4000F868FFF77DFB00BF2837BD4680BD00BF7A
:104B50001C00002080B58CB000AFF860B96013462F
:104B6000FB714FF63F733B85BB681B7887F82D3090
:104B7000214B1B6807F1140211461846FEF74AFF45
:104B80003B6A1B09FB853B6A03F00F03002B02D035
:104B9000FB8D0133FB85FB8D002B06D13E2387F86F
:104BA00028303E2387F829301BE097F82D309BB240
:104BB000FA8D9A4206D83E2387F828303E2387F89C
:104BC00029300EE097F82D30194625200BF062FAB7
:104BD000094B1B6897F82D2092B211461846FEF734
:104BE00065FF07F1280202232121F868FFF728FB5F
:104BF00000BF3037BD4680BD1C00002080B586B0A8
:104C000000AFF860B9601346FB7106F04BF97861AC
:104C10007B691B0EDBB23B747B691B0CDBB27B74C4
:104C20007B691B0ADBB2BB747B69DBB2FB7407F1E7
:104C3000100204232321F868FFF702FB00BF183796
:104C4000BD4680BD80B586B000AFF860B960134640
:104C5000FB714FF63F73BB8204F0C2FE07F11402F2
:104C600002232521F868FFF7EBFA00BF1837BD468D
:104C700080BD80B586B000AFF860B9601346FB71A7
:104C800006F010F978617B691B0EDBB23B747B691F
:104C90001B0CDBB27B747B691B0ADBB2BB747B69C8
:104CA000DBB2FB7407F1100204232721F868FFF739
:104CB000C7FA00BF1837BD4680BD000080B586B07A
:104CC00000AFF860B9601346FB714FF63F733B824B
:104CD000BB681B78FB75BB6801331B78BB82B7F9D7
:104CE0001430642B03DC97F91730012B04DD3E23CD
:104CF0003B743E237B7408E0094B1B6897F917103F
:104D0000B7F914201846FEF70FFD07F11002022331
:104D10002921F868FFF794FA00BF1837BD4680BD17
:104D20001C00002080B586B000AFF860B960134663
:104D3000FB714FF63F73BB82BB681B78FB75BB688A
:104D400001331B78BB75FB7D002B05D1BB7D242B6C
:104D500008D8BB7D002B05D0FB7D012B07D1BB7D87
:104D6000002B04D13E233B753E237B7511E0FB7D78
:104D7000002B07D10C4B1B68BA7D11461846FEF775
:104D8000FEFC06E0FB7D012B03D1BB7D184604F041
:104D9000D3FC07F1140202232B21F868FFF750FA25
:104DA00000BF1837BD4680BD1C00002080B586B00E
:104DB00000AFF860B9601346FB71FF233B75BB6819
:104DC0001B78FB7507F1140201232D21F868FFF70A
:104DD00037FAFB7D002B05D1084B1B681846FEF700
:104DE000F1FC07E0FB7D012B04D1044B1B68184646
:104DF000FEF726FD00BF1837BD4680BD1C00002011
:104E000080B588B000AFF860B9601346FB7104F05C
:104E100029FD0346FB8304F04DFD0346BB833F237E
:104E20003B75FB8B1B0A9BB2DBB27B75FB8BDBB24A
:104E3000BB75BB8B1B0A9BB2DBB2FB75BB8BDBB2BA
:104E40003B7607F1140205233321F868FFF7F8F9E0
:104E500000BF2037BD4680BD80B586B000AFF8608A
:104E6000B9601346FB71FF233B750BF043FA07F162
:104E7000140201233521F868FFF7E2F900BF183763
:104E8000BD4680BD80B400AF024B1846BD465DF8FC
:104E9000047B7047508A030880B400AF182318467B
:104EA000BD465DF8047B704780B582B000AF786086
:104EB00039607B68183318460BF028FB00BF0837B1
:104EC000BD4680BD80B584B000AF786039607B6836
:104ED0005B69FB607B685B69396878689847034663
:104EE000FB72FB7A002B08D1FB680649786898476B
:104EF0007B685B6904497868984700BF1037BD46F6
:104F000080BD00BF348B0308208B030880B584B0BC
:104F100002AF786039607B68002B03D10021134811
:104F200004F020F878683B685A683B689B680093F7
:104F300013460F4A0F490BF047FA7B6818337A681B
:104F4000172118460BF0A0FA3B681A687B685A6173
:104F50007B68002283F828207B68183318460BF002
:104F6000D5FA00BF0837BD4680BD00BF108B0308CF
:104F7000C54E0208A94E020880B586B002AF1223C2
:104F8000009302232422094909480AF0EFFD094A47
:104F90003B1D07CA83E807003B1D19460648FFF77B
:104FA000B5FF00BF1037BD4680BD00BF34CC002028
:104FB00058CC0020A4640308F4CB002080B582B054
:104FC00000AF0346FB71FB79194603480BF016FA54
:104FD00000BF0837BD4680BDF4CB002080B582B04D
:104FE00000AF786039603B681B88012B02D0172B1B
:104FF00002D01BE001231AE07B6893F82830002BD5
:1050000009D10D4B1B68184603F0EBFA7B680122AF
:1050100083F8282008E0084B1B68184603F070FB53
:105020007B68002283F82820012300E00223184631
:105030000837BD4680BD00BF2400002080B500AF0A
:105040000C4B1B68184603F0CCFA0346002B01D02A
:1050500001230CE0084B1B88074A128819460748B1
:105060000BF034FA064B012283F82820002318465F
:1050700080BD00BF24000020280000200CCC0020B0
:10508000F4CB002080B500AF07480BF03FFA074B88
:105090001B68184603F034FB054B002283F82820D8
:1050A0000023184680BD00BF0CCC00202400002047
:1050B000F4CB002080B483B000AF0346FB80044AE9
:1050C000FB88138000BF0C37BD465DF8047B70473A
:1050D0002800002080B400AFBFF34F8F00BF064B05
:1050E000DB6803F4E0620449044B1343CB60BFF375
:1050F0004F8F00BF00BFFDE700ED00E00400FA05A0
:1051000080B584B000AFF860B9607A6004F0EAFC62
:1051100000BF1037BD4680BD80B5ADF5826D00AFD4
:1051200007F58263A3F20443186007F58263A3F5D1
:105130008163196007F58263A3F20C431A6007F5D7
:105140008263A3F5806318464FF480631A460021FA
:105150000FF086F907F110031A464FF48061002022
:1051600005F0E6FB07F58263A3F2044308491868DB
:1051700009F0ACFC07F58263A3F204430549186803
:1051800009F0A4FC00BF07F58267BD4680BD00BFE3
:10519000B0640308C064030880B5ADF5836D00AF4B
:1051A00007F58363A3F20C43186007F58363A3F547
:1051B0008263196007F58363A3F214431A6007F151
:1051C00014031A464FF48061002005F0C3FB07F575
:1051D0008363A3F20C431F49186809F077FC00238E
:1051E000C7F8143424E007F58363A3F20442D7F828
:1051F000143413441B781A4607F58363A3F20C4357
:105200001549186809F062FCD7F81434013303F02B
:105210000F03002B07D107F58363A3F20C430F495B
:10522000186809F053FCD7F814340133C7F8143464
:10523000D7F81434B3F5806FD5DB07F58363A3F299
:105240000C430649186809F041FC00BF07F5836765
:10525000BD4680BDC4640308DC640308E46403083D
:1052600080B588B000AFF860B9607A6007F11403C8
:10527000074A0A2118460EF06DFF07F1140319467C
:10528000F86808F0ACF900BF2037BD4680BD00BF0C
:105290001C6F030880B584B000AFF860B9607A6015
:1052A000FFF718FF80B588B000AFF860B9607A608A
:1052B0000023BB610023FB82B86808F081FA034633
:1052C0007B757B7D012B04D02E49F86809F0FEFB2D
:1052D00054E00121B86808F03DFA38613B691B7859
:1052E000612B22D10023FB771BE0FB7F184604F0E3
:1052F00037FC0346FB82B7F9163013F5004F06D191
:10530000FB7F1A462049F86809F0E0FB06E0FA7FC7
:10531000B7F916301D49F86809F0D8FBFB7F013357
:10532000FB77FB7F072BE0D928E03B691B782F2B0D
:1053300020D93B691B78372B1CD838690EF030F91F
:105340000346BB61B86904F00BFC0346FB82B7F966
:10535000163013F5004F05D1BA690B49F86809F00A
:10536000B5FB0BE0B7F91630BA690849F86809F0DF
:10537000ADFB03E00649F86809F0A8FB2037BD46FD
:1053800080BD00BF246F0308446F0308586F0308F3
:105390006C6F030880B588B000AFF860B9607A60C0
:1053A000B86808F00DFA0346FB61FB69012B04D0D5
:1053B0001549F86809F08AFB23E0144B1B6818466E
:1053C00003F0DEF9034683F00103DBB2002B04D0C7
:1053D0000F49F86809F07AFB13E00121B86808F07A
:1053E000B9F9B861B8690EF0DBF803467B61074B89
:1053F0001B687969184602F009FE0649F86809F049
:1054000065FB2037BD4680BD246F03082C000020BB
:10541000806F0308CC6F030880B584B000AFF860DC
:10542000B9607A600A4B1B68184602F008FE034612
:10543000002B04D00749F86809F048FB03E006494F
:10544000F86809F043FB00BF1037BD4680BD00BFC0
:105450002C000020CC6F0308D46F030880B588B0FF
:1054600000AFF860B9607A60B86808F0A9F903463F
:10547000BB61BB69012B04D03849F86809F026FBF1
:1054800069E0374B1B68184603F07AF9034683F04E
:105490000103DBB2002B04D03249F86809F016FB97
:1054A00059E00121B86808F055F9786100233B61A3
:1054B0007B691B78612B25D10023FB611EE0284B03
:1054C0001B68F969184602F000FE38613B69002B41
:1054D0000CD1234B1B680022F969184603F0E4F94C
:1054E000FA692149F86809F0F1FA04E0FA691F49FC
:1054F000F86809F0EBFAFB690133FB61FB69032BE8
:10550000DDD928E07B691B782F2B24D97B691B7898
:10551000332B20D878690EF043F80346FB61104B1B
:105520001B68F969184602F0D0FD38613B69002B11
:105530000CD10B4B1B680022F969184603F0B4F933
:10554000FA690949F86809F0C1FA04E0FA690749FB
:10555000F86809F0BBFA2037BD4680BD246F030808
:105560002C000020DC6F0308247003083870030847
:1055700080B588B000AFF860B9607A60B86808F0AC
:105580001FF90346FB61FB69012B04D01549F8683C
:1055900009F09CFA22E00121B86808F0DBF8B86154
:1055A000B8690DF0FDFF0346FB82FB8AB3F5FA7F75
:1055B00004D3FB8A40F6B832934204D90A49F8680A
:1055C00009F084FA0AE0094B1B68FA8A114618466A
:1055D00003F08EF90649F86809F078FA2037BD46DD
:1055E00080BD00BF50700308787003082C000020B5
:1055F000CC6F030880B586B000AFF860B9607A6000
:10560000084B1B68184603F08FF90346FB82FB8AA0
:105610001A460549F86809F059FA00BF1837BD461F
:1056200080BD00BF2C000020AC70030880B588B09E
:1056300000AFF860B9607A60B86808F0C1F8034656
:10564000BB61BB69042B04D03149F86809F03EFA0C
:105650005BE0304B1B68184603F078F80346FB7597
:105660000023FB614AE0FB699BB201339BB2194600
:10567000B86808F06FF8034618460DF091FF03462E
:10568000D9B207F11002FB6913440A461A7007F1F8
:105690001002FB6913441B78012B05D9FA691E49D6
:1056A000F86809F013FA30E007F11002FB691344BF
:1056B0001B78002B08D1174B1B68FA69D2B2114630
:1056C000184602F081FD16E0FB7DFA699A4205D189
:1056D000FA691249F86809F0F9F90CE00D4B1B68FA
:1056E000FA69D2B21146184602F04DFDFA690C492A
:1056F000F86809F0EBF9FB690133FB61FB69032BE7
:10570000B1D90849F86809F0E1F92037BD4680BDF4
:10571000D07003082C000020F47003081C710308EB
:1057200040710308CC6F030880B586B000AFF86005
:10573000B9607A60134B1B68184602F068FD034697
:10574000FB7400237B6115E0FA7C7B6942FA03F36A
:1057500003F00103002B05D07A690B49F86809F0C2
:10576000B5F904E07A690949F86809F0AFF97B698D
:1057700001337B617B69032BE6D900BF00BF18377B
:10578000BD4680BD2C0000204071030858710308FD
:1057900080B58CB000AFF860B9607A60354B1B689B
:1057A000184602F0EDFF034683F00103DBB2002B45
:1057B00004D03149F86809F089F958E0B86807F071
:1057C000FFFF0346FB62FB6A032B04D02B49F868FA
:1057D00009F07CF94BE00121B86807F0BBFFB86223
:1057E000B86A0DF0DDFE03467B627B6A032B04D9A9
:1057F0002349F86809F06AF939E00221B86807F02E
:10580000A9FF3862386A0DF0CBFE0346FB61FB69E5
:10581000012B04D91B49F86809F058F927E0032146
:10582000B86807F097FFB861B8690DF0B9FE034694
:10583000FB82FB8A40F6B832934204D91249F868D9
:1058400009F044F913E00B4B1868FB8AFA69796A8E
:1058500002F0AAFF38613B69002B04D00B49F868BD
:1058600009F034F903E00A49F86809F02FF93037F4
:10587000BD4680BD2C0000207071030894710308A0
:10588000C0710308E471030808720308D46F0308A9
:10589000CC6F030880B58AB000AFF860B9607A6059
:1058A0002A4B1B68184602F06BFF034683F0010386
:1058B000DBB2002B04D02649F86809F007F941E073
:1058C000B86807F07DFF03467B627B6A022B04D039
:1058D0002049F86809F0FAF834E00121B86807F0C7
:1058E00039FF3862386A0DF05BFE0346FB61FB69E5
:1058F000032B04D91849F86809F0E8F822E00221DE
:10590000B86807F027FFB861B8690DF049FE034693
:105910007B610E4B18687B69002B14BF01230023A9
:10592000DBB21A46F96902F0BFFF38613B69002B10
:1059300004D00A49F86809F0C9F803E00849F86892
:1059400009F0C4F82837BD4680BD00BF2C000020F8
:105950007071030834720308C0710308D46F030820
:10596000CC6F030880B58CB000AFF860B9607A6086
:10597000B86807F025FF0346BB62BB6A032B04D05F
:105980004149F86809F0A2F87AE00121B86807F007
:10599000E1FE7862786A0DF003FE03467B847B8C1F
:1059A0004EF66022934204D93849F86809F08EF81F
:1059B00066E00221B86807F0CDFEF861344B1B6841
:1059C000184602F024FC0346FB76FB691B786F2B1C
:1059D00007D1042387F82F302E49F86809F076F8AC
:1059E0001EE0FB691B782F2B1AD9FB691B78332B20
:1059F00016D8F8690DF0D4FD034687F82F30FA7EEB
:105A000097F82F3042FA03F303F00103002B07D07D
:105A100097F82F301A462049F86809F057F82FE018
:105A20000321B86807F096FE786178690DF0B8FD3B
:105A300003463B613B69B3F5FA7F04D33B6940F60B
:105A4000B832934204D91549F86809F03FF817E0D5
:105A50007B8C1846FFF72EFB0D4B1B6897F82F2009
:105A60001146184602F088FD094B1B683A6992B24C
:105A70001146184602F099FD0949F86809F026F820
:105A80003037BD4680BD00BF5472030888720308DA
:105A90002C000020B8720308D07203087870030845
:105AA000CC6F030880B584B000AFF860B9607A604D
:105AB000FFF7C4FA0349F86809F008F800BF103787
:105AC000BD4680BDCC6F030880B584B000AFF860E0
:105AD000B9607A60FFF7D6FA0349F86808F0F6FF74
