:020000040800F2
:100000000000082095300008452E00084D2E0008FD
:10001000552E00085D2E0008652E00080000000027
:100020000000000000000000000000006D2E00082D
:100030007B2E000800000000892E0008972E000883
:10004000E5300008E5300008E5300008E53000083C
:10005000E5300008E5300008E5300008E53000082C
:10006000E5300008E5300008E5300008E53000081C
:10007000E5300008E5300008E5300008E53000080C
:10008000E5300008E5300008E5300008E5300008FC
:10009000E5300008E5300008E5300008E5300008EC
:1000A000E5300008C1AC0008E5300008E530000884
:1000B00011AD0008E5300008E5300008E530000823
:1000C000E5300008E5300008E5300008E5300008BC
:1000D000E5300008E5300008E5300008E5300008AC
:1000E000E5300008E5300008E5300008E53000089C
:1000F000E5300008E5300008E5300008E53000088C
:10010000E5300008E5300008E5300008E53000087B
:10011000E5300008E5300008E5300008E53000086B
:10012000B32E0008BF2E0008CD2E000811B4000821
:10013000D92E0008E5300008E5300008E530000859
:10014000E5300008E5300008E5300008E53000083B
:10015000E530000819AF0008E53000088173000899
:10016000E5300008E5300008E5300008E53000081B
:10017000E5300008E5300008E53000080000000028
:10018000E5300008E53000083D430008E530000890
:10019000E5300008E5300008E5300008E5300008EB
:1001A0000000000000000000E5300008E530000815
:1001B000E5300008E5300008E5300008E5300008CB
:1001C000E5300008E530000800000000E5300008D8
:1001D000E5300008E5300008E5300008E5300008AB
:1001E000E5300008E5300008E5300008E53000089B
:0801F00000000000E5300008EA
:1002000010B5054C237833B9044B13B10448AFF350
:1002100000800123237010BD104400200000000066
:10022000DC69010808B5034B1BB103490348AFF370
:10023000008008BD0000000014440020DC690108B3
:1002400010F8012B11F8013B012A28BF9A42F7D080
:10025000D01A7047000000000000000000000000FD
:1002600001F0FF01102A2BDB10F0070F08D010F867
:10027000013B013A8B422DD010F0070F42B3F6D16B
:10028000F0B441EA012141EA014122F007047FF084
:1002900000070023F0E80256083C85EA010586EADB
:1002A000010685FA47F5A3FA87F586FA47F6A5FA17
:1002B00087F68EB9EED1F0BC01F0FF0102F0070223
:1002C00032B110F8013B013A83EA010313B1F8D1CE
:1002D0000020704701387047002D06BF35460338AF
:1002E000073815F0010F07D1013015F4807F02BFE8
:1002F000013015F4C03F0130F0BC0138704700BF39
:10030000034613F8012B002AFBD1181A0138704755
:100310007BB972B90029BEBF00204FF0004106E052
:1003200008BF00281CBF6FF000414FF0FF3000F005
:10033000D3B9ADF1080C6DE904CE002909DB002B1F
:100340001ADB00F04DF8DDF804E0DDE9022304B02B
:100350007047404261EB4101002B1BDB00F040F88D
:10036000DDF804E0DDE9022304B0404261EB410125
:10037000524263EB43037047524263EB430300F086
:100380002FF8DDF804E0DDE9022304B0404261EB20
:1003900041017047524263EB430300F021F8DDF85E
:1003A00004E0DDE9022304B0524263EB43037047EB
:1003B00053B94AB9002908BF00281CBF4FF0FF31CC
:1003C0004FF0FF3000F088B9ADF1080C6DE904CEB4
:1003D00000F006F8DDF804E0DDE9022304B0704720
:1003E0002DE9F047089D8E4604468846002B4AD1E9
:1003F0008A42174662D9B2FA82F64EB1C6F120039C
:1004000001FA06F820FA03F3B74043EA0808B440BB
:100410004FEA174E1FFA87FCB8FBFEF1230C0EFBC8
:10042000118843EA084301FB0CF29A4209D9FB18F0
:1004300001F1FF3080F0EA809A4240F2E780023911
:100440003B449A1AA3B2B2FBFEF00EFB102243EA21
:10045000024300FB0CFC9C4509D9FB1800F1FF325C
:1004600080F0D6809C4540F2D3803B44023840EA7D
:100470000140A3EB0C0300211DB1F3400022C5E9AC
:100480000032BDE8F0878B4205D90DB1C5E9000106
:1004900000210846F5E7B3FA83F1002946D17345F8
:1004A00002D3824200F20581841A6EEB030201201E
:1004B0009046002DE5D0C5E90048E2E7002A00F0AB
:1004C0009080B2FA82F6002E40F0A4808A1A030CC3
:1004D0004FEA174E80B2BCB20121B2FBFEFC0EFB0C
:1004E0001C2243EA024304FB0CF29A4207D9FB1890
:1004F0000CF1FF3802D29A4200F2E080C4469B1A07
:10050000B3FBFEF20EFB123340EA034302FB04F49A
:100510009C4207D9FB1802F1FF3002D29C4200F244
:10052000CA8002461B1B42EA0C40A5E7C1F1200627
:100530008B4022FA06F71F430EFA01F420FA06F365
:100540002EFA06FE4FEA1749234300FA01F81FFA74
:1005500087FCBEFBF9F01C0C09FB10EE44EA0E44CC
:1005600000FB0CFEA64502FA01F209D93C1900F184
:10057000FF3A80F09C80A64540F2998002383C44C6
:10058000A4EB0E041FFA83FEB4FBF9F309FB13443A
:100590004EEA044403FB0CFCA44508D93C1903F1C2
:1005A000FF3E80F08280A4457FD9023B3C4443EA71
:1005B0000040A4EB0C04A0FB02EC64457346E1464A
:1005C00062D35FD05DB1B8EB030264EB090404FAB7
:1005D00006F622FA01F31E43CC40C5E9006400216F
:1005E0004FE7B1FBF2FC010C41EA0E4180B240EA58
:1005F00001423B4638463C46B846BE462026B1FB43
:10060000F7F1A2EB080241EA0C4166E7014618E760
:1006100010462CE7C6F120022EFA02F3B740B14093
:1006200020FA02F24FEA174E0A43B3FBFEF8BCB2BF
:100630000EFB1833110C41EA034108FB04F9B040EA
:1006400089454FEA104380B23ED9791808F1FF3C42
:1006500001D289451FD8A1EB0901B1FBFEF909FBC5
:1006600004F80EFB191192B242EA0142424529D226
:10067000BA1809F1FF31C4D24245C2D2A9F1020130
:100680003A44BEE7F0459DD2BEEB02036CEB070C8B
:100690000138E14696E7A7EB09094944A8F1020CA5
:1006A000B1FBFEF909FB04F8DBE773467FE7504630
:1006B00066E70846FDE63B44023A33E7ACF1020C3C
:1006C0003B441CE749469CE7A1EB0901C446B1FB4A
:1006D000FEF909FB04F8C4E7704700BF80B400AF1F
:1006E000044BDB681B0A03F007031846BD465DF8A0
:1006F000047B704700ED00E080B483B000AF034698
:10070000FB7197F90730002B0BDBFB7903F01F021D
:10071000074997F907305B09012000FA02F241F816
:10072000232000BF0C37BD465DF8047B704700BF37
:1007300000E100E080B483B000AF03463960FB7194
:1007400097F90730002B0ADB3B68DAB20C4997F9BE
:1007500007301201D2B20B4483F800230AE03B6851
:10076000DAB20849FB7903F00F03043B1201D2B25D
:100770000B441A7600BF0C37BD465DF8047B70470A
:1007800000E100E000ED00E080B489B000AFF86067
:10079000B9607A60FB6803F00703FB61FB69C3F192
:1007A0000703042B28BF0423BB61FB690433062B1A
:1007B00002D9FB69033B00E000237B614FF0FF326D
:1007C000BB6902FA03F3DA43BB681A407B699A40BB
:1007D0004FF0FF317B6901FA03F3D9437B680B408B
:1007E000134318462437BD465DF8047B704780B438
:1007F00089B000AFF860B9607A60FB682C331946A5
:10080000BB6803F440734FF44072BA61BA6992FA5C
:10081000A2F27A617A69B2FA82F2D2B2D3409B0034
:100820000B44FB61FB691A68BB6803F01F031F21BF
:1008300001FA03F3DB431A407B6803F01F01BB6836
:1008400003F01F0301FA03F31A43FB691A6000BFA8
:100850002437BD465DF8047B704780B483B000AF99
:10086000786039607B689B6823F480623B681A4338
:100870007B689A6000BF0C37BD465DF8047B70470B
:1008800080B48DB000AFF860B9607A60FB680C335B
:100890001946BB6803F000734FF00072BA61BA6981
:1008A00092FAA2F27A617A69B2FA82F2D2B2D340B3
:1008B0009B000B44FB62FB6A1A68BB6803F0F87389
:1008C0004FF0F8713962396A91FAA1F1F961F96969
:1008D000B1FA81F1C9B2CB40072101FA03F3DB433E
:1008E0001A40BB6803F0F8734FF0F871B962B96A47
:1008F00091FAA1F17962796AB1FA81F1C9B2CB407A
:10090000796801FA03F31A43FB6A1A6000BF3437AF
:10091000BD465DF8047B704780B485B000AFF860D9
:10092000B9607A600D4ABB6813441B781A46FB68AD
:1009300013441B6823F0C0020849BB680B441B78B2
:100940001946FB680B4419467B6813430B6000BFD4
:100950001437BD465DF8047B704700BF68920108FC
:1009600080B485B000AFF860B9607A600D4ABB68AA
:1009700013441B781A46FB6813441B6823F49072D7
:100980000849BB680B441B781946FB680B441946A1
:100990007B6813430B6000BF1437BD465DF8047BD2
:1009A000704700BF6892010880B485B000AFF8605E
:1009B000B9607A600D4ABB6813441B781A46FB681D
:1009C00013441B6823F400720849BB680B441B786E
:1009D0001946FB680B4419467B6813430B6000BF44
:1009E0001437BD465DF8047B704700BF689201086C
:1009F00080B485B000AFF860B9607A600D4ABB681A
:100A000013441B781A46FB6813441B6823F4806266
:100A10000849BB680B441B781946FB680B44194610
:100A20007B6813430B6000BF1437BD465DF8047B41
:100A3000704700BF6892010880B485B000AFF860CD
:100A4000B9607A600D4ABB6813441B781A46FB688C
:100A500013441B6823F4C0520849BB680B441B783D
:100A60001946FB680B4419467B6813430B6000BFB3
:100A70001437BD465DF8047B704700BF68920108DB
:100A800080B485B000AFF860B9607A600D4ABB6889
:100A900013441B781A46FB6813441B6823F4C042B6
:100AA0000849BB680B441B781946FB680B44194680
:100AB0007B6813430B6000BF1437BD465DF8047BB1
:100AC000704700BF6892010880B485B000AFF8603D
:100AD000B9607A600D4ABB6813441B781A46FB68FC
:100AE00013441B6823F440320849BB680B441B784D
:100AF0001946FB680B4419467B6813430B6000BF23
:100B00001437BD465DF8047B704700BF689201084A
:100B100080B485B000AFF860B9607A600D4ABB68F8
:100B200013441B781A46FB6813441B6823F0F052E9
:100B30000849BB680B441B781946FB680B441946EF
:100B40007B6813430B6000BF1437BD465DF8047B20
:100B5000704700BF6892010880B483B000AF78602E
:100B600039600C4A3B6813441B781A467B6813446F
:100B70005B6908493A680A44127811467A680A445F
:100B800023F00403536100BF0C37BD465DF8047BBE
:100B9000704700BF6892010880B483B000AF7860EE
:100BA0007B681B6843F001027B681A6000BF0C374A
:100BB000BD465DF8047B704780B483B000AF7860B9
:100BC0007B681B6823F400327B681A6000BF0C3717
:100BD000BD465DF8047B704780B483B000AF786099
:100BE0007B681B6823F400227B681A6000BF0C3707
:100BF000BD465DF8047B704780B485B000AFF860F7
:100C0000B9607A60FB68DA68064B1340B9687A68A5
:100C10000A431A43FB68DA6000BF1437BD465DF82B
:100C2000047B704701F8FFFF80B483B000AF7860A9
:100C30007B68DB6823F400427B68DA6000BF0C3716
:100C4000BD465DF8047B704780B483B000AF786028
:100C50007B685B6843F000727B685A6000BF0C37AA
:100C6000BD465DF8047B704780B483B000AF786008
:100C70007B684CF6CC421A6000BF0C37BD465DF86D
:100C8000047B704780B483B000AF78607B6845F226
:100C900055521A6000BF0C37BD465DF8047B7047A3
:100CA00080B483B000AF786039603B6803F007021E
:100CB0007B685A6000BF0C37BD465DF8047B704707
:100CC00080B483B000AF786039603B68C3F30B0237
:100CD0007B689A6000BF0C37BD465DF8047B7047A7
:100CE00080B483B000AF786039603B68C3F30B0217
:100CF0007B681A6100BF0C37BD465DF8047B704706
:100D000080B483B000AF78607B68DB6803F00703D2
:100D1000002B01D1012300E0002318460C37BD460B
:100D20005DF8047B704780B483B000AF78607B6867
:100D30001B6843F040027B681A6000BF0C37BD4659
:100D40005DF8047B704780B483B000AF7860396091
:100D50007B685B6823F010023B681A437B685A602B
:100D600000BF0C37BD465DF8047B704780B483B08C
:100D700000AF78607B685B6843F008027B685A606C
:100D800000BF0C37BD465DF8047B704780B483B06C
:100D900000AF78607B685B6823F008027B685A606C
:100DA00000BF0C37BD465DF8047B704780B483B04C
:100DB00000AF78607B681B6843F080027B681A6034
:100DC00000BF0C37BD465DF8047B704780B483B02C
:100DD00000AF78607B681B6823F080027B681A6034
:100DE00000BF0C37BD465DF8047B704780B485B00A
:100DF00000AF786039603B68012B28D03B68042B3A
:100E000023D03B68102B1ED03B68402B19D03B6889
:100E1000B3F5807F13D03B68B3F5806F0DD03B688E
:100E2000B3F5805F07D03B68B3F5803F01D107235E
:100E30000EE008230CE006230AE0052308E0042363
:100E400006E0032304E0022302E0012300E0002384
:100E5000FB737B6818331946FB7B0B4AD35C0B444E
:100E6000BB60BB681A68FB7B0849CB5C194604234E
:100E70008B40DB431A40BB681A6000BF1437BD4685
:100E80005DF8047B704700BF709201087C920108F6
:100E900080B485B000AF786039603B68012B28D002
:100EA0003B68042B23D03B68102B1ED03B68402BA3
:100EB00019D03B68B3F5807F13D03B68B3F5806FE2
:100EC0000DD03B68B3F5805F07D03B68B3F5803F3A
:100ED00001D107230EE008230CE006230AE00523D6
:100EE00008E0042306E0032304E0022302E00123D8
:100EF00000E00023FB737B6818331946FB7B0A4A2A
:100F0000D35C0B44BB60BB681A68FB7B0749CB5CB6
:100F1000194608238B401A43BB681A6000BF143778
:100F2000BD465DF8047B7047709201087C92010811
:100F300080B483B000AF786039607B689A68064BF4
:100F400013403A681A437B689A6000BF0C37BD466D
:100F50005DF8047B704700BFF8BFFEFF80B483B02C
:100F600000AF786039607B685B6823F070023B6893
:100F70001A437B685A6000BF0C37BD465DF8047B9E
:100F8000704780B483B000AF786039607B685B687D
:100F900023F470023B681A437B685A6000BF0C3729
:100FA000BD465DF8047B704780B483B000AF7860C5
:100FB0007B689B6823F080027B689A6000BF0C37D7
:100FC000BD465DF8047B704780B483B000AF7860A5
:100FD0007B681B6843F001027B681A6000BF0C3716
:100FE000BD465DF8047B704780B483B000AF786085
:100FF00039607B681B6823F4F8123B681B041A43B2
:101000007B681A6000BF0C37BD465DF8047B7047F3
:1010100080B483B000AF786039607B681B6823F0D0
:1010200078723B685B051A437B681A6000BF0C3717
:10103000BD465DF8047B704780B483B000AF786034
:101040007B689B6843F480427B689A6000BF0C37E2
:10105000BD465DF8047B704780B483B000AF786014
:1010600039607B689B6823F400423B681A437B68C5
:101070009A6000BF0C37BD465DF8047B704780B4B2
:1010800083B000AF78607B685B6823F490427B6834
:101090005A607B689B6823F02A027B689A6000BFD5
:1010A0000C37BD465DF8047B704780B483B000AF59
:1010B000786039607B683A689A6100BF0C37BD463A
:1010C0005DF8047B704780B483B000AF786039600E
:1010D0003B681A047B689A6100BF0C37BD465DF817
:1010E000047B704780B485B000AF7860084B1A6B02
:1010F00007497B6813430B63054B1A6B7B681340EE
:10110000FB60FB6800BF1437BD465DF8047B704789
:101110000038024080B485B000AF7860084B1A6C8C
:1011200007497B6813430B64054B1A6C7B681340BB
:10113000FB60FB6800BF1437BD465DF8047B704759
:101140000038024080B485B000AF7860084B5A6C1C
:1011500007497B6813434B64054B5A6C7B6813400B
:10116000FB60FB6800BF1437BD465DF8047B704729
:101170000038024080B500AF00F01EFC00BF80BD0B
:1011800080B500AF0FF046FD00F02EF801F028FB0F
:1011900001F0AEFA00F054FB00F00EFC00F0D2FCBF
:1011A00000F04EFD00F090F800F0C8FD00F0DCFF0C
:1011B00001F0B4F800F074FE01F04CF901F0FEF912
:1011C00000F0D6F900F084FA00F046FF00F08AFF44
:1011D00000F0D0FB00F012FB01F085FF01F09BFF57
:1011E00001F0B5FF00BFFDE780B594B000AF07F197
:1011F0001C0334220021184613F036FC07F10803C3
:1012000000221A605A609A60DA601A612C4B1B6CDB
:101210002B4A43F080531364294B1B6C03F080531B
:101220007B607B68274B1B68264A43F4404313606E
:10123000244B1B6803F440433B603B680923FB617C
:101240004FF480333B6201233B6302237B634FF403
:101250008003BB630C23FB63C0233B6402237B64DA
:101260000223BB640223FB6407F11C03184610F041
:1012700003F80346002B01D001F09AFD0FF0ACFFFC
:101280000346002B01D001F093FD0F23BB60022326
:10129000FB6000233B614FF4A0537B614FF480530C
:1012A000BB6107F108030621184610F093FA0346C4
:1012B000002B01D001F07CFD00BF5037BD4680BD42
:1012C000003802400070004080B592B000AF07F1D6
:1012D0003C0300221A605A609A6007F1280300223A
:1012E0001A605A609A60DA601A6107F118030022E6
:1012F0001A605A609A60DA603B4600221A605A60AF
:101300009A60DA601A615A614FF48070FFF71AFF31
:101310000420FFF7E7FE0220FFF7E4FE01233B6015
:1013200003237B6000233B613B461946844811F050
:10133000DAF902233B6003237B6000233B613B46D9
:1013400019467F4811F0CFF904233B6003237B60EB
:1013500000233B613B461946794811F0C4F9082344
:101360003B6003237B6000233B613B461946744886
:1013700011F0B9F910233B6003237B6000233B612C
:101380003B4619466E4811F0AEF920233B6003231B
:101390007B6000233B613B461946694811F0A3F985
:1013A00001233B6003237B6000233B613B461946DE
:1013B000644811F098F902233B6003237B6000230B
:1013C0003B613B4619465F4811F08DF9002204212C
:1013D0005D48FFF79DFB002204215B48FFF79CFA64
:1013E000002204215848FFF76FFB4FF4807204215C
:1013F0005548FFF7B5FA002204215348FFF7D4FA05
:101400004FF4806204215048FFF7F2FA4FF4006273
:1014100004214D48FFF710FB4FF4005204214A48C5
:10142000FFF72EFB04214848FFF796FB0023FB63E0
:1014300000233B644FF480737B6407F13C0319463F
:10144000424810F0D7FF0023BB624FF4E003FB6279
:1014500000233B6300237B634FF44073BB6307F1BE
:1014600028031946394810F0F1FF00213748FFF7EB
:10147000F4F94FF48033BB610023FB6107F11803DB
:101480001946334810F06EFF0A224FF400712F48BE
:10149000FFF7ADF901220A212C48FFF7F1F92D4A97
:1014A00040F205212948FFF7A2F9012229492748DE
:1014B000FFF7E6F9284A40F20A212448FFF797F996
:1014C000012225492148FFF7DBF9244A40F20F2188
:1014D0001E48FFF78CF9012220491C48FFF7D0F97C
:1014E0001F4A4FF405711948FFF781F901221C4981
:1014F0001648FFF7C5F91B4A40F219211348FFF7B8
:1015000076F9012217491148FFF7BAF9164A4FF444
:1015100080710E48FFF76BF9012213490B48FFF762
:10152000AFF9124A40F205110848FFF760F90122AD
:101530000E490648FFF7A4F900BF4837BD4680BDF5
:101540000008024000040240006402400020014004
:10155000002301400B0030000C0060000D009000E3
:101560000E00C0000F00F000080080030900B00367
:1015700080B58EB000AF07F12C0300221A605A60CC
:101580009A6007F1180300221A605A609A60DA60C4
:101590001A613B4600221A605A609A60DA601A614A
:1015A0005A614FF40070FFF7CDFD0120FFF79AFD5F
:1015B00004233B6003237B6000233B613B461946C9
:1015C0003E4811F090F808233B6003237B60002322
:1015D0003B613B461946394811F085F84FF00072DF
:1015E00002213748FFF794FA002202213448FFF71E
:1015F00093F9002202213248FFF766FA4FF4807215
:1016000002212F48FFF7ACF9002202212C48FFF7F6
:10161000CBF94FF4806202212948FFF7E9F94FF432
:10162000006202212648FFF707FA4FF40052022118
:101630002348FFF725FA02212148FFF78DFA0023FE
:10164000FB6200233B634FF480737B6307F12C0341
:1016500019461C4810F0CEFE0023BB614FF48013E6
:10166000FB6100233B6200237B624FF44073BB624B
:1016700007F118031946134810F0E8FE4FF4806193
:101680001048FFF7EAF8104A4FF400710D48FFF7D1
:10169000AEF801220C490B48FFF7F2F80B4A40F272
:1016A00005210848FFF7A3F8002208490548FFF77D
:1016B000E7F800BF3837BD4680BD00BF00000240DC
:1016C0000064024000210140030090020200600219
:1016D00080B58EB000AF07F12C0300221A605A606B
:1016E0009A6007F1180300221A605A609A60DA6063
:1016F0001A613B4600221A605A609A60DA601A61E9
:101700005A614FF48060FFF71DFD0120FFF7EAFCEE
:1017100002233B6003237B6000233B613B46194669
:10172000324810F0E0FF4FF0806201213048FFF7AF
:10173000EFF9002201212E48FFF7EEF800220121E7
:101740002B48FFF7C1F94FF4807201212848FFF7B9
:1017500007F9002201212648FFF726F94FF480629D
:1017600001212348FFF744F94FF40062012120488A
:10177000FFF762F94FF4005201211D48FFF780F98D
:1017800001211B48FFF7E8F90023FB6200233B63BC
:1017900000237B6307F12C031946164810F02AFE3C
:1017A0000023BB610023FB6100233B6200237B62BB
:1017B0004FF44073BB6207F1180319460D4810F04F
:1017C00045FE4FF480610B48FFF747F80A4A4FF493
:1017D00000710848FFF70BF8012207490548FFF799
:1017E0004FF800BF3837BD4680BD00BF0000024043
:1017F00000640240002201400100300280B500AFC9
:101800000D4B0E4A1A600C4B00221A710A4B002233
:101810005A71094B00225A61074B00229A61064B0C
:1018200001221A6204480FF06DFB0346002B01D021
:1018300001F0BEFA00BF80BD2C4400200030024001
:1018400080B5B2B000AF07F1AC0300221A605A6055
:101850009A60DA601A615A619A6107F19403002272
:101860001A605A609A60DA601A615A613B1D9022D0
:101870000021184613F0F8F84FF480437B600023F2
:10188000BB663B1D184610F057F90346002B01D0EC
:1018900001F08EFA0220FFF725FC4023C7F89430B0
:1018A0000223C7F898300323C7F89C300123C7F8F8
:1018B000A0300023C7F8A4300423C7F8A83007F1EC
:1018C00094031946284810F00EFF8023C7F894307F
:1018D0000223C7F898300323C7F89C300123C7F8C8
:1018E000A0300023C7F8A4300423C7F8A83007F1BC
:1018F000940319461C4810F0F6FE4FF40010FFF751
:1019000009FC1A48FFF7A0F9002200211748FFF749
:1019100073F91648FFF788F91448FFF75DF9134883
:10192000FFF74AF90023C7F8AC30114BC7F8B030C5
:101930000023C7F8B4300023C7F8B8300023C7F835
:10194000BC300023C7F8C0300023C7F8C43007F10B
:10195000AC031946054810F0DDFF0448FFF71CF9F9
:1019600000BFC837BD4680BD00040240005400409F
:10197000FF63106080B500AF0E48FFF775F90D48A2
:10198000FFF780F905210B48FFF78AF94FF47A61D8
:101990000848FFF795F900BF0648FFF7B1F903467D
:1019A000012BF9D14FF47A610248FFF799F900BF92
:1019B00080BD00BF0030004080B590B000AF07F19F
:1019C000180328220021184613F04EF83B46002247
:1019D0001A605A609A60DA601A615A614FF4805056
:1019E000FFF7B0FB0120FFF77DFB10233B600223D4
:1019F0007B600323BB600023FB6000233B61052366
:101A00007B613B4619464C4810F06DFE20233B603D
:101A100002237B600323BB600023FB6000233B6148
:101A200005237B613B461946434810F05CFE40238A
:101A30003B6002237B600323BB600023FB60002329
:101A40003B6105237B613B4619463B4810F04BFE4A
:101A500080233B6002237B600323BB600023FB6089
:101A600000233B6105237B613B461946324810F059
:101A70003AFE4FF0C06203213048FFF749F8402298
:101A800003212E48FEF748FF4FF4003203212B4874
:101A9000FFF71AF8002203212848FEF761FF002211
:101AA00003212648FEF780FF4FF48062032123487C
:101AB000FEF79EFF002203212048FEF7BDFF002213
:101AC00003211E48FEF7DCFF03211C48FFF744F802
:101AD000FEF704FE0346002200211846FEF754FEDE
:101AE000034619462320FEF725FE2320FEF704FEB9
:101AF0000023BB610023FB614FF4E0633B620223E0
:101B00007B620023BB620023FB6200237B63002314
:101B1000BB630723FB6307F118031946084811F05C
:101B2000D1FA00210648FFF70EF90548FFF72EF914
:101B300000BF4037BD4680BD000002400064024047
:101B40000030014080B590B000AF07F118032822A3
:101B50000021184612F088FF3B4600221A605A60A6
:101B60009A60DA601A615A614FF48040FFF7D2FA46
:101B70000220FFF7B7FA4FF400533B6002237B606B
:101B80000323BB600023FB6000233B6105237B61D3
:101B90003B461946284810F0A6FD4FF480433B60B1
:101BA00002237B600323BB600023FB6000233B61B7
:101BB00005237B613B4619461F4810F094FD4FF406
:101BC00000433B6002237B600323BB600023FB6078
:101BD00000233B6105237B613B461946164810F004
:101BE00082FD0023BB614FF48273FB614FF4E0631D
:101BF0003B6200237B620123BB624FF40073FB62F4
:101C000018233B6300237B630023BB630723FB6331
:101C100007F118031946094811F054FA0021074842
:101C2000FFF791F80548FFF7B1F80448FFF77BF894
:101C300000BF4037BD4680BD000402400038004070
:101C400080B590B000AF07F1180328220021184694
:101C500012F00AFF3B4600221A605A609A60DA606E
:101C60001A615A614FF40040FFF754FA0420FFF75D
:101C700039FA4FF480633B6002237B600323BB602F
:101C80000023FB6000233B6106237B613B46194632
:101C9000284810F028FD4FF400633B6002237B606E
:101CA0000323BB600023FB6000233B6106237B61B1
:101CB0003B4619461F4810F016FD4FF480533B6019
:101CC00002237B600323BB600023FB6000233B6196
:101CD00006237B613B461946164810F004FD00239D
:101CE000BB614FF48273FB614FF4E0633B620023FE
:101CF0007B620023BB624FF40073FB6200233B63F3
:101D000000237B630023BB630723FB6307F11803F6
:101D10001946094811F0D6F900210748FFF713F8D2
:101D20000548FFF723F80448FEF7FDFF00BF4037E2
:101D3000BD4680BD00080240003C004080B590B028
:101D400000AF07F1180328220021184612F08CFE7C
:101D50003B4600221A605A609A60DA601A615A6142
:101D60004FF40050FFF7EEF91020FFF7BBF94FF4E6
:101D700080533B6002237B600323BB600023FB6036
:101D800000233B6105237B613B461946414810F027
:101D9000AAFC4FF400533B6002237B600323BB602B
:101DA0000023FB6000233B6105237B613B46194612
:101DB000384810F098FC4FF480433B6002237B606E
:101DC0000323BB600023FB6000233B6105237B6191
:101DD0003B4619462F4810F086FC4FF00062002168
:101DE0002D48FEF795FE002200212B48FEF794FDBA
:101DF0004FF4403200212848FEF766FE4FF480720F
:101E000000212548FEF7ACFD002200212248FEF704
:101E1000CBFD4FF4806200211F48FEF7E9FD4FF42F
:101E2000006200211C48FEF707FE4FF4005200211B
:101E30001948FEF725FE00211748FEF78DFE002306
:101E4000BB614FF48273FB614FF470633B6200230C
:101E50007B620023BB624FF40073FB6200233B6391
:101E600000237B630023BB630723FB6307F1180395
:101E700019460A4811F026F900210848FEF763FFC9
:101E80000648FEF773FF0548FEF74DFF00BF4037D9
:101E9000BD4680BD00100240006402400034014095
:101EA00080B590B000AF07F1180328220021184632
:101EB00012F0DAFD3B4600221A605A609A60DA603E
:101EC0001A615A614FF40010FFF73CF90220FFF746
:101ED00009F908233B6002237B600323BB600023D6
:101EE000FB6000233B6108237B613B461946574852
:101EF00010F0F9FB10233B6002237B600323BB60DF
:101F00000023FB6000233B6108237B613B461946AD
:101F10004E4810F0E8FB20233B6002237B60032344
:101F2000BB600023FB6000233B6108237B613B46D1
:101F30001946464810F0D7FB4FF00072052144487F
:101F4000FEF7E6FD402205214148FEF7E5FC4FF48F
:101F5000403205213E48FEF7B7FD002205213C48EE
:101F6000FEF7FEFC002205213948FEF71DFD4FF467
:101F7000806205213648FEF73BFD002205213448EA
:101F8000FEF75AFD002205213148FEF779FD0521B3
:101F90002F48FEF7E1FD4FF0007206212C48FEF7B6
:101FA000B7FD002206212A48FEF7B6FC4FF4403266
:101FB00006212748FEF788FD002206212448FEF767
:101FC000CFFC002206212248FEF7EEFC4FF480628F
:101FD00006211F48FEF70CFD002206211C48FEF7D3
:101FE0002BFD002206211A48FEF74AFD062118485B
:101FF000FEF7B2FD0023BB614FF48273FB614FF427
:10200000E0633B6200237B620023BB624FF40073FA
:10201000FB6200233B6300237B630023BB63072336
:10202000FB6307F1180319460A4811F04BF8002129
:102030000848FEF788FE0748FEF798FE0548FEF7B9
:1020400072FE00BF4037BD4680BD00BF00040240A5
:10205000006402400054014080B586B000AF3B1DD3
:1020600000221A605A609A60DA601A610120FFF754
:1020700069F8FEF733FB0346002200211846FEF7FD
:1020800083FB034619461920FEF754FB1920FEF77F
:1020900033FB0023BB800023BB604FF6FF73FB6064
:1020A00000233B6100237B613B1D19460C4811F066
:1020B000FDF80B48FEF78AFE00210948FEF738FFBD
:1020C00000210748FEF74AFF00210548FEF759FFA7
:1020D0000348FEF769FF00BF1837BD4680BD00BF4B
:1020E0000000014080B586B000AF3B1D00221A60A1
:1020F0005A609A60DA601A610120FFF70BF8FEF768
:10210000EDFA0346002202211846FEF73DFB034686
:1021100019461C20FEF70EFB1C20FEF7EDFA0023EB
:10212000BB800023BB604FF0FF33FB6000233B61AB
:102130003B1D19464FF0804011F0B8F84FF0804039
:10214000FEF734FE00214FF08040FEF7F1FE002143
:102150004FF08040FEF702FF4FF08040FEF724FF73
:1021600000BF1837BD4680BD80B594B000AF07F101
:102170003C0300221A605A609A60DA601A6107F123
:102180001C0320220021184612F06EFC3B1D002289
:102190001A605A609A60DA601A615A610420FEF788
:1021A000B9FF0A23BB8700233B644CF250337B64A6
:1021B0004FF40073BB6407F13C031946554811F016
:1021C00075F85448FEF702FE00215248FEF7B0FEB3
:1021D00001215048FEF75CFE6023FB6100233B6257
:1021E00000237B620023BB620023FB6207F11C0318
:1021F0001A460121474811F0F3F801214548FEF73E
:10220000F5FD10214348FEF743FE07F11C031A4673
:102210001021404811F0E4F810213E48FEF7E6FD99
:102220004FF480713B48FEF733FE07F11C031A465A
:102230004FF48071374811F0D3F84FF4807135486E
:10224000FEF7D4FD4FF480513248FEF721FE07F12E
:102250001C031A464FF480512E4811F0C1F84FF478
:1022600080512C48FEF7C2FD00212A48FEF776FE79
:102270002848FEF799FE0820FEF734FF4FF48053FC
:102280007B600223BB600023FB6000233B610023D3
:102290007B610223BB613B1D19461F4810F023FAE6
:1022A0004FF400537B600223BB600023FB600023DC
:1022B0003B6100237B610223BB613B1D194616482D
:1022C00010F011FA4FF480437B600223BB600023BF
:1022D000FB6000233B6100237B610223BB613B1D4C
:1022E00019460D4810F0FFF94FF400437B600223BC
:1022F000BB600023FB6000233B6100237B61022362
:10230000BB613B1D1946044810F0EDF900BF503782
:10231000BD4680BD00080040000C024080B5B2B050
:1023200000AF07F1AC0300221A605A609A60DA60CD
:102330001A615A619A6107F1940300221A605A6087
:102340009A60DA601A615A613B1D9022002118469A
:1023500012F08AFB4FF480537B6000233B663B1DE9
:1023600018460FF0E9FB0346002B01D000F020FDDA
:102370004FF08040FEF7CEFE1020FEF7B3FE802324
:10238000C7F894300223C7F898300323C7F89C306D
:102390000023C7F8A0300123C7F8A4300823C7F8EA
:1023A000A83007F194031946284810F09CF94FF41F
:1023B0008073C7F894300223C7F898300323C7F816
:1023C0009C300023C7F8A0300023C7F8A4300823AE
:1023D000C7F8A83007F1940319461C4810F083F998
:1023E000FEF77CF9034600220B211846FEF7CCF9D4
:1023F000034619465220FEF79DF95220FEF77CF95C
:102400004FF4E133C7F8AC300023C7F8B0300023F5
:10241000C7F8B4300023C7F8B8300C23C7F8BC3075
:102420000023C7F8C0300023C7F8C43007F1AC035D
:102430001946074811F0F4FA0548FEF720FE044853
:10244000FEF7C2FD00BFC837BD4680BD0010024088
:102450000078004080B5B2B000AF07F1AC030022B5
:102460001A605A609A60DA601A615A619A6107F1DB
:10247000940300221A605A609A60DA601A615A6105
:102480003B1D90220021184612F0EEFA40237B609B
:102490000023BB643B1D18460FF04EFB0346002B88
:1024A00001D000F085FC1020FEF74CFE0120FEF765
:1024B00019FE4FF40073C7F894300223C7F8983020
:1024C0000323C7F89C300023C7F8A0300023C7F8C7
:1024D000A4300723C7F8A83007F1940319463548FC
:1024E00010F001F94FF48063C7F894300223C7F865
:1024F00098300323C7F89C300023C7F8A03000238E
:10250000C7F8A4300723C7F8A83007F19403194689
:10251000284810F0E8F84FF48053C7F894300223AD
:10252000C7F898300323C7F89C300023C7F8A030C1
:102530000023C7F8A4300723C7F8A83007F1940395
:1025400019461C4810F0CFF84FF4E133C7F8AC300F
:102550000023C7F8B0300023C7F8B4300023C7F811
:10256000B8300C23C7F8BC300023C7F8C0300023B4
:10257000C7F8C43007F1AC0319460F4811F050FA00
:102580000D48FEF759FD00210B48FEF765FD0021BF
:102590000948FEF73DFD00210748FEF725FD0648E6
:1025A000FEF76DFD0448FEF70FFD00BFC837BD46BE
:1025B00080BD00BF000002400010014080B5B2B0F5
:1025C00000AF07F1AC0300221A605A609A60DA602B
:1025D0001A615A619A6107F1940300221A605A60E5
:1025E0009A60DA601A615A613B1D902200211846F8
:1025F00012F03AFA4FF400637B600023FB653B1D49
:1026000018460FF099FA0346002B01D000F0D0FBDA
:102610002020FEF797FD0420FEF764FD4023C7F855
:1026200094300223C7F898300323C7F89C30002366
:10263000C7F8A0300023C7F8A4300823C7F8A83093
:1026400007F194031946284810F04DF88023C7F885
:1026500094300223C7F898300323C7F89C30002336
:10266000C7F8A0300023C7F8A4300823C7F8A83063
:1026700007F1940319461C4810F035F8FEF72EF8C0
:10268000034600220B211846FEF77EF80346194642
:102690004720FEF74FF84720FEF72EF84FF4E133BE
:1026A000C7F8AC300023C7F8B0300023C7F8B43007
:1026B0000023C7F8B8300C23C7F8BC300023C7F894
:1026C000C0300023C7F8C43007F1AC0319460748EF
:1026D00011F0A6F90548FEF7D2FC0448FEF774FC99
:1026E00000BFC837BD4680BD00080240001401404D
:1026F00080B500AF4FF48000FEF7F4FCFDF7EEFF6D
:102700000346002200211846FEF73EF8034619460C
:102710003820FEF70FF83820FDF7EEFFFDF7DEFF5B
:102720000346002200211846FEF72EF803461946FC
:102730003920FDF7FFFF3920FDF7DEFFFDF7CEFF63
:10274000034600220A211846FEF71EF803461946E2
:102750003A20FDF7EFFF3A20FDF7CEFFFDF7BEFF71
:102760000346002200211846FEF70EF803461946DC
:102770003B20FDF7DFFF3B20FDF7BEFFFDF7AEFF7F
:10278000034600220A211846FDF7FEFF03461946BC
:102790003C20FDF7CFFF3C20FDF7AEFFFDF79EFF8D
:1027A0000346002209211846FDF7EEFF03461946AD
:1027B0004420FDF7BFFF4420FDF79EFFFDF78EFF8D
:1027C0000346002201211846FDF7DEFF03461946A5
:1027D0004520FDF7AFFF4520FDF78EFF00BF80BD10
:1027E00080B586B000AF3B4600221A605A609A60FE
:1027F000DA601A615A611020FEF774FC0420FEF7BB
:1028000071FC8020FEF76EFC0120FEF76BFC0220BD
:10281000FEF768FC0820FEF765FC0421C048FEF7BF
:1028200052FC0821BE48FEF74EFC1021BC48FEF7C2
:102830004AFC2021BA48FEF746FC4021B848FEF782
:1028400042FC4FF40051B748FEF73DFC4FF4804185
:10285000B448FEF738FC4FF40041B248FEF733FCB1
:102860004FF40061B048FEF72EFC4FF40061AF4812
:10287000FEF729FC4FF40041AC48FEF724FC01218F
:10288000AB48FEF720FC0221A948FEF71CFC1021F2
:10289000A748FEF718FC2021A548FEF714FC4021AC
:1028A000A348FEF710FC04219F48FEF7FEFB4FF4FF
:1028B00080619B48FEF7F9FB4FF400619848FEF7F2
:1028C000F4FB4FF400419648FEF7EFFB4FF48061B4
:1028D0009548FEF7EAFB4FF480519348FEF7E5FB7D
:1028E0004FF480719248FEF7E0FB4FF4007190487E
:1028F000FEF7DBFB4FF480718A48FEF7D6FB4FF4FE
:1029000080718A48FEF7D1FB04218948FEF7CDFB90
:1029100080218748FEF7C9FB4FF480718248FEF79B
:10292000C4FB4FF400718048FEF7BFFB01217C48D7
:10293000FEF7BBFB02217A48FEF7B7FB04233B609E
:1029400001237B600023BB600023FB6000233B610D
:102950003B46194672480FF0C6FE08233B60012330
:102960007B600023BB600023FB6000233B613B4690
:1029700019466B480FF0B7FE10233B6001237B60C4
:102980000023BB600023FB6000233B613B461946EC
:1029900063480FF0A8FE20233B6001237B600023E7
:1029A000BB600023FB6000233B613B4619465C484B
:1029B0000FF099FE40233B6001237B600023BB6046
:1029C0000023FB6000233B613B46194654480FF04F
:1029D0008AFE4FF400533B6001237B600023BB6001
:1029E0000023FB6000233B613B4619464D480FF036
:1029F0007AFE4FF480433B6001237B600023BB6081
:102A00000023FB6000233B613B46194645480FF01D
:102A10006AFE4FF400433B6001237B600023BB60F0
:102A20000023FB6000233B613B4619463D480FF005
:102A30005AFE04233B6001237B600023BB6000231C
:102A4000FB6000233B613B46194637480FF04BFEC5
:102A50004FF480633B6001237B600023BB60002355
:102A6000FB6000233B613B4619462D480FF03BFEBF
:102A70004FF400633B6001237B600323BB600023B2
:102A8000FB6000233B613B46194625480FF02BFEB7
:102A90004FF400433B6001237B600023BB600023B5
:102AA000FB6000233B613B4619461D480FF01BFEAF
:102AB0004FF480633B6001237B600023BB600023F5
:102AC000FB6001233B613B46194617480FF00BFEA4
:102AD0004FF400633B6001237B600023BB60002355
:102AE000FB6002233B613B4619460F480FF0FBFD9C
:102AF0004FF480533B6001237B600023BB600023C5
:102B0000FB6000233B613B46194607480FF0EBFD95
:102B10004FF480733B6001237B6003230AE000BF16
:102B20000010024000080240000402400000024081
:102B3000000C0240BB600023FB6000233B613B466E
:102B4000194696480FF0CFFD4FF400733B60012308
:102B50007B600323BB600023FB6000233B613B469B
:102B600019468E480FF0BFFD4FF480633B60002391
:102B70007B6000233B613B46194688480FF0B3FD5C
:102B80004FF400633B6000237B6000233B613B46C6
:102B9000194682480FF0A7FD4FF480733B60012374
:102BA0007B600023BB600023FB6001233B613B464D
:102BB00019467B480FF097FD4FF400733B600023EC
:102BC0007B6000233B613B46194675480FF08BFD47
:102BD0004FF480733B6001237B600323BB600023C1
:102BE000FB6000233B613B4619466E480FF07BFDBE
:102BF0004FF400633B6001237B600023BB60002334
:102C0000FB6000233B613B46194666480FF06BFDB5
:102C10004FF400433B6001237B600023BB60002333
:102C2000FB6000233B613B4619465E480FF05BFDAD
:102C300001233B6001237B600023BB600023FB601A
:102C400000233B613B46194654480FF04CFD0223DC
:102C50003B6001237B600023BB600023FB600023FB
:102C60003B613B4619464D480FF03DFD04233B6058
:102C700001237B600023BB600023FB6000233B61DA
:102C80003B46194645480FF02EFD08233B600023C4
:102C90007B6000233B613B46194640480FF023FD13
:102CA00010233B6001237B600023BB600023FB609B
:102CB00000233B613B46194638480FF014FD2023A2
:102CC0003B6001237B600023BB600023FB6000238B
:102CD0003B613B46194631480FF005FD40233B6000
:102CE00001237B600023BB600023FB6000233B616A
:102CF0003B46194629480FF0F6FC80233B60012330
:102D00007B600023BB600023FB6000233B613B46EC
:102D1000194622480FF0E7FC4FF480733B60012313
:102D20007B600023BB600023FB6000233B613B46CC
:102D300019461D480FF0D7FC4FF400733B60012388
:102D40007B600023BB600023FB6000233B613B46AC
:102D5000194615480FF0C7FC01233B6001237B6037
:102D60000023BB600023FB6000233B613B46194608
:102D70000E480FF0B8FC02233B6001237B60002368
:102D8000BB600023FB6000233B613B4619460748BC
:102D90000FF0A9FC00BF1837BD4680BD000C0240F3
:102DA00000080240000002400004024000100240FF
:102DB00080B400AF72B600BF00BFFDE780B483B03F
:102DC00000AF0F4B1B6C0E4A43F0805313640C4B47
:102DD0001B6C03F080537B607B68094B5B6C084A7B
:102DE00043F480435364064B5B6C03F480433B60C5
:102DF0003B6800BF0C37BD465DF8047B704700BFE1
:102E00000038024080B485B000AF78607B681B68F2
:102E10000A4A93420BD10A4B1B6B094A43F4805375
:102E20001363074B1B6B03F48053FB60FB6800BF0D
:102E30001437BD465DF8047B704700BF0030024088
:102E40000038024080B400AF00BFFDE780B400AF9F
:102E500000BFFDE780B400AF00BFFDE780B400AF66
:102E600000BFFDE780B400AF00BFFDE780B400AF56
:102E700000BFBD465DF8047B704780B400AF00BF63
:102E8000BD465DF8047B704780B400AF00BFBD460F
:102E90005DF8047B704780B500AF07F0DDF806F001
:102EA000F1FF0DF05DFE0DF027FF08F095FB00BF70
:102EB00080BD80B500AF07F059FE00BF80BD80B473
:102EC00000AF00BFBD465DF8047B704780B500AF22
:102ED00007F006F800BF80BD80B500AF07F030F9FD
:102EE00000BF80BD80B400AF01231846BD465DF829
:102EF000047B704780B582B000AF7860396011F014
:102F000013FE034616221A604FF0FF3318460837A7
:102F1000BD4680BD80B582B000AF78604FF0FF3114
:102F20007868FFF7E7FF00BFFDE780B586B000AF28
:102F3000F860B9607A6000237B610AE0AFF300803B
:102F40000146BB685A1CBA60CAB21A707B69013369
:102F50007B617A697B689A42F0DB7B681846183798
:102F6000BD4680BD80B586B000AFF860B9607A60BC
:102F700000237B6109E0BB685A1CBA601B781846C5
:102F8000AFF300807B6901337B617A697B689A4289
:102F9000F1DB7B6818461837BD4680BD80B483B02E
:102FA00000AF78604FF0FF3318460C37BD465DF830
:102FB000047B704780B483B000AF786039603B68B1
:102FC0004FF400525A60002318460C37BD465DF896
:102FD000047B704780B483B000AF7860012318464B
:102FE0000C37BD465DF8047B704780B485B000AFF8
:102FF000F860B9607A60002318461437BD465DF862
:10300000047B704780B586B000AF7860144A154BDA
:10301000D31A7B617B693B61134B1B68002B02D188
:10302000114B124A1A60104B1A687B6813443A69B4
:103030009A4207D211F078FD03460C221A604FF035
:10304000FF3309E0084B1B68FB60074B1A687B687D
:103050001344054A1360FB6818461837BD4680BD07
:10306000000008200004000050440020486B0320AA
:1030700080B400AF064BD3F88830054A43F47003A0
:10308000C2F8883000BFBD465DF8047B704700BFC2
:1030900000ED00E0DFF834D0FFF7EAFF0C480D49FF
:1030A0000D4A002302E0D458C4500433C4188C42A3
:1030B000F9D30A4A0A4C002301E013600432A24209
:1030C000FBD311F037FDFEF75BF8704700000820D6
:1030D0000000002010440020F09E01081044002051
:1030E000486B0320FEE780B500AF06F0A7FF06F0AF
:1030F00079FE00F0A3F804F029F804F0E9FE02F0EC
:1031000021FB00F04BFF04F07DFD04F065FC06F0B0
:10311000E5F900BF80BD80B500AF012000F0B0F838
:10312000042004F045F8022004F0F8FE052002F027
:103130002BFB062004F0A0FD072000F055FF08201F
:1031400004F08AFC0A2006F00BFA00BF80BD80B5AF
:1031500000AF0DF0E5FB00BF80BD80B582B000AFD1
:103160007860396006F01EFD07F058FE07F0E6FAB9
:103170007B68012283F84D207B68002283F852206F
:1031800000BF0837BD4680BD80B584B000AF786011
:1031900039607B685B69FB607B685B69396878686C
:1031A00098470346FB72FB7A002B08D1FB6806495F
:1031B000786898477B685B6904497868984700BFDE
:1031C0001037BD4680BD00BFC4920108B09201080F
:1031D00080B584B002AF786039607B68002B03D182
:1031E0000021134806F0F4F978683B685A683B6898
:1031F0009B68009313460F4A0F490DF0DFFB3B68B5
:103200001A687B685A617B6818337A681B211846F4
:103210000DF040FC7B68183318460DF07DFC3B68D0
:103220001A7B7B6883F8482000BF0837BD4680BD05
:10323000A0920108893100085B31000890B587B081
:1032400002AF122300930A23B422094909480CF063
:1032500095FF094B3C460FCB84E80F003B461946CF
:103260000648FFF7B5FF00BF1437BD4690BD00BF4D
:10327000E0440020B0440020F869010854440020D4
:1032800080B582B000AF0346FB71FB791946034855
:103290000DF0AEFB00BF0837BD4680BD5444002092
:1032A00080B582B000AF786039603B681B88013B15
:1032B0001D2B55D801A252F823F000BF353300086A
:1032C000613300086133000861330008613300088E
:1032D000613300086133000861330008613300087E
:1032E000613300086133000861330008613300086E
:1032F000613300086133000861330008613300085E
:10330000613300086133000861330008613300084D
:10331000613300086133000861330008613300083D
:103320006133000861330008433300084D3300085F
:10333000573300087B68183318460DF0EDFB012366
:103340000FE07B68094A5A6100230AE07B68084A5B
:103350005A61002305E07B68064A5A61002300E0B9
:10336000022318460837BD4680BD00BF79330008E8
:10337000C9350008E536000880B590B002AF786026
:1033800039603B681B88013B202B00F2028101A2BF
:1033900052F823F019340008933500089F340008D0
:1033A00093350008933500089335000893350008DD
:1033B00093350008933500089335000893350008CD
:1033C00093350008933500089335000893350008BD
:1033D00093350008933500089335000893350008AD
:1033E000933500089335000893350008933500089D
:1033F000933500089335000893350008813500089F
:10340000933500089335000893350008C13400084F
:10341000F534000829350008604B3B62AC2300936B
:103420005F4B3A6A5F4960480CF011FE7B681833C5
:10343000002244F6206118460DF04EFB7B6893F89D
:103440002C301946786800F0C2FA786800F0D8FA93
:103450007B68DB8DFB607B681B8E3B617B685B8ED2
:103460007B617B689B6ABB617B6893F82C30FB6156
:103470007B6893F82D301A460021786800F000FA36
:1034800007F10C03184607F01FF906F005FD07F0D9
:1034900021FB7B68002283F8482001237AE03F4B20
:1034A0007B62CF2300933E4B7A6A40493E480CF042
:1034B000CEFD7B68183318460DF02EFB012369E022
:1034C000364BBB62D8230093354BBA6A384936482D
:1034D0000CF0BDFD7B6893F84830002B04D17B686D
:1034E000012283F8482003E07B68032283F8482008
:1034F00001234FE0294BFB62E3230093284BFA6A38
:103500002C4929480CF0A3FD7B6893F84830012B27
:1035100004D17B68022283F8482003E07B68032201
:1035200083F84820012335E01C4B7B63ED23009397
:103530001B4B7A6B20491C480CF089FD7B6893F883
:103540004830022B04D17B68052283F8482003E031
:103550007B68032283F84820104B3B63F3230093DE
:103560000F4B3A6B154910480CF071FD144B1B685A
:10357000184600F01BFE7B68124A5A61002309E0DE
:103580007B68042283F848207B680E4A5A61002336
:1035900000E0022318463837BD4680BD086A01089E
:1035A000106A0108386A010818CD0020586A01081D
:1035B000946A0108C06A0108E86A0108146B0108EE
:1035C00008000020A132000880B582B000AF78600A
:1035D00039603B681B88242B1ED0242B73DC232BE3
:1035E0003ED0232B6FDC012B02D0222B2BD06AE0A4
:1035F0007B68183318460DF08FFA7B681B6C344AD1
:1036000053607B68DB6B324A1360324B1B68184691
:1036100004F064F9012357E02D4B5B68B3F5804F4C
:1036200028BF4FF480439AB22B4B1A80284B1B685B
:103630005B00294A128852001146284A184607F0B2
:1036400043FC012340E0234B1868234B1B881A4698
:103650007B6893F84530214904F01CF9012333E0DD
:103660001B4B5B681C4A12889B1A194A5360184B03
:103670001B68194A12881344154A1360144B5B687F
:10368000002B16D0124B5B68B3F5804F28BF4FF468
:1036900080439AB2104B1A800D4B1B685B000E4A98
:1036A0001288520011460D4A184607F00DFC0123FE
:1036B0000AE0084B1B68184604F020F97B68084AAA
:1036C0005A61002300E0022318460837BD4680BD3A
:1036D0009445002004000020A0C50020A045002043
:1036E000A132000880B586B002AF786039603B68CF
:1036F0001B88012B02D0222B1BD032E01B4BBB605E
:1037000040F2571300931A4BBA681A491A480CF042
:103710009EFC7B68183318460DF0FEF97B68DB6B66
:103720005B00164A4FF40041184607F0CDFB012319
:1037300018E00E4BFB6040F25F1300930C4BFA68ED
:103740000F490D480CF083FC0C4807F0E3FD0D4BCE
:103750001B68184604F0F8F97B680B4A5A6100238D
:1037600000E0022318461037BD4680BD086A0108F4
:10377000106A0108306B010818CD0020A045002018
:103780004C6B01080C000020A132000880B584B009
:1037900000AFF860B9607A60FB70FB68BA68DA6302
:1037A000FB687A681A64FB68FA7883F84520084B4E
:1037B0001B684FF6FF72A3F84220FB6805491846C4
:1037C0000DF040F9002318461037BD4680BD00BFFC
:1037D00004000020EC92010880B582B000AF786050
:1037E0007B680022DA637B684FF480421A647B684E
:1037F000012283F84520084B1B684FF6FF72A3F89F
:1038000042207B68054918460DF01CF90023184634
:103810000837BD4680BD00BF04000020EC920108BF
:1038200080B582B000AF78607B68044918460DF01F
:1038300009F9002318460837BD4680BD14930108D6
:1038400080B582B000AF78607B68044918460DF0FF
:10385000F9F8002318460837BD4680BD28930108B3
:1038600080B582B000AF78607B68044918460DF0DF
:10387000E9F8002318460837BD4680BD3C9301088F
:1038800080B584B000AFF860B9607A60BB68012B86
:1038900002D87B68642B01D9062318E0FB6893F8F3
:1038A0004D30002B06D0002006F038F9FB680022CE
:1038B00083F84D207968B86806F02EFA7B68D9B293
:1038C000FA68BB68134449330A461A700023184645
:1038D0001037BD4680BD80B582B000AF78603960DA
:1038E0003B68242B01D9062314E07B6893F84D3004
:1038F000012B06D0012006F011F97B68012283F824
:103900004D20386806F084F93B68DAB27B6883F8AA
:103910004B20002318460837BD4680BD80B582B0D5
:1039200000AF78607B6893F84D30012B06D0012002
:1039300006F0F4F87B68012283F84D2006F07CF94C
:103940007B68FF2283F84B20002318460837BD46CA
:1039500080BD80B582B000AF786039603B68082BCD
:1039600001D9062314E07B6893F84D30012B06D073
:10397000012006F0D3F87B68012283F84D203868D7
:1039800006F066F93B68DAB27B6883F84C200023C6
:1039900018460837BD4680BD80B582B000AF78605C
:1039A0007B6893F84D30012B06D0012006F0B6F865
:1039B0007B68012283F84D2006F05EF97B68FF22C8
:1039C00083F84C20002318460837BD4680BD80B5DB
:1039D00082B000AF786039603B68242B01D90623A0
:1039E0000AE006F03BFF386806F060FF3B68DAB299
:1039F0007B6883F84E20002318460837BD4680BDFB
:103A000080B582B000AF786006F03CFF0023184616
:103A10000837BD4680BD000080B483B000AF786039
:103A200039603B681B68002B04D03B681B68154A53
:103A3000934201D906231FE03B68DB68B3F5006FB2
:103A400001D9062318E03B681A687B689A623B68D4
:103A5000DA887B68DA853B681A897B681A863B6856
:103A60005A897B685A863B68DA687B685A633B6888
:103A70001A697B689A63002318460C37BD465DF8C7
:103A8000047B704700350C0080B483B000AF7860D1
:103A900039603B685B79642B01D9062305E03B68FC
:103AA0005A797B6883F82D20002318460C37BD46D1
:103AB0005DF8047B704780B483B000AF78603960F4
:103AC0003B681B79002B03D03B681B79242B01D961
:103AD000062305E03B681A797B6883F82C200023D5
:103AE00018460C37BD465DF8047B7047B0B483B010
:103AF00000AF786039603B681B68002B04D03B68DE
:103B00001B68184A934201D9062326E03B681B79BB
:103B1000002B03D03B681B79242B01D906231CE022
:103B20003B685B79642B01D9062316E03B68DB68B0
:103B3000B3F5006F01D906230FE03B681B69002B2A
:103B400001D1062309E07B683A6803F12804154691
:103B50000FCD0FC42B682360002318460C37BD46D9
:103B6000B0BC704700350C00B0B483B000AF7860D3
:103B700039603A687B68154603F128040FCC0FC5FD
:103B800023682B6000BF0C37BD46B0BC70470000F7
:103B900080B584B000AF78607B682833FB60FB6839
:103BA0001B68002B04D0FB681B68134A934201D9A1
:103BB00006231CE0FB681B79002B03D0FB681B79F4
:103BC000242B01D9062312E0FB685B79642B01D911
:103BD00006230CE0FB68DB68B3F5006F01D9062310
:103BE00005E07B68054918460CF02CFF00231846B9
:103BF0001037BD4680BD00BF00350C00D8920108CB
:103C000080B582B000AF78600B467B807B889B03D9
:103C10001A467B68DA637B684FF480421A647B68DB
:103C2000012283F844207B68044918460CF00AFFFF
:103C3000002318460837BD4680BD00BF0093010829
:103C400080B483B000AF786039607B683A689A616D
:103C500000BF0C37BD465DF8047B704780B483B06D
:103C600000AF786039603B681A047B689A6100BFD6
:103C70000C37BD465DF8047B7047000080B582B00C
:103C800000AF78600B46FB707B68FA7811461846E7
:103C90000BF0D6FF00F0DEFA02467B68C3F8042280
:103CA0007B68002283F80C227B68012283F80D22B6
:103CB000FB78032B04D8FB7806497A6841F8232067
:103CC0007B68012118460BF05DFC00BF0837BD463C
:103CD00080BD00BFA8C8002080B582B000AF78606A
:103CE0007A687B6893F80032194610460BF0A8FFFB
:103CF0007B68012118460BF045FC00F0ABFA024648
:103D00007B68C3F804227B68002283F80C2200BF82
:103D10000837BD4680BD80B483B000AF786039609D
:103D20007B683A68C3F8082200BF0C37BD465DF8CF
:103D3000047B704780B586B000AFF860B9607A60E8
:103D4000FB687A68B96818460BF0D4FE00F082FA76
:103D50007861FB6893F8E230002B35D0FB6893F86C
:103D6000E4301A4613465B0013449B00FA68134480
:103D70003B613B691B687A69D31A40F6B8329342BB
:103D80001ED9FB6893F80C3283F00103DBB2002BE1
:103D90001AD0FB68D3F80832002B04D0FB68D3F8A4
:103DA0000832F8689847FB68012283F80C22FB6808
:103DB00093F80D32002B07D0F868FFF78DFF03E072
:103DC000FB68002283F80C22FB687A69C3F804229E
:103DD00000BF1837BD4680BD80B483B000AF7860A7
:103DE00000BF0C37BD465DF8047B704780B500AF5F
:103DF0004FF48072084909480CF0E6FA4FF48072DB
:103E0000074908480CF0E0FA064B044A06490748FF
:103E10000CF01CF800BF80BDE0C90020B8C900202C
:103E2000E0CA0020CCC9002000780040E0CB002090
:103E300080B582B000AF786039607B68002B03D119
:103E400001210F4805F0C4FB7B680E4A9A610E49B8
:103E50000C48FFF760FF7B6824330A220A211846CA
:103E60000CF03AFE09480CF00DF87B689B690021C4
:103E70001846FFF703FF00BF0837BD4680BD00BFEF
:103E80005093010898C60020D93D0008E0CB0020DF
:103E900080B584B000AF786039607B68002B03D1B7
:103EA0000421124805F094FB3B68002B03D1052147
:103EB0000E4805F08DFB7B685B69FB607B685B6986
:103EC0003968786898470346FB72FB7A002B08D163
:103ED000FB680749786898477B685B69054978689B
:103EE000984700BF1037BD4680BD00BF5093010802
:103EF000689301085C93010880B584B002AF7860D4
:103F000039607B68002B03D10221214805F060FB5A
:103F100078683B68DA683B681B69009313461D4A62
:103F20001D490CF04BFD7B6824337A680D2118463F
:103F30000CF0B0FD7B6834337A68102118460CF021
:103F4000A9FD7B6844337A68112118460CF0A2FD64
:103F50003B681A687B685A613B685A687B689A615B
:103F60003B689A687B68DA617B68243318460CF0FA
:103F7000D3FD7B68343318460CF0CEFD7B684433A8
:103F800018460CF0C9FD00BF0837BD4680BD00BF14
:103F900050930108913E0008313E0008B0B588B04A
:103FA00002AFFFF723FF0C2300930A2378220A496C
:103FB0000A480CF0E3F80A4B3C1D1D460FCD0FC418
:103FC0002B6823603B1D19460648FFF795FF00BF8D
:103FD0001837BD46B0BD00BF20C60020F8C5002080
:103FE0006C6B0108A4C5002080B582B000AF034609
:103FF000FB71FB79194603480CF0FAFC00BF083747
:10400000BD4680BDA4C5002080B586B002AF7860F3
:1040100039607B68002B03D103214F4805F0D8FAA3
:104020003B681B88013B102B00F2918001A252F8E3
:1040300023F000BF794000084F4100084F410008BD
:104040004F4100084F4100084F4100084F41000810
:104050004F4100084F4100084F4100084F41000800
:104060004F4100088B400008D14000080D41000876
:104070000D410008474100087B6824330A220A21C9
:1040800018460CF029FD012362E0032005F0CAF870
:10409000324B4FF480721A607B68DB692F4A3049DB
:1040A00018460BF00FFF0346002B08D07B689B6976
:1040B0002A4A12682A491846FFF73CFE06E07B6848
:1040C0009B69002200211846FFF734FE01233FE0E0
:1040D0007B68243318460CF01FFD4FF40061214823
:1040E000FFF7AEFD204BBB60C92300931F4BBA689E
:1040F0001F4920480BF0ABFF7B683433002244F6A5
:10410000206118460CF0E8FC012321E07B68343381
:1041100018460CF001FD4FF400611248FFF79EFDB8
:10412000114BFB60D1230093104BFA6812491148E0
:104130000BF08DFF7B6824330A220A2118460CF00D
:10414000CBFC012304E005F089F9012300E0022300
:1041500018461037BD4680BD50930108100000205E
:10416000B8C8002000040240806B0108886B010879
:10417000AC6B010818CD0020E06B010880B586B05B
:1041800000AF786007F10C0300221A605A609A6051
:104190000E23BB817B6807F10C02114618460CF018
:1041A00051FC002318461837BD4680BD80B586B047
:1041B00000AF786007F10C0300221A605A609A6021
:1041C0000F23BB817B6807F10C02114618460CF0E7
:1041D00039FC002318461837BD4680BD80B582B033
:1041E00000AF78607B68443300224FF47A71184640
:1041F0000CF072FC002318460837BD4680BD000055
:1042000080B582B000AF0346FB71064BDB699B684B
:1042100018460CF0E1F903469BB218460837BD4634
:1042200080BD00BFA4C5002080B582B000AF0346AA
:104230000A46FB711346BB71054BDB69BA7911461F
:1042400018460BF0BEFE00BF0837BD4680BD00BF5C
:10425000A4C5002080B500AF0CF0D0FC0346184682
:1042600080BD000080B586B000AF396011461A46A7
:104270000346FB710B46BB7113467B717B79032BA5
:1042800034D87B791C4A52F823303B613B69002BC0
:104290002ED01A4B1B68002B05D0184B1B68BA791F
:1042A000F8793968984701F0D3F9F86001F0DAF944
:1042B000B86000237B6114E07B69DB00FA6813447B
:1042C0001B78FA799A4209D17B69DB00FA681344BA
:1042D0005B68BA793968386998470AE07B690133C5
:1042E0007B617A69BB689A42E6DB02E000BF00E0CE
:1042F00000BF1837BD4680BDA8C80020F0CB002005
:1043000080B584B000AFF8607A601A460B46FB7245
:104310001346BB72FB68BA7A114618460BF08EF949
:104320000346002B05D0F868BB7AF97A7A680BF05F
:104330003DF900BF1037BD4680BD000080B500AF1D
:10434000074BDB6918460BF0B7FE054BDB691846D7
:104350000BF0E1FE034B4FF0FF321A6200BF80BD4D
:10436000A4C500200078004080B588B002AFF86096
:10437000B9601346FB71002300220121F868FFF7A2
:10438000BFFF0A4B7B61FB7901934A230093084BE3
:104390007A69084908480BF05AFE084B1B68184612
:1043A000FFF71CFF00BF1837BD4680BD146C010825
:1043B0001C6C0108486C010818CD00201400002076
:1043C00080B58AB004AFF860B9601346FB71BB6872
:1043D0001B781A06BB6801331B781B041A43BB68A1
:1043E00002331B781B021343BA680332127813435B
:1043F0007B61FB79BA680321F868FFF781FF094BFD
:104400003B61FB797A690292019356230093064B34
:104410003A69064906480BF01AFE00BF1837BD4638
:1044200080BD00BF146C01081C6C0108646C01089D
:1044300018CD002080B58CB006AFF860B960134687
:10444000FB71BB681B78FB75BB6801331B78BB75C0
:10445000BB6802331B787B75BB6803331B783B75E5
:10446000FB79BA680521F868FFF74AFF3B7D7A7D42
:10447000B97DF87D07F088F80A4B3B61FB7DBA7D7A
:10448000797D387D04900391029201936423009317
:10449000054B3A69054906480BF0D9FD00BF1837AE
:1044A000BD4680BD146C01081C6C01089C6C0108A1
:1044B00018CD002080B58AB002AFF860B96013460D
:1044C000FB71FF233B75BB681B78FB770E4B1B68AA
:1044D000FA7F1146184603F01FFC07F1140201236E
:1044E0000921F868FFF70CFF084BBB61FB7F0193C4
:1044F0006D230093064BBA69064907480BF0A7FDE8
:1045000000BF2037BD4680BD20000020146C01088C
:104510001C6C0108C46C010818CD002090B5A3B034
:1045200008AFF860B9601346FB714FF63F73BB826A
:104530000023A7F86630BB681B781BB21B021AB2B7
:10454000BB6801331B781BB21343A7F86430BB6808
:1045500002331B781BB21B021AB2BB6803331B78F1
:104560001BB21343A7F86230BB6804331B781BB23D
:104570001B021AB2BB6805331B781BB21343A7F8A2
:104580006030BB6806331B7887F85F30BB68073341
:104590001B7887F85E30BB6808331B7887F85D307E
:1045A000BB6809331B7887F85C30BB680A331B781B
:1045B00087F85B30BB680B331B781BB21B021AB247
:1045C000BB680C331B781BB213431BB2A7F85830DF
:1045D000BB680D331B7887F8573097F85F30072B8F
:1045E0000ED9B7F866300133A7F86630844B3B65C7
:1045F00082230093834B3A6D834984480BF027FD57
:1046000097F85E30072B0ED9B7F866300133A7F85C
:1046100066307B4BFB64872300937A4BFA6C7C49B2
:104620007A480BF014FD97F85C300F2B0ED9B7F8D1
:1046300066300133A7F86630714BBB648C2300935E
:10464000704BBA6C734971480BF001FD97F85B3001
:104650000F2B0ED9B7F866300133A7F86630684BD8
:104660007B6491230093674B7A6C6B4967480BF02E
:10467000EEFCB7F86630002B40F0A880674B186856
:10468000B7F86410B7F86220B7F8604097F8573071
:104690000693B7F85830059397F85B30049397F872
:1046A0005C30039397F85D30029397F85E30019386
:1046B00097F85F300093234604F0B6FC504B3B6400
:1046C000B7F964300193972300934E4B3A6C5449E9
:1046D0004E480BF0BCFC4A4BFB63B7F962300193C8
:1046E00098230093474BFA6B4E4948480BF0AFFCB8
:1046F000434BBB63B7F96030019399230093414B5F
:10470000BA6B494941480BF0A2FC3D4B7B6397F8DB
:104710005F3001939A2300933A4B7A6B43493B48AD
:104720000BF095FC364B3B6397F85E3001939B236F
:104730000093344B3A6B3E4934480BF088FC304BC5
:10474000FB6297F85D30002B01D13A4B00E03A4B09
:1047500001939C2300932B4BFA6A38492B480BF0AA
:1047600076FC274BBB6297F85C3001939D23009346
:10477000244BBA6A324925480BF069FC204B7B6216
:1047800097F85B3001939E2300931E4B7A6A2D4964
:104790001E480BF05CFC1A4B3B62B7F85830019393
:1047A0009F230093174B3A6A274918480BF04FFC98
:1047B000134BFB6197F857300193A0230093114BE3
:1047C000FA69224911480BF042FC03E03E233B7595
:1047D0003E237B7507F1140202230B21F868FFF7D3
:1047E0008FFD074BBB61A8230093064BBA6918499C
:1047F00006480BF02CFC00BF6C37BD4690BD00BFD7
:10480000146C01081C6C0108E86C010818CD00202C
:10481000146D0108406D01086C6D0108180000203E
:10482000986D0108B46D0108D06D0108EC6D0108A8
:10483000086E0108246E0108286E01082C6E01081C
:104840004C6E0108706E0108946E0108B06E01088C
:10485000CC6E010880B588B002AFF860B96013462D
:10486000FB71FF23FB740D4B7B61AE2300930C4B5C
:104870007A690C490C480BF0EAFB0C4B1B68184694
:1048800003F01AFF07F1130201230D21F868FFF767
:1048900037FD00BF1837BD4680BD00BF146C01084E
:1048A0001C6C0108F06E010818CD002018000020D3
:1048B00080B588B002AFF860B9601346FB71FF2382
:1048C000FB740D4B7B61B62300930C4B7A690C494A
:1048D0000C480BF0BCFB0C4B1B68184603F0D0FED9
:1048E00007F1130201230F21F868FFF709FD00BF4C
:1048F0001837BD4680BD00BF146C01081C6C010850
:104900001C6F010818CD00201800002080B592B05F
:1049100002AFF860B9601346FB714FF63F73BB827C
:10492000002387F83F30BB681B781B02BA6801324E
:10493000127813439BB21A465201D21A92001344C2
:10494000DB00BB87BB6802331B7887F83B30BB6852
:1049500003331B781BB21B021AB2BB6804331B78EB
:104960001BB213431BB23B87BB8F4EF660229342B0
:104970000ED997F83F30013387F83F30584B7B63AF
:10498000C6230093574B7A6B574958480BF05FFB8F
:1049900097F83B30042B0FD997F83F30013387F855
:1049A0003F304F4B3B62CC2300934E4B3A6A504909
:1049B0004E480BF04CFB49E097F83B30042B21D1DB
:1049C00007F1140202231121F868FFF799FC494B03
:1049D0001B680421184604F041F9414BBB62D22305
:1049E0000093404BBA6A444940480BF030FB3C4BC3
:1049F0007B62D32300933B4B7A6A40493B480BF0E0
:104A000026FB6AE03B4B1B68184603F072FF034627
:104A100087F8333097F8332097F83B3042FA03F3A6
:104A200003F00103002B11D097F83F30013387F8D2
:104A30003F302B4BFB6297F83B300193DC23009314
:104A4000284BFA6A2E4929480BF001FB3B8FB3F53E
:104A5000FA7F04D33B8F40F6B832934210D997F8CF
:104A60003F30013387F83F301D4BFB613B8F019393
:104A7000E32300931B4BFA6922491C480BF0E7FA29
:104A800097F83F30002B13D1BB8F184600F016FF6C
:104A9000184B1B6897F83B201146184604F0DEF8C7
:104AA000144B1B683A8F1146184604F0F0F803E0E7
:104AB0003E233B753E237B7507F11402022311212F
:104AC000F868FFF71DFC064BBB61F3230093054B11
:104AD000BA690A4905480BF0BAFA4037BD4680BDAD
:104AE000146C01081C6C0108486F010818CD0020E7
:104AF000806F010818000020AC6F0108DC6F01080E
:104B0000087001083070010880B588B002AFF86005
:104B1000B9601346FB71FF23FB7407F113020123F5
:104B20001321F868FFF7ECFB074B7B61FA23009336
:104B3000064B7A69064907480BF089FA00F082FEB5
:104B400000BF1837BD4680BD146C01081C6C0108FD
:104B50006470010818CD002080B588B002AFF860FD
:104B6000B9601346FB71FF23FB7407F113020123A5
:104B70001521F868FFF7C4FB084B7B614FF4817384
:104B80000093074B7A69074907480BF060FA00F079
:104B90007DFE00BF1837BD4680BD00BF146C010804
:104BA0001C6C01088870010818CD002080B59AB0EF
:104BB00002AFF860B9601346FB71864BBB654FF4DA
:104BC00084730093844BBA6D844985480BF03FFA97
:104BD0004FF63F733B850023A7F85E30BB681B7818
:104BE0001A06BB6801331B781B041A43BB680233E7
:104BF0001B781B021343BA680332127813437B6598
:104C0000BB6804331B781B029BB2BA68053212786A
:104C10001343A7F85230BB6806331B781B029BB2C4
:104C2000BA68073212781343A7F85030BB680833CC
:104C30001B781B029BB2BA68093212781343A7F89B
:104C40004E307B6DB3F57A7F03D37B6D654A93421B
:104C50000FD9B7F85E300133A7F85E305D4BBB6407
:104C60004FF48A7300935C4BBA6C5F495C480BF05D
:104C7000EEF9B7F85230002B0FD1B7F85E300133A0
:104C8000A7F85E30534B7B644FF48D730093524B07
:104C90007A6C564952480BF0DAF9B7F85030002BCD
:104CA0000FD1B7F85E300133A7F85E30494B3B6453
:104CB0004FF490730093484B3A6C4D4948480BF0C1
:104CC000C6F9B7F84E30002B0FD1B7F85E3001337C
:104CD000A7F85E303F4BFB634FF4937300933E4B5A
:104CE000FA6B44493E480BF0B2F9B7F85220B7F8D6
:104CF00050301A44B7F84E3013441A467B6D02FB0D
:104D000003F33D4AA2FB03239B0CBB63BB6BB3F5D0
:104D1000006F0FD9B7F85E300133A7F85E302D4B26
:104D20007B6340F22D1300932B4B7A6B33492C4855
:104D30000BF08DF9B7F85E30002B3AD17B6D7B61BB
:104D4000B7F852307B83B7F85030BB83B7F84E309A
:104D5000FB83BB6B3B622A4A7B6DB2FBF3F37B6246
:104D6000284B1B6807F1140211461846FEF754FE43
:104D70000346002B0BD1174BFB6240F23B13009311
:104D8000154BFA6A204916480BF061F917E03E23EB
:104D900087F828303E2387F829300E4B3B6340F2DA
:104DA000411300930C4B3A6B18490D480BF04FF927
:104DB00005E03E2387F828303E2387F8293007F1A5
:104DC000280202231721F868FFF79AFA00BF60371C
:104DD000BD4680BD146C01081C6C0108AC70010854
:104DE00018CD002000350C00CC70010800710108BE
:104DF000307101086071010883DE1B439071010866
:104E000040420F001C000020C4710108E471010839
:104E100080B590B002AFF860B9601346FB714FF6F1
:104E20003F73BB84BB681B7887F8373097F83730FF
:104E3000642B11D93E2387F824303E2387F8253090
:104E4000244BBB6240F255130093234BBA6A2349AB
:104E500023480BF0FCF839E0224B1B6807F11002E5
:104E600011461846FEF780FE97F837307B751D4BCC
:104E70001B6807F1100211461846FEF705FE0346AF
:104E8000002B0BD1134BFB624FF4B0730093124B0A
:104E9000FA6A154912480BF0DAF810E03E2387F859
:104EA00024303E2387F825300A4B3B634FF4B3731D
:104EB0000093094B3A6B0D4909480BF0C8F807F10C
:104EC000240202231921F868FFF71AFA3837BD4681
:104ED00080BD00BF146C01081C6C0108047201083D
:104EE00018CD00201C000020307201085C720108FF
:104EF00080B590B002AFF860B9601346FB714FF611
:104F00003F73BB84BB681B7887F8373097F837301E
:104F1000242B03D897F83730002B11D13E2387F884
:104F200024303E2387F82530244BBB624FF4BA73FC
:104F30000093234BBA6A234923480BF088F832E0E8
:104F4000224B1B6807F1100211461846FEF70CFEB3
:104F500097F837303B751D4B1B6807F1100211465F
:104F60001846FEF7A8FD0346002B0BD1134BFB623E
:104F70004FF4BF730093124BFA6A154912480BF0B5
:104F800066F810E03E2387F824303E2387F825306A
:104F90000A4B3B634FF4C2730093094B3A6B0D49C4
:104FA00009480BF054F807F1240202231B21F8688A
:104FB000FFF7A6F900BF3837BD4680BD146C010865
:104FC0001C6C01088872010818CD00201C0000200C
:104FD000B4720108D872010880B58AB002AFF860D7
:104FE000B9601346FB713F233B75184B1B6818468D
:104FF000FEF7CEFD0346002B0DD03E233B75144B30
:10500000BB614FF4C8730093124BBA69124913483D
:105010000BF01DF80FE0124B1B681846FFF7AEF8B7
:105020000B4BFB6140F2951300930A4BFA690D4953
:105030000A480BF00CF807F1140201231D21F8684F
:10504000FFF75EF900BF2037BD4680BD1C00002081
:10505000146C01081C6C0108FC72010818CD0020BA
:10506000140000202473010880B590B002AFF860EE
:10507000B9601346FB71254B1B6807F114021146FA
:105080001846FEF771FD3B6A002B11D1002387F80B
:105090002830002387F829301D4BFB624FF4D27370
:1050A00000931C4BFA6A1C491C480AF0D0FF21E00F
:1050B0003B6A1B09FB863B6A03F00F03002B02D0FF
:1050C000FB8E0133FB86124B3B63FB8E019340F258
:1050D000AB1300930F4B3A6B114910480AF0B7FF1E
:1050E000FB8E1B0A9BB2DBB287F82830FB8EDBB24B
:1050F00087F8293007F1280202231F21F868FFF7FB
:10510000FFF800BF3837BD4680BD00BF1C0000203F
:10511000146C01081C6C01084C73010818CD0020A8
:105120006C73010880B590B002AFF860B9601346A7
:10513000FB714FF63F73BB84BB681B7887F8353033
:10514000304B1B6807F1100211461846FEF70CFDA4
:10515000FB691B09FB86FB6903F00F03002B02D0E0
:10516000FB8E0133FB86FB8E002B11D13E2387F88B
:1051700024303E2387F82530234BBB6240F2BF1317
:105180000093224BBA6A224922480AF060FF2EE0BF
:1051900097F835309BB2FA8E9A4211D83E2387F8A1
:1051A00024303E2387F82530174BFB6240F2C513AD
:1051B0000093164BFA6A184916480AF048FF16E0A1
:1051C000104B1B6897F8352092B211461846FEF72F
:1051D00017FD0D4B3B6397F8353001934FF4E573A2
:1051E00000930A4B3A6B0D490A480AF030FF07F169
:1051F000240202232121F868FFF782F800BF383724
:10520000BD4680BD1C000020146C01081C6C010808
:105210009073010818CD0020AC730108D473010805
:1052200080B58CB004AFF860B9601346FB7106F02E
:10523000E3F8F861FB691B0EDBB23B75FB691B0CE5
:10524000DBB27B75FB691B0ADBB2BB75FB69DBB2AA
:10525000FB7507F1140204232321F868FFF750F8C7
:105260000A4BBB61BB681B781A46FB69029301922B
:1052700040F2D9130093064BBA69064906480AF072
:10528000E6FE00BF2037BD4680BD00BF146C01089C
:105290001C6C01080074010818CD002080B588B08E
:1052A00002AFF860B9601346FB714FF63F733B8263
:1052B00004F004FE0A4B7B6140F2E3130093094BB8
:1052C0007A69094909480AF0C2FE07F1100202236F
:1052D0002521F868FFF714F800BF1837BD4680BDD8
:1052E000146C01081C6C01082C74010818CD0020F6
:1052F00080B58CB004AFF860B9601346FB7106F05E
:105300007BF8F861FB691B0EDBB23B75FB691B0C7C
:10531000DBB27B75FB691B0ADBB2BB75FB69DBB2D9
:10532000FB7507F1140204232721F868FEF7E8FF54
:105330000A4BBB61BB681B781A46FB69029301925A
:1053400040F2F1130093064BBA69064906480AF089
:105350007EFE00BF2037BD4680BD00BF146C010833
:105360001C6C01085874010818CD002080B58AB063
:1053700002AFF860B9601346FB714FF63F733B8292
:10538000BB681B78FB77BB6801331B78BB83B7F91D
:105390001C30642B03DC97F91F30012B0FDD3E23FB
:1053A0003B743E237B74174B7B6140F2FD130093EB
:1053B000154B7A69154916480AF049FE16E0154B57
:1053C0001B6897F91F10B7F91C201846FEF758FA0A
:1053D0000C4BBB61B7F91C30019340F202230093E0
:1053E000094BBA690C490A480AF031FE07F110026C
:1053F00002232921F868FEF783FF00BF2037BD464E
:1054000080BD00BF146C01081C6C01088074010889
:1054100018CD00201C0000209874010880B58AB0C7
:1054200002AFF860B9601346FB714FF63F733B82E1
:10543000BB681B78FB77BB6801331B78BB77BB7FEE
:10544000082B05D8BB7F002B02D0FB7F012B0FD987
:105450003E233B743E237B741B4B7B6140F2112344
:1054600000931A4B7A691A491A480AF0F0FD1FE0B6
:10547000FB7F002B07D1184B1B68BA7F11461846DB
:10548000FEF729FA09E0FB7F012B06D1124B1B68BE
:10549000BA7F11461846FEF75CFA0B4BBB6140F22F
:1054A00019230093094BBA690C490A480AF0CFFD49
:1054B00007F1100202232B21F868FEF721FF00BF3D
:1054C0002037BD4680BD00BF146C01081C6C01086C
:1054D0008074010818CD00201C000020B074010861
:1054E00080B58AB002AFF860B9601346FB71FF2344
:1054F0003B75BB681B78FB7707F1140201232D2154
:10550000F868FEF7FDFEFB7F002B05D10E4B1B68F4
:105510001846FEF703FA07E0FB7F012B04D10A4B84
:105520001B681846FEF738FA084BBB614FF40A7344
:105530000093074BBA69074907480AF088FD00BF86
:105540002037BD4680BD00BF1C000020146C010840
:105550001C6C0108C474010818CD002080B58CB003
:1055600002AFF860B9601346FB7104F0E9FB034633
:10557000FB8404F00DFC0346BB843F233B75FB8C8E
:105580001B0A9BB2DBB27B75FB8CDBB2BB75BB8CA1
:105590001B0A9BB2DBB2FB75BB8CDBB23B7607F11F
:1055A000140205233321F868FEF7AAFE0E4B3B6276
:1055B000FB8C019340F2322300930C4B3A6A0C4966
:1055C0000C480AF044FD084BFB61BB8C019340F290
:1055D00033230093054BFA69074906480AF037FD63
:1055E00000BF2837BD4680BD146C01081C6C010843
:1055F000E874010818CD00201075010880B588B046
:1056000002AFF860B9601346FB71FF233B740BF0E7
:1056100075F90B4B7B6140F23B230093094B7A6990
:1056200009490A480AF013FD07F110020123352148
:10563000F868FEF765FE00BF1837BD4680BD00BFA5
:10564000146C01081C6C01083875010818CD002085
:1056500080B400AF024B1846BD465DF8047B70472E
:105660007493010880B400AF18231846BD465DF856
:10567000047B704780B582B000AF786039607B688A
:10568000183318460BF048FA00BF0837BD4680BDF6
:1056900080B584B000AF786039607B685B69FB607F
:1056A0007B685B693968786898470346FB72FB7AC8
:1056B000002B08D1FB680649786898477B685B69CE
:1056C00004497868984700BF1037BD4680BD00BFC9
:1056D000589401084494010880B584B002AF786002
:1056E00039607B68002B03D10021134803F070FF61
:1056F00078683B685A683B689B68009313460F4A7A
:105700000F490BF05BF97B6818337A68172118464C
:105710000BF0C0F93B681A687B685A617B6800220D
:1057200083F828207B68183318460BF0F5F900BF82
:105730000837BD4680BD00BF34940108915600086B
:105740007556000880B586B002AF1223009302237D
:105750002422094909480AF011FD094A3B1D07CADC
:1057600083E807003B1D19460648FFF7B5FF00BF59
:105770001037BD4680BD00BF34CC002058CC00207F
:1057800060750108F4CB002080B582B000AF0346FD
:10579000FB71FB79194603480BF02AF900BF083763
:1057A000BD4680BDF4CB002080B586B002AF7860E6
:1057B00039603B681B88012B02D0172B02D02FE0E9
:1057C00001232EE07B6893F82830002B13D1174B70
:1057D000BB605F230093164BBA68164916480AF05F
:1057E00036FC164B1B68184603F06DFA7B680122E5
:1057F00083F8282012E00D4BFB60652300930C4BCF
:10580000FA680F490C480AF022FC0C4B1B6818463A
:1058100003F0E8FA7B68002283F82820012300E0E7
:10582000022318461037BD4680BD00BF6C750108C5
:1058300074750108A475010818CD0020240000200B
:10584000BC75010880B500AF0C4B1B68184603F00F
:105850003AFA0346002B01D001230CE0084B1B88C9
:10586000074A1288194607480BF036F9064B012201
:1058700083F828200023184680BD00BF24000020A4
:10588000280000200CCC0020F4CB002080B500AF15
:1058900007480BF041F9074B1B68184603F0A2FAC2
:1058A000054B002283F828200023184680BD00BF46
:1058B0000CCC002024000020F4CB002080B483B066
:1058C00000AF0346FB80044AFB88138000BF0C37FF
:1058D000BD465DF8047B70472800002080B400AF0F
:1058E000BFF34F8F00BF064BDB6803F4E06204494F
:1058F000044B1343CB60BFF34F8F00BF00BFFDE7E6
:1059000000ED00E00400FA0580B584B000AFF86057
:10591000B9607A6004F052FB00BF1037BD4680BD0D
:1059200080B5ADF5826D00AF07F58263A3F2044345
:10593000186007F58263A3F58163196007F5826338
:10594000A3F20C431A6007F58263A3F5806318463F
:105950004FF480631A4600210FF086F807F1100318
:105960001A464FF48061002005F062FA07F5826361
:10597000A3F204430849186809F034FB07F5826371
:10598000A3F204430549186809F02CFB00BF07F592
:105990008267BD4680BD00BFD4750108E47501086B
:1059A00080B5ADF5836D00AF07F58363A3F20C43BB
:1059B000186007F58363A3F58263196007F58363B5
:1059C000A3F214431A6007F114031A464FF48061DE
:1059D000002005F03FFA07F58363A3F20C431F494B
:1059E000186809F0FFFA0023C7F8143424E007F51B
:1059F0008363A3F20442D7F8143413441B781A4685
:105A000007F58363A3F20C431549186809F0EAFA15
:105A1000D7F81434013303F00F03002B07D107F537
:105A20008363A3F20C430F49186809F0DBFAD7F837
:105A300014340133C7F81434D7F81434B3F5806F35
:105A4000D5DB07F58363A3F20C430649186809F018
:105A5000C9FA00BF07F58367BD4680BDE875010838
:105A6000007601080876010880B588B000AFF860BC
:105A7000B9607A6007F11403074A0A2118460EF04C
:105A80006DFE07F114031946F86808F034F800BFFA
:105A90002037BD4680BD00BF4080010880B584B07E
:105AA00000AFF860B9607A60FFF718FF80B588B082
:105AB00000AFF860B9607A600023BB610023FB820D
:105AC000B86808F009F903467B757B7D012B04D08B
:105AD0002E49F86809F086FA54E00121B86808F008
