:020000040802F0
:1000000000000820192E0208D52B0208DD2B02085B
:10001000E52B0208ED2B0208F52B0208000000007A
:10002000000000000000000000000000FD2B02089E
:100030000B2C020800000000192C0208272C0208D3
:10004000692E0208692E0208692E0208692E02082C
:10005000692E0208692E0208692E0208692E02081C
:10006000692E0208692E0208692E0208692E02080C
:10007000692E0208692E0208692E0208692E0208FC
:10008000692E0208692E0208692E0208692E0208EC
:10009000692E0208692E0208692E0208692E0208DC
:1000A000692E020881800208692E0208692E020862
:1000B000E1800208692E0208692E0208692E0208F2
:1000C000692E0208692E0208692E0208692E0208AC
:1000D000692E0208692E0208692E0208692E02089C
:1000E000692E0208692E0208692E0208692E02088C
:1000F000692E0208692E0208692E0208692E02087C
:10010000692E0208692E0208692E0208692E02086B
:10011000692E0208692E0208692E0208692E02085B
:10012000432C0208692E02084F2C02085987020846
:100130005B2C0208692E0208692E0208692E02084B
:10014000692E0208692E0208692E0208692E02082B
:10015000692E0208A9820208692E0208554E02087B
:10016000692E0208692E0208692E0208692E02080B
:10017000692E0208692E0208692E0208000000009C
:10018000692E0208692E02086D3F0208692E0208D6
:10019000692E0208692E0208692E0208692E0208DB
:1001A0000000000000000000692E0208692E02080D
:1001B000692E0208692E0208692E0208692E0208BB
:1001C000692E0208692E020800000000692E02084C
:1001D000692E0208692E0208692E0208692E02089B
:1001E000692E0208692E0208692E0208692E02088B
:0801F00000000000692E020866
:1002000010B5054C237833B9044B13B10448AFF350
:1002100000800123237010BDE44300200000000093
:10022000E81B030808B5034B1BB103490348AFF3B0
:10023000008008BD00000000E8430020E81B030820
:1002400001F0FF01102A2BDB10F0070F08D010F887
:10025000013B013A8B422DD010F0070F42B3F6D18B
:10026000F0B441EA012141EA014122F007047FF0A4
:1002700000070023F0E80256083C85EA010586EAFB
:10028000010685FA47F5A3FA87F586FA47F6A5FA37
:1002900087F68EB9EED1F0BC01F0FF0102F0070243
:1002A00032B110F8013B013A83EA010313B1F8D1EE
:1002B0000020704701387047002D06BF35460338CF
:1002C000073815F0010F07D1013015F4807F02BF08
:1002D000013015F4C03F0130F0BC0138704700BF59
:1002E000034613F8012B002AFBD1181A0138704776
:1002F0007BB972B90029BEBF00204FF0004106E073
:1003000008BF00281CBF6FF000414FF0FF3000F025
:10031000D3B9ADF1080C6DE904CE002909DB002B3F
:100320001ADB00F04DF8DDF804E0DDE9022304B04B
:100330007047404261EB4101002B1BDB00F040F8AD
:10034000DDF804E0DDE9022304B0404261EB410145
:10035000524263EB43037047524263EB430300F0A6
:100360002FF8DDF804E0DDE9022304B0404261EB40
:1003700041017047524263EB430300F021F8DDF87E
:1003800004E0DDE9022304B0524263EB430370470B
:1003900053B94AB9002908BF00281CBF4FF0FF31EC
:1003A0004FF0FF3000F088B9ADF1080C6DE904CED4
:1003B00000F006F8DDF804E0DDE9022304B0704740
:1003C0002DE9F047089D8E4604468846002B4AD109
:1003D0008A42174662D9B2FA82F64EB1C6F12003BC
:1003E00001FA06F820FA03F3B74043EA0808B440DC
:1003F0004FEA174E1FFA87FCB8FBFEF1230C0EFBE9
:10040000118843EA084301FB0CF29A4209D9FB1810
:1004100001F1FF3080F0EA809A4240F2E780023931
:100420003B449A1AA3B2B2FBFEF00EFB102243EA41
:10043000024300FB0CFC9C4509D9FB1800F1FF327C
:1004400080F0D6809C4540F2D3803B44023840EA9D
:100450000140A3EB0C0300211DB1F3400022C5E9CC
:100460000032BDE8F0878B4205D90DB1C5E9000126
:1004700000210846F5E7B3FA83F1002946D1734518
:1004800002D3824200F20581841A6EEB030201203E
:100490009046002DE5D0C5E90048E2E7002A00F0CB
:1004A0009080B2FA82F6002E40F0A4808A1A030CE3
:1004B0004FEA174E80B2BCB20121B2FBFEFC0EFB2C
:1004C0001C2243EA024304FB0CF29A4207D9FB18B0
:1004D0000CF1FF3802D29A4200F2E080C4469B1A27
:1004E000B3FBFEF20EFB123340EA034302FB04F4BB
:1004F0009C4207D9FB1802F1FF3002D29C4200F265
:10050000CA8002461B1B42EA0C40A5E7C1F1200647
:100510008B4022FA06F71F430EFA01F420FA06F385
:100520002EFA06FE4FEA1749234300FA01F81FFA94
:1005300087FCBEFBF9F01C0C09FB10EE44EA0E44EC
:1005400000FB0CFEA64502FA01F209D93C1900F1A4
:10055000FF3A80F09C80A64540F2998002383C44E6
:10056000A4EB0E041FFA83FEB4FBF9F309FB13445A
:100570004EEA044403FB0CFCA44508D93C1903F1E2
:10058000FF3E80F08280A4457FD9023B3C4443EA91
:100590000040A4EB0C04A0FB02EC64457346E1466A
:1005A00062D35FD05DB1B8EB030264EB090404FAD7
:1005B00006F622FA01F31E43CC40C5E9006400218F
:1005C0004FE7B1FBF2FC010C41EA0E4180B240EA78
:1005D00001423B4638463C46B846BE462026B1FB63
:1005E000F7F1A2EB080241EA0C4166E7014618E781
:1005F00010462CE7C6F120022EFA02F3B740B140B4
:1006000020FA02F24FEA174E0A43B3FBFEF8BCB2DF
:100610000EFB1833110C41EA034108FB04F9B0400A
:1006200089454FEA104380B23ED9791808F1FF3C62
:1006300001D289451FD8A1EB0901B1FBFEF909FBE5
:1006400004F80EFB191192B242EA0142424529D246
:10065000BA1809F1FF31C4D24245C2D2A9F1020150
:100660003A44BEE7F0459DD2BEEB02036CEB070CAB
:100670000138E14696E7A7EB09094944A8F1020CC5
:10068000B1FBFEF909FB04F8DBE773467FE7504650
:1006900066E70846FDE63B44023A33E7ACF1020C5C
:1006A0003B441CE749469CE7A1EB0901C446B1FB6A
:1006B000FEF909FB04F8C4E7704700BF80B400AF3F
:1006C000044BDB681B0A03F007031846BD465DF8C0
:1006D000047B704700ED00E080B483B000AF0346B8
:1006E000FB7197F90730002B0BDBFB7903F01F023E
:1006F000074997F907305B09012000FA02F241F837
:10070000232000BF0C37BD465DF8047B704700BF57
:1007100000E100E080B483B000AF03463960FB71B4
:1007200097F90730002B0ADB3B68DAB20C4997F9DE
:1007300007301201D2B20B4483F800230AE03B6871
:10074000DAB20849FB7903F00F03043B1201D2B27D
:100750000B441A7600BF0C37BD465DF8047B70472A
:1007600000E100E000ED00E080B489B000AFF86087
:10077000B9607A60FB6803F00703FB61FB69C3F1B2
:100780000703042B28BF0423BB61FB690433062B3A
:1007900002D9FB69033B00E000237B614FF0FF328D
:1007A000BB6902FA03F3DA43BB681A407B699A40DB
:1007B0004FF0FF317B6901FA03F3D9437B680B40AB
:1007C000134318462437BD465DF8047B704780B458
:1007D00089B000AFF860B9607A60FB682C331946C5
:1007E000BB6803F440734FF44072BA61BA6992FA7D
:1007F000A2F27A617A69B2FA82F2D2B2D3409B0055
:100800000B44FB61FB691A68BB6803F01F031F21DF
:1008100001FA03F3DB431A407B6803F01F01BB6856
:1008200003F01F0301FA03F31A43FB691A6000BFC8
:100830002437BD465DF8047B704780B483B000AFB9
:10084000786039607B689B6823F480623B681A4358
:100850007B689A6000BF0C37BD465DF8047B70472B
:1008600080B48DB000AFF860B9607A60FB680C337B
:100870001946BB6803F000734FF00072BA61BA69A1
:1008800092FAA2F27A617A69B2FA82F2D2B2D340D3
:100890009B000B44FB62FB6A1A68BB6803F0F873A9
:1008A0004FF0F8713962396A91FAA1F1F961F96989
:1008B000B1FA81F1C9B2CB40072101FA03F3DB435E
:1008C0001A40BB6803F0F8734FF0F871B962B96A67
:1008D00091FAA1F17962796AB1FA81F1C9B2CB409A
:1008E000796801FA03F31A43FB6A1A6000BF3437D0
:1008F000BD465DF8047B704780B485B000AFF860FA
:10090000B9607A600D4ABB6813441B781A46FB68CD
:1009100013441B6823F0C0020849BB680B441B78D2
:100920001946FB680B4419467B6813430B6000BFF4
:100930001437BD465DF8047B704700BF40280308AC
:1009400080B485B000AFF860B9607A600D4ABB68CA
:1009500013441B781A46FB6813441B6823F49072F7
:100960000849BB680B441B781946FB680B441946C1
:100970007B6813430B6000BF1437BD465DF8047BF2
:10098000704700BF4028030880B485B000AFF8600E
:10099000B9607A600D4ABB6813441B781A46FB683D
:1009A00013441B6823F400720849BB680B441B788E
:1009B0001946FB680B4419467B6813430B6000BF64
:1009C0001437BD465DF8047B704700BF402803081C
:1009D00080B485B000AFF860B9607A600D4ABB683A
:1009E00013441B781A46FB6813441B6823F4806287
:1009F0000849BB680B441B781946FB680B44194631
:100A00007B6813430B6000BF1437BD465DF8047B61
:100A1000704700BF4028030880B485B000AFF8607D
:100A2000B9607A600D4ABB6813441B781A46FB68AC
:100A300013441B6823F4C0520849BB680B441B785D
:100A40001946FB680B4419467B6813430B6000BFD3
:100A50001437BD465DF8047B704700BF402803088B
:100A600080B485B000AFF860B9607A600D4ABB68A9
:100A700013441B781A46FB6813441B6823F4C042D6
:100A80000849BB680B441B781946FB680B441946A0
:100A90007B6813430B6000BF1437BD465DF8047BD1
:100AA000704700BF4028030880B485B000AFF860ED
:100AB000B9607A600D4ABB6813441B781A46FB681C
:100AC00013441B6823F440320849BB680B441B786D
:100AD0001946FB680B4419467B6813430B6000BF43
:100AE0001437BD465DF8047B704700BF40280308FB
:100AF00080B485B000AFF860B9607A600D4ABB6819
:100B000013441B781A46FB6813441B6823F0F05209
:100B10000849BB680B441B781946FB680B4419460F
:100B20007B6813430B6000BF1437BD465DF8047B40
:100B3000704700BF4028030880B483B000AF7860DE
:100B400039600C4A3B6813441B781A467B6813448F
:100B50005B6908493A680A44127811467A680A447F
:100B600023F00403536100BF0C37BD465DF8047BDE
:100B7000704700BF4028030880B483B000AF78609E
:100B80007B681B6843F001027B681A6000BF0C376A
:100B9000BD465DF8047B704780B483B000AF7860D9
:100BA0007B681B6823F400327B681A6000BF0C3737
:100BB000BD465DF8047B704780B483B000AF7860B9
:100BC0007B681B6823F400227B681A6000BF0C3727
:100BD000BD465DF8047B704780B485B000AFF86017
:100BE000B9607A60FB68DA68064B1340B9687A68C6
:100BF0000A431A43FB68DA6000BF1437BD465DF84C
:100C0000047B704701F8FFFF80B483B000AF7860C9
:100C10007B68DB6823F400427B68DA6000BF0C3736
:100C2000BD465DF8047B704780B483B000AF786048
:100C30007B685B6843F000727B685A6000BF0C37CA
:100C4000BD465DF8047B704780B483B000AF786028
:100C50007B684CF6CC421A6000BF0C37BD465DF88D
:100C6000047B704780B483B000AF78607B6845F246
:100C700055521A6000BF0C37BD465DF8047B7047C3
:100C800080B483B000AF786039603B6803F007023E
:100C90007B685A6000BF0C37BD465DF8047B704727
:100CA00080B483B000AF786039603B68C3F30B0257
:100CB0007B689A6000BF0C37BD465DF8047B7047C7
:100CC00080B483B000AF786039603B68C3F30B0237
:100CD0007B681A6100BF0C37BD465DF8047B704726
:100CE00080B483B000AF78607B68DB6803F00703F3
:100CF000002B01D1012300E0002318460C37BD462C
:100D00005DF8047B704780B483B000AF78607B6887
:100D10001B6843F040027B681A6000BF0C37BD4679
:100D20005DF8047B704780B483B000AF78603960B1
:100D30007B685B6823F010023B681A437B685A604B
:100D400000BF0C37BD465DF8047B704780B483B0AC
:100D500000AF78607B685B6843F008027B685A608C
:100D600000BF0C37BD465DF8047B704780B483B08C
:100D700000AF78607B685B6823F008027B685A608C
:100D800000BF0C37BD465DF8047B704780B483B06C
:100D900000AF78607B681B6843F080027B681A6054
:100DA00000BF0C37BD465DF8047B704780B483B04C
:100DB00000AF78607B681B6823F080027B681A6054
:100DC00000BF0C37BD465DF8047B704780B485B02A
:100DD00000AF786039603B68012B28D03B68042B5A
:100DE00023D03B68102B1ED03B68402B19D03B68AA
:100DF000B3F5807F13D03B68B3F5806F0DD03B68AF
:100E0000B3F5805F07D03B68B3F5803F01D107237E
:100E10000EE008230CE006230AE0052308E0042383
:100E200006E0032304E0022302E0012300E00023A4
:100E3000FB737B6818331946FB7B0B4AD35C0B446E
:100E4000BB60BB681A68FB7B0849CB5C194604236E
:100E50008B40DB431A40BB681A6000BF1437BD46A5
:100E60005DF8047B704700BF482803085428030836
:100E700080B485B000AF786039603B68012B28D022
:100E80003B68042B23D03B68102B1ED03B68402BC3
:100E900019D03B68B3F5807F13D03B68B3F5806F02
:100EA0000DD03B68B3F5805F07D03B68B3F5803F5A
:100EB00001D107230EE008230CE006230AE00523F6
:100EC00008E0042306E0032304E0022302E00123F8
:100ED00000E00023FB737B6818331946FB7B0A4A4A
:100EE000D35C0B44BB60BB681A68FB7B0749CB5CD7
:100EF000194608238B401A43BB681A6000BF143799
:100F0000BD465DF8047B7047482803085428030851
:100F100080B483B000AF786039607B689A68064B14
:100F200013403A681A437B689A6000BF0C37BD468D
:100F30005DF8047B704700BFF8BFFEFF80B483B04C
:100F400000AF786039607B685B6823F070023B68B3
:100F50001A437B685A6000BF0C37BD465DF8047BBE
:100F6000704780B483B000AF786039607B685B689D
:100F700023F470023B681A437B685A6000BF0C3749
:100F8000BD465DF8047B704780B483B000AF7860E5
:100F90007B689B6823F080027B689A6000BF0C37F7
:100FA000BD465DF8047B704780B483B000AF7860C5
:100FB0007B681B6843F001027B681A6000BF0C3736
:100FC000BD465DF8047B704780B483B000AF7860A5
:100FD00039607B681B6823F4F8123B681B041A43D2
:100FE0007B681A6000BF0C37BD465DF8047B704714
:100FF00080B483B000AF786039607B681B6823F0F1
:1010000078723B685B051A437B681A6000BF0C3737
:10101000BD465DF8047B704780B483B000AF786054
:101020007B689B6843F480427B689A6000BF0C3702
:10103000BD465DF8047B704780B483B000AF786034
:1010400039607B689B6823F400423B681A437B68E5
:101050009A6000BF0C37BD465DF8047B704780B4D2
:1010600083B000AF78607B685B6823F490427B6854
:101070005A607B689B6823F02A027B689A6000BFF5
:101080000C37BD465DF8047B704780B483B000AF79
:10109000786039607B683A689A6100BF0C37BD465A
:1010A0005DF8047B704780B483B000AF786039602E
:1010B0003B681A047B689A6100BF0C37BD465DF837
:1010C000047B704780B485B000AF7860084B1A6B22
:1010D00007497B6813430B63054B1A6B7B6813400E
:1010E000FB60FB6800BF1437BD465DF8047B7047AA
:1010F0000038024080B485B000AF7860084B1A6CAD
:1011000007497B6813430B64054B1A6C7B681340DB
:10111000FB60FB6800BF1437BD465DF8047B704779
:101120000038024080B485B000AF7860084B5A6C3C
:1011300007497B6813434B64054B5A6C7B6813402B
:10114000FB60FB6800BF1437BD465DF8047B704749
:101150000038024080B500AF00F084FB00BF80BDC6
:1011600080B500AF0BF086F900F02AF801F0D4F951
:1011700001F06AF900F0BAFA00F074FB00F028FC04
:1011800000F0A4FC00F08CF800F01EFD00F032FF2F
:1011900001F00AF800F0CAFD01F0A2F800F0D4F95D
:1011A00000F0A0FE00F0E4FE00F03AFB00F07CFA54
:1011B00001F05BFE01F06BFE01F082FE00BFFDE777
:1011C00080B594B000AF07F11C033422002118460B
:1011D0000EF0EAFE07F1080300221A605A609A60D6
:1011E000DA601A612C4B1B6C2B4A43F0805313645A
:1011F000294B1B6C03F080537B607B68274B1B687B
:10120000264A43F440431360244B1B6803F44043D5
:101210003B603B680923FB614FF480333B62012351
:101220003B6302237B634FF48003BB630C23FB63AC
:10123000C0233B6402237B640223BB640223FB6460
:1012400007F11C0318460BF047FC0346002B01D0A6
:1012500001F076FC0BF0F0FB0346002B01D001F00F
:101260006FFC0F23BB600223FB6000233B614FF444
:10127000A0537B614FF48053BB6107F10803062143
:1012800018460BF0D7FE0346002B01D001F058FCA6
:1012900000BF5037BD4680BD00380240007000409E
:1012A00080B592B000AF07F13C0300221A605A608B
:1012B0009A6007F1280300221A605A609A60DA6087
:1012C0001A6107F1180300221A605A609A60DA6006
:1012D0003B4600221A605A609A60DA601A615A61CD
:1012E0004FF48070FFF71EFF0420FFF7EBFE022093
:1012F000FFF7E8FE01233B6003237B6000233B6193
:101300003B46194684480CF01EFE02233B60032333
:101310007B6000233B613B4619467F480CF013FE7F
:1013200004233B6003237B6000233B613B4619465B
:1013300079480CF008FE08233B6003237B60002300
:101340003B613B46194674480CF0FDFD10233B60A1
:1013500003237B6000233B613B4619466E480CF03B
:10136000F2FD20233B6003237B6000233B613B466F
:10137000194669480CF0E7FD01233B6003237B60BD
:1013800000233B613B46194664480CF0DCFD022318
:101390003B6003237B6000233B613B4619465F486B
:1013A0000CF0D1FD002204215D48FFF7A1FB0022D3
:1013B00004215B48FFF7A0FA002204215848FFF7F8
:1013C00073FB4FF4807204215548FFF7B9FA0022ED
:1013D00004215348FFF7D8FA4FF4806204215048A3
:1013E000FFF7F6FA4FF4006204214D48FFF714FBB3
:1013F0004FF4005204214A48FFF732FB04214848C9
:10140000FFF79AFB0023FB6300233B644FF48073D8
:101410007B6407F13C03194642480CF01BFC002397
:10142000BB624FF4E003FB6200233B6300237B635A
:101430004FF44073BB6307F12803194639480CF099
:1014400035FC00213748FFF7F8F94FF48033BB61D2
:101450000023FB6107F11803194633480CF0B2FB77
:101460000A224FF400712F48FFF7B1F901220A2137
:101470002C48FFF7F5F92D4A40F205212948FFF7DE
:10148000A6F9012229492748FFF7EAF9284A40F23C
:101490000A212448FFF79BF9012225492148FFF73B
:1014A000DFF9244A40F20F211E48FFF790F901228C
:1014B00020491C48FFF7D4F91F4A4FF40571194819
:1014C000FFF785F901221C491648FFF7C9F91B4AA5
:1014D00040F219211348FFF77AF901221749114800
:1014E000FFF7BEF9164A4FF480710E48FFF76FF907
:1014F000012213490B48FFF7B3F9124A40F20511D4
:101500000848FFF764F901220E490648FFF7A8F9D9
:1015100000BF4837BD4680BD0008024000040240BD
:101520000064024000200140002301400B00300015
:101530000C0060000D0090000E00C0000F00F000D5
:10154000080080030900B00380B58EB000AF07F13A
:101550002C0300221A605A609A6007F118030022D7
:101560001A605A609A60DA601A613B4600221A607B
:101570005A609A60DA601A615A614FF40070FFF79E
:10158000D1FD0120FFF79EFD04233B6003237B6018
:1015900000233B613B4619463E480CF0D4FC08232F
:1015A0003B6003237B6000233B613B46194639487F
:1015B0000CF0C9FC4FF0007202213748FFF798FA8F
:1015C000002202213448FFF797F900220221324815
:1015D000FFF76AFA4FF4807202212F48FFF7B0F943
:1015E000002202212C48FFF7CFF94FF4806202213C
:1015F0002948FFF7EDF94FF4006202212648FFF772
:101600000BFA4FF4005202212348FFF729FA022176
:101610002148FFF791FA0023FB6200233B634FF45C
:1016200080737B6307F12C0319461C480CF012FBF6
:101630000023BB614FF48013FB6100233B62002356
:101640007B624FF44073BB6207F1180319461348DD
:101650000CF02CFB4FF480611048FFF7EEF8104AB5
:101660004FF400710D48FFF7B2F801220C490B4806
:10167000FFF7F6F80B4A40F205210848FFF7A7F8F4
:10168000002208490548FFF7EBF800BF3837BD4690
:1016900080BD00BF00000240006402400021014004
:1016A000030090020200600280B500AF0D4B0E4AAD
:1016B0001A600C4B00221A710A4B00225A71094B16
:1016C00000225A61074B00229A61064B01221A62DE
:1016D00004480BF047F80346002B01D001F030FA24
:1016E00000BF80BD004400200030024080B5B2B091
:1016F00000AF07F1AC0300221A605A609A60DA600A
:101700001A615A619A6107F1940300221A605A60C3
:101710009A60DA601A615A613B1D902200211846D6
:101720000EF042FC4FF480437B600023BB663B1D00
:1017300018460BF031FE0346002B01D001F000FAF1
:101740000220FFF7BFFC4023C7F894300223C7F8FC
:1017500098300323C7F89C300123C7F8A03000233A
:10176000C7F8A4300423C7F8A83007F1940319463A
:1017700028480CF0E8FB8023C7F894300223C7F810
:1017800098300323C7F89C300123C7F8A03000230A
:10179000C7F8A4300423C7F8A83007F1940319460A
:1017A0001C480CF0D0FB4FF40010FFF7A3FC1A48C4
:1017B000FFF73AFA002200211748FFF70DFA164802
:1017C000FFF722FA1448FFF7F7F91348FFF7E4F997
:1017D0000023C7F8AC30114BC7F8B0300023C7F86E
:1017E000B4300023C7F8B8300023C7F8BC3000235A
:1017F000C7F8C0300023C7F8C43007F1AC0319465E
:1018000005480CF0B7FC0448FFF7B6F900BFC8372D
:10181000BD4680BD0004024000540040FF631060DC
:1018200080B500AF0E48FFF70FFA0D48FFF71AFA20
:1018300005210B48FFF724FA4FF47A610848FFF7B7
:101840002FFA00BF0648FFF74BFA0346012BF9D1E8
:101850004FF47A610248FFF733FA00BF80BD00BF42
:101860000030004080B590B000AF07F11803282287
:10187000002118460EF098FB3B4600221A605A6081
:101880009A60DA601A615A614FF48050FFF74AFC9F
:101890000120FFF717FC10233B6002237B6003232A
:1018A000BB600023FB6000233B6105237B613B465B
:1018B000194644480CF047FB20233B6002237B6021
:1018C0000323BB600023FB6000233B6105237B6196
:1018D0003B4619463B480CF036FB40233B60022355
:1018E0007B600323BB600023FB6000233B61052377
:1018F0007B613B46194633480CF025FB80233B6057
:1019000002237B600323BB600023FB6000233B6159
:1019100005237B613B4619462A480CF014FB4FF027
:10192000C06203212848FFF7E3F84022032126483C
:10193000FEF7E2FF4FF4003203212348FFF7B4F82B
:10194000002203212048FEF7FBFF002203211E484E
:10195000FFF71AF84FF4806203211B48FFF738F8AD
:10196000002203211848FFF757F8002203211648E8
:10197000FFF776F803211448FFF7DEF80023BB6178
:101980000023FB614FF4E0633B6202237B62002390
:10199000BB620023FB6200237B630023BB6307233E
:1019A000FB6307F11803194608480CF0BBFF002140
:1019B0000648FFF7B8F90548FFF7D8F900BF4037E8
:1019C000BD4680BD0000024000640240003001407E
:1019D00080B590B000AF07F1180328220021184607
:1019E0000EF0E2FA3B4600221A605A609A60DA6012
:1019F0001A615A614FF48040FFF77CFB0220FFF729
:101A000061FB4FF400533B6002237B600323BB6008
:101A10000023FB6000233B6105237B613B461946A5
:101A200028480CF090FA4FF480433B6002237B601F
:101A30000323BB600023FB6000233B6105237B6124
:101A40003B4619461F480CF07EFA4FF400433B60BA
:101A500002237B600323BB600023FB6000233B6108
:101A600005237B613B46194616480CF06CFA0023AF
:101A7000BB614FF48273FB614FF4E0633B62002370
:101A80007B620123BB624FF40073FB6218233B634C
:101A900000237B630023BB630723FB6307F1180369
:101AA000194609480CF03EFF00210748FFF73BF9B3
:101AB0000548FFF75BF90448FFF725F900BF4037F9
:101AC000BD4680BD000402400038004080B590B0A3
:101AD00000AF07F118032822002118460EF064FA1F
:101AE0003B4600221A605A609A60DA601A615A61B5
:101AF0004FF40040FFF7FEFA0420FFF7E3FA4FF43B
:101B000080633B6002237B600323BB600023FB6098
:101B100000233B6106237B613B46194628480CF0B5
:101B200012FA4FF400633B6002237B600323BB6027
:101B30000023FB6000233B6106237B613B46194683
:101B40001F480CF000FA4FF480533B6002237B6087
:101B50000323BB600023FB6000233B6106237B6102
:101B60003B46194616480CF0EEF90023BB614FF4D2
:101B70008273FB614FF4E0633B6200237B620023CE
:101B8000BB624FF40073FB6200233B6300237B6363
:101B90000023BB630723FB6307F1180319460948B9
:101BA0000CF0C0FE00210748FFF7BDF80548FFF71D
:101BB000CDF80448FFF7A7F800BF4037BD4680BD09
:101BC00000080240003C004080B590B000AF07F133
:101BD00018032822002118460EF0E6F93B460022A1
:101BE0001A605A609A60DA601A615A614FF40050C4
:101BF000FFF798FA1020FFF765FA4FF480533B6027
:101C000002237B600323BB600023FB6000233B6156
:101C100005237B613B46194641480CF094F94FF48B
:101C200000533B6002237B600323BB600023FB6007
:101C300000233B6105237B613B46194638480CF085
:101C400082F94FF480433B6002237B600323BB6037
:101C50000023FB6000233B6105237B613B46194663
:101C60002F480CF070F94FF0006200212D48FEF76C
:101C70003FFF002200212B48FEF73EFE4FF440328A
:101C800000212848FEF710FF4FF4807200212548FC
:101C9000FEF756FE002200212248FEF775FE4FF4A3
:101CA000806200211F48FEF793FE4FF4006200217E
:101CB0001C48FEF7B1FE4FF4005200211948FEF710
:101CC000CFFE00211748FEF737FF0023BB614FF41A
:101CD0008273FB614FF470633B6200237B620023DD
:101CE000BB624FF40073FB6208233B6300237B63FA
:101CF0000023BB630723FB6307F1180319460A4857
:101D00000CF010FE00210848FFF70DF80648FFF719
:101D10001DF80548FEF7F7FF00BF4037BD4680BD00
:101D200000100240006402400034014080B590B0D1
:101D300000AF07F118032822002118460EF034F9ED
:101D40003B4600221A605A609A60DA601A615A6152
:101D50004FF40010FFF7E6F90220FFF7B3F908236C
:101D60003B6002237B600323BB600023FB600023F6
:101D70003B6108237B613B46194657480CF0E3F86A
:101D800010233B6002237B600323BB600023FB60C6
:101D900000233B6108237B613B4619464E480CF00B
:101DA000D2F820233B6002237B600323BB60002327
:101DB000FB6000233B6108237B613B461946464894
:101DC0000CF0C1F84FF0007205214448FEF790FE78
:101DD000402205214148FEF78FFD4FF44032052196
:101DE0003E48FEF761FE002205213C48FEF7A8FDB3
:101DF000002205213948FEF7C7FD4FF48062052116
:101E00003648FEF7E5FD002205213448FEF704FEC2
:101E1000002205213148FEF723FE05212F48FEF759
:101E20008BFE4FF0007206212C48FEF761FE002267
:101E300006212A48FEF760FD4FF44032062127486C
:101E4000FEF732FE002206212448FEF779FD00222B
:101E500006212248FEF798FD4FF4806206211F48B4
:101E6000FEF7B6FD002206211C48FEF7D5FD002234
:101E700006211A48FEF7F4FD06211848FEF75CFE1D
:101E80000023BB614FF48273FB614FF4E0633B625C
:101E900000237B620023BB624FF40073FB620023CC
:101EA0003B6300237B630023BB630723FB6307F1D2
:101EB000180319460A480CF035FD00210848FEF7C2
:101EC00032FF0748FEF742FF0548FEF71CFF00BF40
:101ED0004037BD4680BD00BF0004024000640240A0
:101EE0000054014080B586B000AF3B1D00221A604F
:101EF0005A609A60DA601A610120FFF713F9FEF761
:101F0000DDFB0346002200211846FEF72DFC0346A8
:101F100019461920FEF7FEFB1920FEF7DDFB002312
:101F2000BB800023BB604FF6FF73FB6000233B6167
:101F300000237B613B1D19460C480CF0E7FD0B4864
:101F4000FEF734FF00210948FEF7E2FF00210748B1
:101F5000FEF7F4FF00210548FFF703F80348FFF7F9
:101F600013F800BF1837BD4680BD00BF0000014018
:101F700080B586B000AF3B1D00221A605A609A609F
:101F8000DA601A610120FFF7B5F8FEF797FB034608
:101F9000002202211846FEF7E7FB034619461C20E3
:101FA000FEF7B8FB1C20FEF797FB0023BB80002345
:101FB000BB604FF0FF33FB6000233B613B1D1946C4
:101FC0004FF080400CF0A2FD4FF08040FEF7DEFEA7
:101FD00000214FF08040FEF79BFF00214FF0804032
:101FE000FEF7ACFF4FF08040FEF7CEFF00BF183782
:101FF000BD4680BD80B594B000AF07F13C03002220
:102000001A605A609A60DA601A6107F11C03202294
:10201000002118460DF0C8FF3B1D00221A605A60CF
:102020009A60DA601A615A610420FFF763F80A23A4
:10203000BB8700233B644CF250337B644FF4007346
:10204000BB6407F13C03194655480CF05FFD54484A
:10205000FEF7ACFE00215248FEF75AFF012150481E
:10206000FEF706FF6023FB6100233B6200237B62D7
:102070000023BB620023FB6207F11C031A46012107
:1020800047480CF0DDFD01214548FEF79FFE102179
:102090004348FEF7EDFE07F11C031A4610214048A5
:1020A0000CF0CEFD10213E48FEF790FE4FF48071FB
:1020B0003B48FEF7DDFE07F11C031A464FF4807122
:1020C00037480CF0BDFD4FF480713548FEF77EFEB9
:1020D0004FF480513248FEF7CBFE07F11C031A463D
:1020E0004FF480512E480CF0ABFD4FF480512C483A
:1020F000FEF76CFE00212A48FEF720FF2848FEF775
:1021000043FF0820FEF7DEFF4FF480537B6002237D
:10211000BB600023FB6000233B6100237B61022343
:10212000BB613B1D19461F480BF00DFF4FF40053D8
:102130007B600223BB600023FB6000233B61002324
:102140007B610223BB613B1D194616480BF0FBFE69
:102150004FF480437B600223BB600023FB600023BD
:102160003B6100237B610223BB613B1D19460D4887
:102170000BF0E9FE4FF400437B600223BB600023B9
:10218000FB6000233B6100237B610223BB613B1D9D
:10219000194604480BF0D7FE00BF5037BD4680BD3E
:1021A00000080040000C024080B5B2B000AF07F15B
:1021B000AC0300221A605A609A60DA601A615A61B0
:1021C0009A6107F1940300221A605A609A60DA60FB
:1021D0001A615A613B1D9022002118460DF0E4FE61
:1021E0004FF480537B6000233B663B1D18460BF089
:1021F000D3F80346002B01D000F0A2FC4FF0804042
:10220000FEF778FF1020FEF75DFF8023C7F89430BB
:102210000223C7F898300323C7F89C300023C7F87F
:10222000A0300123C7F8A4300823C7F8A83007F16D
:102230009403194628480BF086FE4FF48073C7F8C4
:1022400094300223C7F898300323C7F89C3000234A
:10225000C7F8A0300023C7F8A4300823C7F8A83077
:1022600007F1940319461C480BF06DFEFEF726FAA1
:10227000034600220B211846FEF776FA034619465C
:102280005220FEF747FA5220FEF726FA4FF4E133C8
:10229000C7F8AC300023C7F8B0300023C7F8B4301B
:1022A0000023C7F8B8300C23C7F8BC300023C7F8A8
:1022B000C0300023C7F8C43007F1AC031946074803
:1022C0000CF0DEFF0548FEF7CAFE0448FEF76CFE80
:1022D00000BFC837BD4680BD0010024000780040F6
:1022E00080B5B2B000AF07F1AC0300221A605A60AB
:1022F0009A60DA601A615A619A6107F194030022C8
:102300001A605A609A60DA601A615A613B1D902225
:10231000002118460DF048FE40237B600023BB647B
:102320003B1D18460BF038F80346002B01D000F097
:1023300007FC1020FEF7F6FE0120FEF7C3FE4FF467
:102340000073C7F894300223C7F898300323C7F806
:102350009C300023C7F8A0300023C7F8A43007231F
:10236000C7F8A83007F19403194635480BF0EBFD88
:102370004FF48063C7F894300223C7F898300323E2
:10238000C7F89C300023C7F8A0300023C7F8A4305A
:102390000723C7F8A83007F19403194628480BF023
:1023A000D2FD4FF48053C7F894300223C7F8983019
:1023B0000323C7F89C300023C7F8A0300023C7F8D8
:1023C000A4300723C7F8A83007F1940319461C4826
:1023D0000BF0B9FD4FF4E133C7F8AC300023C7F878
:1023E000B0300023C7F8B4300023C7F8B8300C234E
:1023F000C7F8BC300023C7F8C0300023C7F8C4308A
:1024000007F1AC0319460F480CF03AFF0D48FEF7F0
:1024100003FE00210B48FEF70FFE00210948FEF7DE
:10242000E7FD00210748FEF7CFFD0648FEF717FE3F
:102430000448FEF7B9FD00BFC837BD4680BD00BFE8
:10244000000002400010014080B500AF4FF4800052
:10245000FEF738FEFEF732F9034600220121184646
:10246000FEF782F9034619463820FEF753F9382063
:10247000FEF732F9FEF722F9034600220A21184638
:10248000FEF772F9034619463A20FEF743F93A205F
:10249000FEF722F9FEF712F9034600220121184641
:1024A000FEF762F9034619463B20FEF733F93B205D
:1024B000FEF712F9FEF702F9034600220A21184638
:1024C000FEF752F9034619463C20FEF723F93C205B
:1024D000FEF702F9FEF7F2F803460022092118463A
:1024E000FEF742F9034619464420FEF713F944204B
:1024F000FEF7F2F8FEF7E2F803460022092118463B
:10250000FEF732F9034619464520FEF703F9452048
:10251000FEF7E2F800BF80BD80B586B000AF3B4655
:1025200000221A605A609A60DA601A615A611020BB
:10253000FEF7C8FD0420FEF7C5FD8020FEF7C2FDB2
:102540000120FEF7BFFD0220FEF7BCFD0820FEF7CC
:10255000B9FD0421BF48FEF7A6FD0821BD48FEF7DE
:10256000A2FD1021BB48FEF79EFD2021B948FEF7D1
:102570009AFD4021B748FEF796FD4FF40051B6484A
:10258000FEF791FD4FF48041B348FEF78CFD4FF408
:102590000041B148FEF787FD4FF40061AF48FEF7F8
:1025A00082FD4FF40061AE48FEF77DFD4FF400411F
:1025B000AB48FEF778FD0121AA48FEF774FD022121
:1025C000A848FEF770FD1021A648FEF76CFD2021FB
:1025D000A448FEF768FD4021A248FEF764FD0421EF
:1025E0009E48FEF752FD4FF480619A48FEF74DFD7C
:1025F0004FF400619748FEF748FD4FF400419548BD
:10260000FEF743FD4FF480619448FEF73EFD4FF422
:1026100080519248FEF739FD4FF480719148FEF7E2
:1026200034FD4FF400718F48FEF72FFD4FF4807199
:102630008948FEF72AFD4FF480718948FEF725FD91
:1026400004218848FEF721FD80218648FEF71DFD04
:102650004FF480718148FEF718FD4FF400717F48F8
:10266000FEF713FD01217B48FEF70FFD022179489B
:10267000FEF70BFD04233B6001237B600023BB605E
:102680000023FB6000233B613B46194671480BF079
:102690005AFC08233B6001237B600023BB600023BE
:1026A000FB6000233B613B4619466A480BF04BFC3C
:1026B00010233B6001237B600023BB600023FB6091
:1026C00000233B613B46194662480BF03CFC20234B
:1026D0003B6001237B600023BB600023FB60002381
:1026E0003B613B4619465B480BF02DFC40233B60A9
:1026F00001237B600023BB600023FB6000233B6160
:102700003B46194653480BF01EFC4FF400533B6008
:1027100001237B600023BB600023FB6000233B613F
:102720003B4619464C480BF00EFC4FF480433B608F
:1027300001237B600023BB600023FB6000233B611F
:102740003B46194644480BF0FEFB4FF400433B6008
:1027500001237B600023BB600023FB6000233B61FF
:102760003B4619463C480BF0EEFB02233B6003233B
:102770007B6000233B613B46194639480BF0E3FB85
:1027800004233B6001237B600023BB600023FB60CC
:1027900000233B613B46194630480BF0D4FB4FF415
:1027A00080633B6001237B600023BB600023FB60F0
:1027B00000233B613B46194626480BF0C4FB4FF40F
:1027C00000633B6001237B600023BB600023FB6050
:1027D00000233B613B4619461E480BF0B4FB4FF407
:1027E00000433B6001237B600023BB600023FB6050
:1027F00000233B613B46194616480BF0A4FB4FF4FF
:1028000080633B6001237B600023BB600023FB608F
:1028100001233B613B46194610480BF094FB4FF4F3
:1028200000633B6001237B600023BB600023FB60EF
:1028300002233B613B46194608480BF084FB4FF4EA
:1028400080533B6001237B600023BB600023FB605F
:10285000002309E00010024000080240000402408A
:1028600000000240000C02403B613B461946AF4865
:102870000BF069FB4FF480733B6001237B60032303
:10288000BB600023FB6000233B613B461946A84820
:102890000BF059FB4FF400733B6001237B60032373
:1028A000BB600023FB6000233B613B461946A04808
:1028B0000BF049FB4FF480633B6000237B600023F7
:1028C0003B613B4619469A480BF03DFB4FF40063D1
:1028D0003B6000237B6000233B613B4619469448E4
:1028E0000BF031FB40233B6002237B600323BB6082
:1028F0000023FB6000233B6108237B613B461946B4
:102900008C480BF020FB80233B6002237B60032379
:10291000BB600023FB6000233B6108237B613B46D7
:10292000194684480BF00FFB4FF480733B60012382
:102930007B600023BB600023FB6001233B613B46BF
:1029400019467C480BF0FFFA4FF400733B600023FC
:102950007B6000233B613B46194676480BF0F3FA57
:102960004FF480733B6001237B600323BB60002333
:10297000FB6000233B613B4619466F480BF0E3FACE
:102980004FF400633B6001237B600023BB600023A6
:10299000FB6000233B613B46194667480BF0D3FAC6
:1029A0004FF400433B6001237B600023BB600023A6
:1029B000FB6000233B613B4619465F480BF0C3FABE
:1029C00001233B6001237B600023BB600023FB608D
:1029D00000233B613B46194655480BF0B4FA0223ED
:1029E0003B6001237B600023BB600023FB6000236E
:1029F0003B613B4619464E480BF0A5FA04233B6069
:102A000001237B600023BB600023FB6000233B614C
:102A10003B46194646480BF096FA08233B600023D4
:102A20007B6000233B613B46194641480BF08BFA23
:102A300010233B6001237B600023BB600023FB600D
:102A400000233B613B46194639480BF07CFA2023B2
:102A50003B6001237B600023BB600023FB600023FD
:102A60003B613B46194632480BF06DFA40233B6010
:102A700001237B600023BB600023FB6000233B61DC
:102A80003B4619462A480BF05EFA80233B6001233F
:102A90007B600023BB600023FB6000233B613B465F
:102AA000194623480BF04FFA4FF480733B60012323
:102AB0007B600023BB600023FB6000233B613B463F
:102AC00019461A480BF03FFA4FF400733B6001239C
:102AD0007B600023BB600023FB6000233B613B461F
:102AE000194612480BF02FFA01233B6001237B604B
:102AF0000023BB600023FB6000233B613B4619467B
:102B00000E480BF020FA02233B6001237B60002378
:102B1000BB600023FB6000233B613B46194607482E
:102B20000BF011FA00BF1837BD4680BD000402400B
:102B3000000C024000080240000002400010024069
:102B400080B400AF72B600BF00BFFDE780B483B0B1
:102B500000AF0F4B1B6C0E4A43F0805313640C4BB9
:102B60001B6C03F080537B607B68094B5B6C084AED
:102B700043F480435364064B5B6C03F480433B6037
:102B80003B6800BF0C37BD465DF8047B704700BF53
:102B90000038024080B485B000AF78607B681B6865
:102BA0000A4A93420BD10A4B1B6B094A43F48053E8
:102BB0001363074B1B6B03F48053FB60FB6800BF80
:102BC0001437BD465DF8047B704700BF00300240FB
:102BD0000038024080B400AF00BFFDE780B400AF12
:102BE00000BFFDE780B400AF00BFFDE780B400AFD9
:102BF00000BFFDE780B400AF00BFFDE780B400AFC9
:102C000000BFBD465DF8047B704780B400AF00BFD5
:102C1000BD465DF8047B704780B400AF00BFBD4681
:102C20005DF8047B704780B500AF04F017FC04F03A
:102C300069FB09F0C5FB09F08FFC05F071FE00BFD0
:102C400080BD80B500AF05F099F900BF80BD80B5AB
:102C500000AF04F087FB00BF80BD80B500AF04F07B
:102C600071FC00BF80BD80B400AF01231846BD4693
:102C70005DF8047B704780B582B000AF7860396042
:102C80000DF0E4F9034616221A604FF0FF331846A0
:102C90000837BD4680BD80B582B000AF78604FF088
:102CA000FF317868FFF7E7FF00BFFDE780B586B02A
:102CB00000AFF860B9607A6000237B610AE0AFF38F
:102CC00000800146BB685A1CBA60CAB21A707B69A0
:102CD00001337B617A697B689A42F0DB7B68184636
:102CE0001837BD4680BD80B586B000AFF860B960CA
:102CF0007A6000237B6109E0BB685A1CBA601B78CC
:102D00001846AFF300807B6901337B617A697B6889
:102D10009A42F1DB7B6818461837BD4680BD80B407
:102D200083B000AF78604FF0FF3318460C37BD46D4
:102D30005DF8047B704780B483B000AF7860396081
:102D40003B684FF400525A60002318460C37BD46CA
:102D50005DF8047B704780B483B000AF78600123D6
:102D600018460C37BD465DF8047B704780B485B0CB
:102D700000AFF860B9607A60002318461437BD468A
:102D80005DF8047B7047000080B586B000AF7860C6
:102D9000144A154BD31A7B617B693B61134B1B684B
:102DA000002B02D1114B124A1A60104B1A687B6833
:102DB00013443A699A4207D20DF048F903460C22AF
:102DC0001A604FF0FF3309E0084B1B68FB60074BAC
:102DD0001A687B681344054A1360FB681846183765
:102DE000BD4680BD000008200004000024440020EF
:102DF00090D6022080B400AF064BD3F88830054A45
:102E000043F47003C2F8883000BFBD465DF8047B10
:102E1000704700BF00ED00E0DFF834D0FFF7EAFFB5
:102E20000C480D490D4A002302E0D458C450043325
:102E3000C4188C42F9D30A4A0A4C002301E01360FB
:102E40000432A242FBD30DF007F9FEF789F970476F
:102E50000000082000000020E44300206031030847
:102E6000E443002090D60220FEE780B500AF00F0DA
:102E7000E9F802F043FB01F0E3FE00F09DFE02F0F2
:102E800083F902F09BF803F0D5FC00BF80BD80B54C
:102E900000AF012000F0F8F8022002F055FB0520F9
:102EA00001F0F0FE062002F0A9F9072000F0AAFECA
:102EB000082002F0C3F80A2003F0F4FC00BF80BD34
:102EC00080B500AF09F064F900BF80BD80B582B065
:102ED00000AF7860396004F06DF805F08BF904F00C
:102EE0002FFE04F0ADFA04F0BDF97B68012283F8EF
:102EF0004D207B68002283F8522000F097FC0346A7
:102F0000002B2AD003F01AFD1E4B5A687B689A6288
:102F10001C4B1A897B68DA851A4B5A897B681A869A
:102F2000184B9A897B685A8603F02CFD7B689A6A55
:102F30007B68DB8D19467B681B8E0B447968498E54
:102F40000B44114981FB03018911DB17CB1A02FBEA
:102F500003F39A0A7B685A6310E07B680B4A9A6213
:102F60007B686422DA857B6840F6D8621A867B68C3
:102F700064225A867B6840F2A2725A6300BF083707
:102F8000BD4680BD00400240D34D621020A1070025
:102F900080B584B000AF786039607B685B69FB60A6
:102FA0007B685B693968786898470346FB72FB7AEF
:102FB000002B08D1FB680649786898477B685B69F5
:102FC00004497868984700BF1037BD4680BD00BFF0
:102FD0009C2803088828030880B584B002AF786075
:102FE00039607B68002B03D10021134803F09AFC61
:102FF00078683B685A683B689B68009313460F4AA1
:103000000F4909F017F93B681A687B685A617B68B9
:1030100018337A681B21184609F06CF97B6818335D
:10302000184609F0A9F93B681A7B7B6883F84820A9
:1030300000BF0837BD4680BD78280308912F0208DD
:10304000CD2E020890B587B002AF122300930A2359
:10305000B4220949094808F0D3FC094B3C460FCB80
:1030600084E80F003B4619460648FFF7B5FF00BF4E
:103070001437BD4690BD00BFB444002084440020F6
:10308000001C03082844002080B582B000AF03462E
:10309000FB71FB791946034809F0E6F800BF0837D1
:1030A000BD4680BD2844002080B582B000AF786066
:1030B00039603B681B88013B1D2B58D801A252F890
:1030C00023F000BF3D3102086F3102086F31020862
:1030D0006F3102086F3102086F3102086F31020848
:1030E0006F3102086F3102086F3102086F31020838
:1030F0006F3102086F3102086F3102086F31020828
:103100006F3102086F3102086F3102086F31020817
:103110006F3102086F3102086F3102086F31020807
:103120006F3102086F3102086F3102086F310208F7
:103130004B3102085B310208653102087B681833A5
:10314000184609F019F9012312E0212008F0ECFEDD
:103150007B68094A5A6100230AE07B68074A5A6182
:10316000002305E07B68064A5A61002300E0022341
:1031700018460837BD4680BD853102083D33020838
:103180005934020880B588B000AF786039603B6878
:103190001B88013B202B00F2C78001A252F823F0CC
:1031A0002532020829330208933202082933020823
:1031B0002933020829330208293302082933020877
:1031C0002933020829330208293302082933020867
:1031D0002933020829330208293302082933020857
:1031E0002933020829330208293302082933020847
:1031F0002933020829330208293302082933020837
:103200002933020829330208173302082933020838
:103210002933020829330208A1320208C132020808
:10322000E13202087B681833002244F62061184618
:1032300009F082F87B6893F82C301946786800F022
:10324000D3F9786800F0E9F97B68DB8DFB607B6877
:103250001B8E3B617B685B8E7B617B689B6ABB617D
:103260007B6893F82C30FB617B6893F82D3018460F
:1032700003F056FF07F10C03184604F027FC04F096
:103280004BF804F02FFE7B68002283F848200123CE
:103290004BE07B681833184609F06EF8012344E0D0
:1032A0007B6893F84830002B04D17B68012283F8B7
:1032B000482003E07B68032283F84820012334E0A0
:1032C0007B6893F84830012B04D17B68022283F895
:1032D000482003E07B68032283F84820012324E090
:1032E000222008F021FE7B6893F84830022B04D19D
:1032F0007B68052283F8482003E07B68032283F87B
:1033000048200C4B1B68184600F068FD7B680A4A91
:103310005A61002309E07B68042283F848207B6817
:10332000054A5A61002300E0022318462037BD46B3
:1033300080BD00BF08000020A930020880B582B01F
:1033400000AF786039603B681B88242B1ED0242B8B
:1033500073DC232B3ED0232B6FDC012B02D0222BDE
:103360002BD06AE07B681833184609F005F87B68B3
:103370001B6C344A53607B68DB6B324A1360324B00
:103380001B68184601F09CFD012357E02D4B5B683C
:10339000B3F5804F28BF4FF480439AB22B4B1A806D
:1033A000284B1B685B00294A128852001146284AA4
:1033B000184604F051FF012340E0234B1868234BCB
:1033C0001B881A467B6893F84530214901F054FD6B
:1033D000012333E01B4B5B681C4A12889B1A194A75
:1033E0005360184B1B68194A12881344154A13601E
:1033F000144B5B68002B16D0124B5B68B3F5804F03
:1034000028BF4FF480439AB2104B1A800D4B1B68B3
:103410005B000E4A1288520011460D4A184604F00D
:103420001BFF01230AE0084B1B68184601F058FDFA
:103430007B68084A5A61002300E0022318460837D7
:10344000BD4680BD684500200400002074C50020F2
:1034500074450020A930020880B582B000AF7860C2
:1034600039603B681B88012B02D0222B10D01CE056
:103470007B681833184608F07FFF7B68DB6B5B00C6
:103480000C4A4FF40041184604F0E6FE01230DE01B
:10349000084805F0E3F8084B1B68184601F028FEC1
:1034A0007B68064A5A61002300E002231846083769
:1034B000BD4680BD744500200C000020A9300208E4
:1034C00080B582B000AF78607B680449184608F088
:1034D000F5FE002318460837BD4680BDD8280308EE
:1034E00080B584B000AFF860B9607A60BB68012B2A
:1034F00002D87B68642B01D9062318E0FB6893F897
:103500004D30002B06D0002003F010FDFB68002298
:1035100083F84D207968B86803F03EFE7B68D9B225
:10352000FA68BB68134449330A461A7000231846E8
:103530001037BD4680BD80B582B000AF786039607D
:103540003B68242B01D9062314E07B6893F84D30A7
:10355000012B06D0012003F0E9FC7B68012283F8EF
:103560004D20386803F05EFD3B68DAB27B6883F873
:103570004B20002318460837BD4680BD80B582B079
:1035800000AF78607B6893F84D30012B06D00120A6
:1035900003F0CCFC7B68012283F84D2003F064FD2E
:1035A0007B68FF2283F84B20002318460837BD466E
:1035B00080BD80B582B000AF78607B6893F84D30F5
:1035C000012B06D0012003F0B1FC7B68012283F8B7
:1035D0004D2003F087FD7B68FF2283F84C200023F9
:1035E00018460837BD4680BD80B582B000AF786010
:1035F00039603B68242B01D906230AE004F030FB34
:10360000386804F055FB3B68DAB27B6883F84E20DB
:10361000002318460837BD4680BD80B582B000AF94
:10362000786004F031FB002318460837BD4680BDA2
:1036300080B582B000AF786039603B681B68002BB2
:1036400004D03B681B68154A934201D9062321E048
:103650003B68DB68B3F5006F01D906231AE03B68CD
:103660001A687B689A623B68DA887B68DA853B680F
:103670001A897B681A863B685A897B685A863B6838
:10368000DA687B685A633B681A697B689A6300F062
:10369000A5F8002318460837BD4680BD50F80C0039
:1036A00080B483B000AF786039603B685B79642B8D
:1036B00001D9062305E03B685A797B6883F82D2001
:1036C000002318460C37BD465DF8047B704780B474
:1036D00083B000AF786039603B681B79002B03D062
:1036E0003B681B79242B01D9062305E03B681A7936
:1036F0007B6883F82C20002318460C37BD465DF804
:10370000047B7047B0B483B000AF786039603A682A
:103710007B68154603F128040FCC0FC523682B6086
:1037200000BF0C37BD46B0BC7047000080B584B008
:1037300000AF78607B682833FB60FB681B68002B58
:1037400004D0FB681B68134A934201D906231CE08E
:10375000FB681B79002B03D0FB681B79242B01D954
:10376000062312E0FB685B79642B01D906230CE089
:10377000FB68DB68B3F5006F01D9062305E07B68C1
:103780000549184608F09AFD002318461037BD4633
:1037900080BD00BF50F80C00B028030880B582B08F
:1037A00000AF78600B467B807B889B031A467B6862
:1037B000DA637B684FF480421A647B68012283F8E5
:1037C00044207B680449184608F078FD0023184619
:1037D0000837BD4680BD00BFC428030880B582B04D
:1037E00000AF03F0ABF80F4B4FF0BC321A600E4B3A
:1037F0009B6A0C4A53600C4BDA8D0A4B1A810A4BB8
:103800001A8E084B5A81084B5A8E064B9A81002318
:103810007B60044A7B68136103F0B4F800BF08378B
:10382000BD4680BD004002402844002080B500AF66
:1038300003F084F8084B1B68B3F1BC3F06D0142298
:10384000002105480CF0B0FB002302E003F09AF8D9
:103850000123184680BD00BF0040024080B483B001
:1038600000AF786039607B683A689A6100BF0C37B6
:10387000BD465DF8047B704780B483B000AF7860CC
:1038800039603B681A047B689A6100BF0C37BD46FB
:103890005DF8047B7047000080B582B000AF7860AF
:1038A0000B46FB707B68FA781146184607F086FED7
:1038B00000F0E8FA02467B68C3F804227B68002225
:1038C00083F80C227B68012283F80D22FB78032BFE
:1038D00004D8FB7806497A6841F823207B680121E7
:1038E000184607F00DFB00BF0837BD4680BD00BF7E
:1038F0007CC8002080B582B000AF78607A687B68B1
:1039000093F800321946104607F058FE7B680121F3
:10391000184607F0F5FA00F0B5FA02467B68C3F8DE
:1039200004227B68002283F80C2200BF0837BD46C2
:1039300080BD80B483B000AF786039607B683A683E
:10394000C3F8082200BF0C37BD465DF8047B704702
:1039500080B586B000AFF860B9607A60FB687A68BD
:10396000B968184607F084FD00F08CFA7861FB68AE
:1039700093F8E230002B35D0FB6893F8E4301A4618
:1039800013465B0013449B00FA6813443B613B6998
:103990001B687A69D31A40F6B83293421ED9FB6885
:1039A00093F80C3283F00103DBB2002B1AD0FB68D2
:1039B000D3F80832002B04D0FB68D3F80832F8683B
:1039C0009847FB68012283F80C22FB6893F80D32BC
:1039D000002B07D0F868FFF78DFF03E0FB6800229B
:1039E00083F80C22FB687A69C3F8042200BF1837F9
:1039F000BD4680BD80B483B000AF786000BF0C3797
:103A0000BD465DF8047B704780B500AF4FF480720F
:103A10000849094808F01AF94FF480720749084824
:103A200008F014F9064B044A0649074807F0CCFE93
:103A300000BF80BDB4C900208CC90020B4CA0020DA
:103A4000A0C9002000780040B4CB002080B582B02F
:103A500000AF786039607B68002B03D101210F48EB
:103A600002F060FF7B680E4A9A610E490C48FFF72E
:103A700060FF7B6824330A220A21184608F05CFCA8
:103A8000094807F0BDFE7B689B6900211846FFF7D7
:103A900003FF00BF0837BD4680BD00BFEC28030808
:103AA0006CC60020F5390208B4CB002080B584B084
:103AB00000AF786039607B68002B03D10421124885
:103AC00002F030FF3B68002B03D105210E4802F0C5
:103AD00029FF7B685B69FB607B685B693968786894
:103AE00098470346FB72FB7A002B08D1FB68074915
:103AF000786898477B685B6905497868984700BF94
:103B00001037BD4680BD00BFEC2803080429030818
:103B1000F828030880B584B002AF786039607B680C
:103B2000002B03D10221214802F0FCFE78683B689B
:103B3000DA683B681B69009313461D4A1D4908F06B
:103B400079FB7B6824337A680D21184608F0D2FB94
:103B50007B6834337A681021184608F0CBFB7B6809
:103B600044337A681121184608F0C4FB3B681A6890
:103B70007B685A613B685A687B689A613B689A68BF
:103B80007B68DA617B682433184608F0F5FB7B68B4
:103B90003433184608F0F0FB7B684433184608F0CD
:103BA000EBFB00BF0837BD4680BD00BFEC28030813
:103BB000AD3A02084D3A0208B0B588B002AFFFF73F
:103BC00023FF0C2300930A2378220A490A4807F0AE
:103BD00017FF0A4B3C1D1D460FCD0FC42B682360F9
:103BE0003B1D19460648FFF795FF00BF1837BD4635
:103BF000B0BD00BFF4C50020CCC50020101C0308D8
:103C000078C5002080B582B000AF0346FB71FB7918
:103C10001946034808F028FB00BF0837BD4680BDA1
:103C200078C5002080B582B000AF786039607B68CD
:103C3000002B03D10321594802F074FE3B681B8816
:103C4000013B102B00F2A58001A252F823F000BF27
:103C5000953C0208933D0208933D0208933D0208FB
:103C6000933D0208933D0208933D0208933D0208EC
:103C7000933D0208933D0208933D0208933D0208DC
:103C8000B13C0208F73C0208253D0208553D0208F8
:103C9000853D02084FF49671032002F06BFC7B68AF
:103CA00024330A220A21184608F046FB012371E05A
:103CB000032002F097FC3A4B4FF480721A607B6845
:103CC000DB69374A3749184607F0BAFD0346002B2F
:103CD00008D07B689B69324A126832491846FFF760
:103CE00037FE06E07B689B69002200211846FFF73B
:103CF0002FFE01234EE0032002F05AFC7B682433A0
:103D0000184608F039FB4FF400612748FFF7A6FD7D
:103D10007B683433002244F62061184608F00CFB1F
:103D2000012337E04FF49671032002F023FC7B68F7
:103D30003433184608F020FB4FF400611A48FFF7AF
:103D40009BFD7B6824330A220A21184608F0F4FA06
:103D500001231FE04FF49671032002F00BFC7B68F7
:103D60003433184608F008FB4FF400610E48FFF7A3
:103D700083FD7B6824330A220A21184608F0DCFA06
:103D8000012307E0032002F013FC02F013FD0123DE
:103D900000E0022318460837BD4680BDEC28030822
:103DA000100000208CC800200004024080B586B0BE
:103DB00000AF786007F10C0300221A605A609A6025
:103DC0000E23BB817B6807F10C021146184608F0F0
:103DD00075FA002318461837BD4680BD80B586B0F9
:103DE00000AF786007F10C0300221A605A609A60F5
:103DF0000F23BB817B6807F10C021146184608F0BF
:103E00005DFA002318461837BD4680BD80B582B0E4
:103E100000AF78607B68443300224FF4FA611846A3
:103E200008F08AFA002318460837BD4680BD000016
:103E300080B582B000AF0346FB71064BDB699B681F
:103E4000184608F00BF803469BB218460837BD46E3
:103E500080BD00BF78C5002080B582B000AF0346AA
:103E60000A46FB711346BB71054BDB69BA791146F3
:103E7000184607F01DFD00BF0837BD4680BD00BFD6
:103E800078C5002080B500AF08F0E8FA0346184670
:103E900080BD000080B586B000AF396011461A467B
:103EA0000346FB710B46BB7113467B717B79032B79
:103EB00034D87B791C4A52F823303B613B69002B94
:103EC0002ED01A4B1B68002B05D0184B1B68BA79F3
:103ED000F8793968984700F039FEF86000F040FE44
:103EE000B86000237B6114E07B69DB00FA6813444F
:103EF0001B78FA799A4209D17B69DB00FA6813448E
:103F00005B68BA793968386998470AE07B69013398
:103F10007B617A69BB689A42E6DB02E000BF00E0A1
:103F200000BF1837BD4680BD7CC80020C4CB002030
:103F300080B584B000AFF8607A601A460B46FB7219
:103F40001346BB72FB68BA7A1146184607F034F87C
:103F50000346002B05D0F868BB7AF97A7A6806F038
:103F6000E3FF00BF1037BD4680BD000080B500AF45
:103F7000074BDB69184607F0E1FC054BDB69184687
:103F800007F00BFD034B4FF0FF321A6200BF80BDFC
:103F900078C500200078004080B584B000AFF8609C
:103FA000B9601346FB71002300220121F868FFF776
:103FB000BFFF044B1B681846FFF728FF00BF1037F0
:103FC000BD4680BD1400002080B584B000AFF8600D
:103FD000B9601346FB71FB79BA680321F868FFF7F3
:103FE000A7FF00BF1037BD4680BD80B588B002AFC7
:103FF000F860B9601346FB71BB681B78FB75BB6842
:1040000001331B78BB75BB6802331B787B75BB68BB
:1040100003331B783B75FB79BA680521F868FFF715
:1040200087FFF97DBA7D787D3B7D00930346242090
:1040300007F07AFF3B7D7A7DB97DF87D04F048FC7E
:1040400000BF1837BD4680BD80B586B000AFF860B0
:10405000B9601346FB71FF233B75BB681B78FB758A
:10406000084B1B68FA7D1146184601F02DF907F13F
:10407000140201230921F868FFF75AFF00BF18371F
:10408000BD4680BD200000202DE9F0439BB00CAF61
:10409000F861B9611346FB754FF63F73BB8400238B
:1040A000FB86BB691B781BB21B021AB2BB690133CA
:1040B0001B781BB21343BB86BB6902331B781BB250
:1040C0001B021AB2BB6903331B781BB213437B86F6
:1040D000BB6904331B781BB21B021AB2BB690533E0
:1040E0001B781BB213433B86BB6906331B7887F8EA
:1040F0002F30BB6907331B7887F82E30BB69083334
:104100001B7887F82D30BB6909331B7887F82C3072
:10411000BB690A331B7887F82B30BB690B331B78DC
:104120001BB21B021AB2BB690C331B781BB21343C0
:104130001BB23B85BB690D331B7887F8273097F896
:104140002F30072B02D9FB8E0133FB8697F82E30D8
:10415000072B02D9FB8E0133FB8697F82C300F2BEF
:1041600002D9FB8E0133FB8697F82B300F2B02D937
:10417000FB8E0133FB86FB8E002B57D1344B186826
:10418000B98E7A8E3C8E97F8273006933B8D059337
:1041900097F82B30049397F82C30039397F82D3031
:1041A000029397F82E30019397F82F30009323460F
:1041B00002F0A8F8B7F934C0B7F934304FEA132E3B
:1041C000B7F93280B7F932301A0AB7F93010B7F9B7
:1041D0003030180A97F82F4097F82E5097F82D6036
:1041E00097F82C303B6197F82B30FB60B7F828909C
:1041F0004B46BB603B8D1B0A9BB27B6097F8273018
:104200000A937B680993BB680893FB6807933B6933
:1042100006930596049503940290019100924346FB
:1042200072466146032007F07FFE05E03E2387F8D3
:1042300024303E2387F8253007F1240202230B2186
:10424000F869FFF775FE00BF3C37BD46BDE8F08357
:104250001800002080B586B000AFF860B960134642
:10426000FB71FF23FB75052007F05EFE074B1B6803
:10427000184601F069FD07F1170201230D21F868C6
:10428000FFF756FE00BF1837BD4680BD180000205E
:1042900080B586B000AFF860B9601346FB71FF23AC
:1042A000FB75042007F040FE074B1B68184601F021
:1042B00027FD07F1170201230F21F868FFF738FEE9
:1042C00000BF1837BD4680BD1800002090B58BB0E8
:1042D00002AFF860B9601346FB714FF63F73BB82C3
:1042E0000023FB77BB681B781B02BA680132127887
:1042F00013439BB21A465201D21A92001344DB00B8
:10430000BB83BB6802331B78FB76BB6803331B7827
:104310001BB21B021AB2BB6804331B781BB21343D7
:104320001BB23B83BB8B4EF66022934202D9FB7FCC
:104330000133FB77FB7E042B03D9FB7F0133FB7733
:1043400022E0FB7E042B0DD107F114020223112180
:10435000F868FFF7EDFD2D4B1B680421184601F0AE
:1043600043FE4FE0294B1B68184601F09CFD0346B5
:10437000FB75FA7DFB7E42FA03F303F00103002B89
:1043800002D0FB7F0133FB773B8BB3F5FA7F04D37D
:104390003B8B40F6B832934202D9FB7F0133FB7767
:1043A000FB7F002B23D1BB8B184600F0E7FC174B9B
:1043B0001B68FA7E1146184601F016FE134B1B6867
:1043C0003A8B1146184601F028FEB98BBB8B1B0AAD
:1043D0009BB21C46F87E3B8B3A8B120A92B201923A
:1043E000009303462246092007F09EFD03E03E238A
:1043F0003B753E237B7507F1140202231121F868F7
:10440000FFF796FD2437BD4690BD00BF1800002081
:1044100080B586B000AFF860B9601346FB71FF232A
:10442000FB7507F1170201231321F868FFF780FDE0
:104430000A2007F079FD00F065FC00BF1837BD4683
:1044400080BD80B586B000AFF860B9601346FB71DF
:10445000FF23FB7507F1170201231521F868FFF709
:1044600067FD0B2007F060FD00F070FC00BF1837FF
:10447000BD4680BDF0B59BB008AF78613961134689
:10448000FB734FF63F733B860023A7F846303B692A
:104490001B781A063B6901331B781B041A433B69DE
:1044A00002331B781B0213433A6903321278134319
:1044B0003B643B6904331B781B029BB23A690532AB
:1044C00012781343FB873B6906331B781B029BB2B0
:1044D0003A69073212781343BB873B6908331B786C
:1044E0001B029BB23A690932127813437B873B6CFB
:1044F000B3F57A7F03D33B6C484A934204D9B7F8AB
:1045000046300133A7F84630FB8F002B04D1B7F8B3
:1045100046300133A7F84630BB8F002B04D1B7F8E3
:1045200046300133A7F846307B8F002B04D1B7F813
:1045300046300133A7F84630FA8FBB8F1A447B8F81
:1045400013441A463B6C02FB03F3354AA2FB0323D8
:104550001B0C7B637B6BB3F5006F04D9B7F8463057
:104560000133A7F84630B7F84630002B44D13B6CF6
:10457000FB61FB8F7B84BB8FBB847B8FFB847B6B5E
:10458000BB62264A3B6CB2FBF3F3FB62254B1B6814
:1045900007F11C0211461846FFF74AF80346002BA4
:1045A00023D13B6C1D0A3B6C1E0C3B6C1B0EFA8F1F
:1045B000F98F090A89B2B960B98FB88F000A80B241
:1045C0007860788F7C8F240AA4B20694059078686E
:1045D00004900391B96802910192009333462A46F0
:1045E000396C1E2007F0A0FC0CE03E2387F8303029
:1045F0003E2387F8313005E03E2387F830303E23F4
:1046000087F8313007F13002022317217869FFF76C
:104610008FFC00BF4C37BD46F0BD00BF40420F00CD
:10462000D34D62101C00002080B58AB000AFF86046
:10463000B9601346FB714FF63F73BB84BB681B78B0
:1046400087F8273097F82730642B06D93E2387F860
:1046500024303E2387F8253029E0164B1B6807F1EC
:10466000100211461846FFF74DF897F827307B7572
:10467000104B1B6807F1100211461846FFF710F89F
:104680000346002B06D197F8273019461F2007F064
:104690004BFC05E03E2387F824303E2387F8253085
:1046A00007F1240202231921F868FFF741FC28379B
:1046B000BD4680BD1C00002080B58AB000AFF86008
:1046C000B9601346FB714FF63F73BB84BB681B7820
:1046D00087F8273097F82730242B03D897F827300E
:1046E000002B06D13E2387F824303E2387F825305F
:1046F00022E0174B1B6807F1100211461846FFF71E
:1047000001F897F827303B75114B1B6807F1100231
:1047100011461846FEF7DBFF0346002B06D197F83B
:1047200027301946202007F0FFFB05E03E2387F8DD
:1047300024303E2387F8253007F1240202231B2171
:10474000F868FFF7F5FB00BF2837BD4680BD00BF06
:104750001C00002080B586B000AFF860B960134639
:10476000FB713F233B750D4B1B681846FEF7DEFFC0
:104770000346002B02D03E233B7504E0084B1B6828
:104780001846FFF713FB07F1140201231D21F868F7
:10479000FFF7CEFB00BF1837BD4680BD1C000020D0
:1047A0001400002080B58AB000AFF860B9601346ED
:1047B000FB71194B1B6807F1100211461846FEF7F2
:1047C000A1FFFB69002B06D1002387F824300023CA
:1047D00087F8253014E0FB691B09FB84FB6903F0B3
:1047E0000F03002B02D0FB8C0133FB84FB8C1B0AD4
:1047F0009BB2DBB287F82430FB8CDBB287F8253024
:1048000007F1240202231F21F868FFF791FB00BF84
:104810002837BD4680BD00BF1C00002080B58CB08D
:1048200000AFF860B9601346FB714FF63F733B85EC
:10483000BB681B7887F82D30214B1B6807F11402E9
:1048400011461846FEF75EFF3B6A1B09FB853B6A73
:1048500003F00F03002B02D0FB8D0133FB85FB8D92
:10486000002B06D13E2387F828303E2387F82930D5
:104870001BE097F82D309BB2FA8D9A4206D83E2362
:1048800087F828303E2387F829300EE097F82D303E
:104890001946252007F048FB094B1B6897F82D2087
:1048A00092B211461846FEF779FF07F1280202235B
:1048B0002121F868FFF73CFB00BF3037BD4680BDC3
:1048C0001C00002080B586B000AFF860B9601346C8
:1048D000FB7103F035FF78617B691B0EDBB23B7423
:1048E0007B691B0CDBB27B747B691B0ADBB2BB747C
:1048F0007B69DBB2FB7407F1100204232321F86803
:10490000FFF716FB00BF1837BD4680BD80B586B0E7
:1049100000AFF860B9601346FB714FF63F73BB827E
:1049200002F00CFD07F1140202232521F868FFF7BD
:10493000FFFA00BF1837BD4680BD80B586B000AF16
:10494000F860B9601346FB7103F0FAFE78617B6989
:104950001B0EDBB23B747B691B0CDBB27B747B6987
:104960001B0ADBB2BB747B69DBB2FB7407F110027C
:1049700004232721F868FFF7DBFA00BF1837BD468C
:1049800080BD000080B586B000AFF860B960134606
:10499000FB714FF63F733B82BB681B78FB75BB68AE
:1049A00001331B78BB82B7F91430642B03DC97F911
:1049B0001730012B04DD3E233B743E237B7408E05B
:1049C000094B1B6897F91710B7F914201846FEF722
:1049D00087FD07F1100202232921F868FFF7A8FAE2
:1049E00000BF1837BD4680BD1C00002080B586B0D2
:1049F00000AFF860B9601346FB714FF63F73BB829E
:104A0000BB681B78FB75BB6801331B78BB75FB7DEE
:104A1000002B05D1BB7D242B08D8BB7D002B05D0F6
:104A2000FB7D012B07D1BB7D002B04D13E233B75C1
:104A30003E237B7511E0FB7D002B07D10C4B1B68DF
:104A4000BA7D11461846FEF776FD06E0FB7D012B88
:104A500003D1BB7D184602F01DFB07F114020223AF
:104A60002B21F868FFF764FA00BF1837BD4680BDF8
:104A70001C00002080B586B000AFF860B960134616
:104A8000FB71FF233B75BB681B78FB7507F11402B4
:104A900001232D21F868FFF74BFAFB7D002B05D190
:104AA000084B1B681846FEF769FD07E0FB7D012BEC
:104AB00004D1044B1B681846FEF77BFD00BF183776
:104AC000BD4680BD1C00002080B588B000AFF860F6
:104AD000B9601346FB7102F073FB0346FB8302F0DF
:104AE00097FB0346BB833F233B75FB8B1B0A9BB2A3
:104AF000DBB27B75FB8BDBB2BB75BB8B1B0A9BB23E
:104B0000DBB2FB75BB8BDBB23B7607F114020523EE
:104B10003321F868FFF70CFA00BF2037BD4680BD8F
:104B200080B586B000AFF860B9601346FB71FF2313
:104B30003B7507F015FB07F1140201233521F868D6
:104B4000FFF7F6F900BF1837BD4680BD80B400AF4F
:104B5000024B1846BD465DF8047B704710290308D8
:104B600080B400AF18231846BD465DF8047B70473B
:104B700080B582B000AF786039607B681833184622
:104B800007F0FAFB00BF0837BD4680BD80B584B092
:104B900000AF786039607B685B69FB607B685B694C
:104BA0003968786898470346FB72FB7A002B08D176
:104BB000FB680649786898477B685B6904497868B0
:104BC000984700BF1037BD4680BD00BFF4290308D9
:104BD000E029030880B584B002AF786039607B6853
:104BE000002B03D10021134801F09CFE78683B683C
:104BF0005A683B689B68009313460F4A0F4907F0B9
:104C000019FB7B6818337A681721184607F072FB86
:104C10003B681A687B685A617B68002283F8282009
:104C20007B681833184607F0A7FB00BF0837BD465E
:104C300080BD00BFD02903088D4B0208714B0208CC
:104C400080B586B002AF12230093022324220949C3
:104C5000094806F0D5FE094A3B1D07CA83E807004C
:104C60003B1D19460648FFF7B5FF00BF1037BD468C
:104C700080BD00BF08CC00202CCC0020241C0308E1
:104C8000C8CB002080B582B000AF0346FB71FB7932
:104C90001946034807F0E8FA00BF0837BD4680BD53
:104CA000C8CB002080B582B000AF786039603B6827
:104CB0001B88012B02D0172B02D01BE001231AE026
:104CC0007B6893F82830002B09D10D4B1B681846E0
:104CD00001F0BFF97B68012283F8282008E0084B27
:104CE0001B68184601F044FA7B68002283F82820EC
:104CF000012300E0022318460837BD4680BD00BFEF
:104D00002400002080B500AF0C4B1B68184601F052
:104D1000A0F90346002B01D001230CE0084B1B88AF
:104D2000074A12881946074807F006FB064B01227E
:104D300083F828200023184680BD00BF24000020EF
:104D400028000020E0CB0020C8CB002080B500AFB9
:104D5000074807F011FB074B1B68184601F008FADB
:104D6000054B002283F828200023184680BD00BF91
:104D7000E0CB002024000020C8CB002080B483B00A
:104D800000AF0346FB80044AFB88138000BF0C374A
:104D9000BD465DF8047B70472800002080B483B0D6
:104DA00000AF78607B68DB6903F02003202B01D122
:104DB000012300E0002318460C37BD465DF8047B54
:104DC000704780B483B000AF78607B685B6ADBB209
:104DD00018460C37BD465DF8047B704780B582B03D
:104DE00000AF0B48FFF7DAFF0346002B0BD0084853
:104DF000FFF7E7FF0346FB71064B1B68FA79114684
:104E0000184605F0A1FD00BF0837BD4680BD00BFB4
:104E10000014014090CC002080B584B000AF7860D1
:104E20007B689B69184606F0B8FDF860FB68002BAC
:104E300008D0064B1B78002B04D07B680449184629
:104E400007F03CFA00BF1037BD4680BD8CCC002077
:104E5000082A030880B500AFFFF7C0FF0448FFF73A
:104E6000DBFF044B4FF0FF321A6200BF80BD00BF72
:104E700048CC00200014014080B584B000AFF86039
:104E8000B9607A60FB70FB68BA681A63FB687A687D
:104E90005A63FB78002B05D0FB680749184607F0DA
:104EA0000DFA04E0FB680549184607F007FA00BF51
:104EB0001037BD4680BD00BF102A03080C2A030826
:104EC00080B582B000AF78607B680449184607F06F
:104ED000F5F900BF0837BD4680BD00BF142A03089E
:104EE00080B582B000AF78607B680449184607F04F
:104EF000E5F900BF0837BD4680BD00BF182A03088A
:104F000080B483B000AF786039607B681A693B6811
:104F100013403A689A420CBF01230023DBB21846C3
:104F20000C37BD465DF8047B704780B483B000AF9A
:104F3000786039607B683A689A6100BF0C37BD467B
:104F40005DF8047B704780B483B000AF786039604F
:104F50003B681A047B689A6100BF0C37BD465DF858
:104F6000047B704780B584B002AF786039607868A0
:104F70003B685A683B689B68009313460D4A0E498C
:104F800007F058F97B6814337A682921184607F02E
:104F9000B1F93B681A687B685A627B6800229A62A2
:104FA0007B681433184607F0E7F900BF0837BD46A1
:104FB00080BD00BF215002080150020880B586B0B4
:104FC00002AF0B4A3B1D07CA83E807000223009388
:104FD00005230A220749084806F012FD3B1D194621
:104FE0000648FFF7BFFF00BF1037BD4680BD00BFBA
:104FF000301C0308E0CC0020C0CC002094CC002062
:1050000080B582B000AF786039604FF4807103489A
:10501000FFF78BFF00BF0837BD4680BD0008024088
:1050200080B582B000AF786039607B685B6A3968B0
:105030007868984700BF0837BD4680BD80B582B00C
:1050400000AF0346FB71FB791946034807F00CF9E2
:1050500000BF0837BD4680BD94CC002080B582B02B
:1050600000AF786039603B681B88292B38D1062057
:1050700001F0B8FA7B689B6A5A1C7B689A624FF40D
:1050800000711A48FFF73CFF0346002B10D07B68E5
:1050900000229A624FF480711448FFF746FF062001
:1050A00001F086FA7B681433184607F065F915E0BD
:1050B0007B689B6A4EF6602293420FD97B68002280
:1050C0009A624FF480710948FFF72FFF062001F024
:1050D0006FFA7B681433184607F04EF9012300E09D
:1050E000022318460837BD4680BD00BF00080240B5
:1050F00080B582B000AF78604FF480710948FFF747
:1051000022FF7B68143305220521184607F014F9A5
:105110004FF49671062001F02DFA00BF0837BD4606
:1051200080BD00BF0008024080B584B002AF786047
:10513000396078683B685A683B689B6800931346FF
:105140000F4A104907F076F87B6814337A682621F5
:10515000184607F0CFF83B681A687B685A627B688C
:105160004FF47A729A627B68FF2283F82C207B6866
:105170001433184607F000F900BF0837BD4680BD5C
:105180001D520208CD51020880B586B002AF02233D
:105190000093012302220949094806F031FC094A1B
:1051A0003B1D07CA83E807003B1D19460648FFF769
:1051B000BBFF00BF1037BD4680BD00BF3CCD002007
:1051C0001CCD00203C1C0308ECCC002080B582B034
:1051D00000AF7860396006F0A1FE7B6803F114002F
:1051E0007B689B6A99B27B689B6A9BB21A4607F000
:1051F000A3F800BF0837BD4680BD000080B582B06F
:1052000000AF0346FB71FB791946034807F02CF801
:1052100000BF0837BD4680BDECCC002080B582B011
:1052200000AF786039603B681B88262B05D10720CA
:1052300001F0D8F9786800F005F80123184608371E
:10524000BD4680BD90B587B002AF786007F1080316
:1052500007F1090207F10A0107F10B0003F0CEFB89
:10526000FB7A1946BB7A1A467B7A18463B7A00933A
:105270000346012006F058FE0023FB601CE07B681B
:1052800093F82C301A46FB6842FA03F303F001034B
:10529000002B0ED0F86802F0E7F803461C46F868C9
:1052A00002F0E2F803461B0A2246F968022006F0E3
:1052B0003BFEFB680133FB60FB68072BDFD900BFB7
:1052C00000BF1437BD4690BD80B483B000AF786096
:1052D0000B46FB707B68FA7883F82C2000BF0C37F4
:1052E000BD465DF8047B704780B582B000AF786042
:1052F00039600121786800F04BFD786800F061FDAD
:1053000001F0A0F80346002B46D001F017FB424BFA
:10531000B3F91420414BA3F858203F4BB3F90E20AA
:105320003E4BA3F852203C4BB3F90C203B4BA3F867
:105330005020394B1A79394B83F84820364B5A792B
:10534000364B83F84920344B9B68344AD364324B44
:105350001A7C324B83F854202F4BDA8A2F4BA3F858
:105360005A202D4B5A7C2D4B83F855202A4B9A7C82
:105370002A4B83F85620284B9B69284AD365264B35
:105380001A7F264B83F86020234BDA8B234BA3F83C
:10539000622001F0F7FA34E07B68FA22A3F8582083
:1053A0007B680022A3F852207B684FF47A72A3F83E
:1053B00050207B68002283F848207B68012283F814
:1053C00049207B680122DA647B68012283F854203B
:1053D0007B68012283F855207B684FF41672A3F88E
:1053E0005A207B68142283F856207B680122DA65F4
:1053F0007B68042283F860207B684FF41672A3F860
:1054000062207B68203364226421184606F094FFF2
:1054100000BF0837BD4680BD1440024040CD00208B
:1054200080B584B000AF786039607B685B69FB60F1
:105430007B685B693968786898470346FB72FB7A3A
:10544000002B08D1FB680649786898477B685B6940
:1054500004497868984700BF1037BD4680BD00BF3B
:105460003C2A0308282A030880B586B002AF78607A
:1054700039607B68002B03D100211D4801F052FAEE
:1054800078683B685A683B689B6800931346194AE2
:10549000194906F0CFFE7B6820337A68152118463B
:1054A00006F028FF3B681A687B685A617B68002217
:1054B00083F844200023FB600EE03A68FB68023367
:1054C0009B0013445A687968FB680C339B000B44BB
:1054D0005A60FB680133FB60FB68032BEDD97B68E6
:1054E0002033184606F048FF00BF1037BD4680BD88
:1054F0001C2A030821540208E9520208B0B58AB0F8
:1055000002AF122300930A23B4220B490B4806F082
:1055100077FA0B4B3C1D1D460FCD0FC495E80700D5
:1055200084E807003B1D19460648FFF79DFF00BFB2
:105530002037BD46B0BD00BFD8CD0020A8CD00208B
:10554000481C030840CD002080B582B000AF034660
:10555000FB71FB791946034806F086FE00BF083749
:10556000BD4680BD40CD002080B582B000AF7860E0
:1055700039607B68DB6D002B06D07B68084A5A6176
:10558000084800F0E1FB05E07B68074A5A610548DE
:1055900000F0B6FB012318460837BD4680BD00BFAA
:1055A000A156020840CD0020AD55020880B584B058
:1055B00000AF786039603B681B88162B20D0162B13
:1055C00063DC012B02D0032B13D05EE0082000F037
:1055D000EFFF7B682033184606F0CEFE786800F0B7
:1055E00093FC786800F0DDFC7B6801229A6101235E
:1055F0004CE04FF4FA71082000F0BCFF012345E0B5
:105600003B689B78042B3ED17B6893F83030002BAD
:1056100009D10121786800F0BBFB786800F0D1FB6C
:10562000786800F071FC7B6893F8483018467B6816
:1056300093F8493019467B68B3F950207B68B3F979
:10564000523001F041FF0346002B04D07B68114A21
:105650005A6100231AE07B6893F84830184601F03D
:1056600003FF0346FB817B68B3F95830B7F90E207E
:105670009A4203DD7B68084A5A6102E07B68074A68
:105680005A61002302E0022300E00223184610378B
:10569000BD4680BDCD5B0208A1560208DD57020859
:1056A00080B584B000AF786039603B681B88013BEF
:1056B000152B00F2878001A252F823F0155702083B
:1056C000C55702083F570208C5570208C5570208C8
:1056D000C5570208C5570208C5570208C557020832
:1056E000C5570208C5570208C5570208C557020822
:1056F000C5570208C5570208C5570208C557020812
:10570000C5570208C5570208C55702084D57020879
:10571000AF570208062006F007FC7B680022DA611A
:10572000786800F082FB786800F0CAFB7B68203361
:1057300064226421184606F0FFFD012343E07B68E4
:105740002033184606F018FE01233CE0082000F044
:1057500049FF7B6893F8483018467B6893F84930D6
:1057600019467B68B3F950207B68B3F9523001F0D9
:10577000ABFE0346002B04D07B68154A5A61002318
:1057800021E07B6893F84830184601F06DFE03462F
:10579000FB817B68B3F95830B7F90E209A4201DDDE
:1057A000012310E07B680B4A5A6100230BE03B6841
:1057B0009B78052B04D17B68074A5A61002302E0DD
:1057C000022300E0022318461037BD4680BD00BF0B
:1057D000CD5B0208DD570208AD55020880B584B0E4
:1057E00000AF786039603B681B88013B152B00F2E5
:1057F000998001A252F823F0515802082559020855
:105800007558020825590208255902082559020829
:105810002559020825590208255902082559020868
:105820002559020825590208255902082559020858
:105830002559020825590208255902082559020848
:105840002559020825590208835802080F590208F1
:105850007B680022DA61786800F056FB786800F017
:10586000A0FB7B68203364226421184606F064FDA7
:10587000012358E07B682033184606F07DFD0123A4
:1058800051E0082000F0AEFE7B6893F848301846DF
:105890007B6893F8493019467B68B3F950207B68E0
:1058A000B3F9523001F010FE0346002B04D07B68A0
:1058B0001F4A5A61002336E07B6893F84830184647
:1058C00001F0D2FD0346FB817B68B3F95830B7F98C
:1058D0000E209A4204DD7B68164A5A61002322E0BA
:1058E0007B68DB695A1C7B68DA617B68DB691D2B8E
:1058F00008D87B68B3F958301A46B7F90E30D31A76
:105900000A2B04DD7B680C4A5A6100230BE03B68DC
:105910009B78052B04D17B68084A5A61002302E07A
:10592000022300E0022318461037BD4680BD00BFA9
:10593000CD5B0208A156020841590208AD55020884
:1059400080B584B000AF786039603B681B88013B4C
:10595000152B00F2878001A252F823F0B5590208F6
:10596000655A0208DF590208655A0208655A02089A
:10597000655A0208655A0208655A0208655A020803
:10598000655A0208655A0208655A0208655A0208F3
:10599000655A0208655A0208655A0208655A0208E3
:1059A000655A0208655A0208655A0208ED5902084C
:1059B0004F5A0208072006F0B7FA7B680022DA6126
:1059C000786800F0A1FA786800F0C2FA7B682033AA
:1059D00064226421184606F0AFFC012343E07B6893
:1059E0002033184606F0C8FC01233CE0082000F0F4
:1059F000F9FD7B6893F8483018467B6893F8493086
:105A000019467B68B3F950207B68B3F9523001F036
:105A10005BFD0346002B04D07B68154A5A610023C6
:105A200021E07B6893F84830184601F01DFD0346DD
:105A3000FB817B68B3F95830B7F90E209A4201DA3E
:105A4000012310E07B680B4A5A6100230BE03B689E
:105A50009B78052B04D17B68074A5A61002302E03A
:105A6000022300E0022318461037BD4680BD00BF68
:105A7000CD5B02087D5A0208AD55020880B584B09E
:105A800000AF786039603B681B88013B152B00F242
:105A90008F8001A252F823F0F15A0208B15B02088C
:105AA0000F5B0208B15B0208B15B0208B15B020840
:105AB000B15B0208B15B0208B15B0208B15B02088E
:105AC000B15B0208B15B0208B15B0208B15B02087E
:105AD000B15B0208B15B0208B15B0208B15B02086E
